{
	"src/YeeterStrategy.sol": {
		"YeeterStrategy": {
			"abi": [
				{
					"inputs": [
						{
							"internalType": "address",
							"name": "_allo",
							"type": "address"
						},
						{
							"internalType": "string",
							"name": "_name",
							"type": "string"
						}
					],
					"stateMutability": "nonpayable",
					"type": "constructor"
				},
				{
					"inputs": [],
					"name": "ALLOCATION_ACTIVE",
					"type": "error"
				},
				{
					"inputs": [],
					"name": "ALLOCATION_NOT_ACTIVE",
					"type": "error"
				},
				{
					"inputs": [],
					"name": "ALLOCATION_NOT_ENDED",
					"type": "error"
				},
				{
					"inputs": [],
					"name": "ALREADY_INITIALIZED",
					"type": "error"
				},
				{
					"inputs": [],
					"name": "AMOUNT_MISMATCH",
					"type": "error"
				},
				{
					"inputs": [],
					"name": "ANCHOR_ERROR",
					"type": "error"
				},
				{
					"inputs": [],
					"name": "ARRAY_MISMATCH",
					"type": "error"
				},
				{
					"inputs": [],
					"name": "INPUT_LENGTH_MISMATCH",
					"type": "error"
				},
				{
					"inputs": [],
					"name": "INVALID",
					"type": "error"
				},
				{
					"inputs": [],
					"name": "INVALID_ADDRESS",
					"type": "error"
				},
				{
					"inputs": [],
					"name": "INVALID_FEE",
					"type": "error"
				},
				{
					"inputs": [],
					"name": "INVALID_METADATA",
					"type": "error"
				},
				{
					"inputs": [],
					"name": "INVALID_REGISTRATION",
					"type": "error"
				},
				{
					"inputs": [],
					"name": "IS_APPROVED_STRATEGY",
					"type": "error"
				},
				{
					"inputs": [],
					"name": "MISMATCH",
					"type": "error"
				},
				{
					"inputs": [],
					"name": "NONCE_NOT_AVAILABLE",
					"type": "error"
				},
				{
					"inputs": [],
					"name": "NON_ZERO_VALUE",
					"type": "error"
				},
				{
					"inputs": [],
					"name": "NOOP",
					"type": "error"
				},
				{
					"inputs": [],
					"name": "NOT_APPROVED_STRATEGY",
					"type": "error"
				},
				{
					"inputs": [],
					"name": "NOT_ENOUGH_FUNDS",
					"type": "error"
				},
				{
					"inputs": [],
					"name": "NOT_IMPLEMENTED",
					"type": "error"
				},
				{
					"inputs": [],
					"name": "NOT_INITIALIZED",
					"type": "error"
				},
				{
					"inputs": [],
					"name": "NOT_PENDING_OWNER",
					"type": "error"
				},
				{
					"inputs": [],
					"name": "POOL_ACTIVE",
					"type": "error"
				},
				{
					"inputs": [],
					"name": "POOL_INACTIVE",
					"type": "error"
				},
				{
					"inputs": [],
					"name": "RECIPIENT_ALREADY_ACCEPTED",
					"type": "error"
				},
				{
					"inputs": [
						{
							"internalType": "address",
							"name": "recipientId",
							"type": "address"
						}
					],
					"name": "RECIPIENT_ERROR",
					"type": "error"
				},
				{
					"inputs": [],
					"name": "RECIPIENT_NOT_ACCEPTED",
					"type": "error"
				},
				{
					"inputs": [],
					"name": "REGISTRATION_ACTIVE",
					"type": "error"
				},
				{
					"inputs": [],
					"name": "REGISTRATION_NOT_ACTIVE",
					"type": "error"
				},
				{
					"inputs": [],
					"name": "UNAUTHORIZED",
					"type": "error"
				},
				{
					"inputs": [],
					"name": "ZERO_ADDRESS",
					"type": "error"
				},
				{
					"anonymous": false,
					"inputs": [
						{
							"indexed": true,
							"internalType": "address",
							"name": "recipientId",
							"type": "address"
						},
						{
							"indexed": false,
							"internalType": "uint256",
							"name": "amount",
							"type": "uint256"
						},
						{
							"indexed": false,
							"internalType": "address",
							"name": "token",
							"type": "address"
						},
						{
							"indexed": false,
							"internalType": "address",
							"name": "sender",
							"type": "address"
						}
					],
					"name": "Allocated",
					"type": "event"
				},
				{
					"anonymous": false,
					"inputs": [
						{
							"indexed": true,
							"internalType": "address",
							"name": "recipientId",
							"type": "address"
						},
						{
							"indexed": false,
							"internalType": "address",
							"name": "recipientAddress",
							"type": "address"
						},
						{
							"indexed": false,
							"internalType": "uint256",
							"name": "amount",
							"type": "uint256"
						},
						{
							"indexed": false,
							"internalType": "address",
							"name": "sender",
							"type": "address"
						}
					],
					"name": "Distributed",
					"type": "event"
				},
				{
					"anonymous": false,
					"inputs": [
						{
							"indexed": false,
							"internalType": "uint256",
							"name": "poolId",
							"type": "uint256"
						},
						{
							"indexed": false,
							"internalType": "bytes",
							"name": "data",
							"type": "bytes"
						}
					],
					"name": "Initialized",
					"type": "event"
				},
				{
					"anonymous": false,
					"inputs": [
						{
							"indexed": false,
							"internalType": "bool",
							"name": "active",
							"type": "bool"
						}
					],
					"name": "PoolActive",
					"type": "event"
				},
				{
					"anonymous": false,
					"inputs": [
						{
							"indexed": true,
							"internalType": "address",
							"name": "recipientId",
							"type": "address"
						},
						{
							"indexed": false,
							"internalType": "bytes",
							"name": "data",
							"type": "bytes"
						},
						{
							"indexed": false,
							"internalType": "address",
							"name": "sender",
							"type": "address"
						}
					],
					"name": "Registered",
					"type": "event"
				},
				{
					"inputs": [],
					"name": "NATIVE",
					"outputs": [
						{
							"internalType": "address",
							"name": "",
							"type": "address"
						}
					],
					"stateMutability": "view",
					"type": "function"
				},
				{
					"inputs": [
						{
							"internalType": "bytes",
							"name": "_data",
							"type": "bytes"
						},
						{
							"internalType": "address",
							"name": "_sender",
							"type": "address"
						}
					],
					"name": "allocate",
					"outputs": [],
					"stateMutability": "payable",
					"type": "function"
				},
				{
					"inputs": [
						{
							"internalType": "address[]",
							"name": "_recipientIds",
							"type": "address[]"
						},
						{
							"internalType": "bytes",
							"name": "_data",
							"type": "bytes"
						},
						{
							"internalType": "address",
							"name": "_sender",
							"type": "address"
						}
					],
					"name": "distribute",
					"outputs": [],
					"stateMutability": "nonpayable",
					"type": "function"
				},
				{
					"inputs": [],
					"name": "getAllo",
					"outputs": [
						{
							"internalType": "contract IAllo",
							"name": "",
							"type": "address"
						}
					],
					"stateMutability": "view",
					"type": "function"
				},
				{
					"inputs": [
						{
							"internalType": "address[]",
							"name": "_recipientIds",
							"type": "address[]"
						},
						{
							"internalType": "bytes[]",
							"name": "_data",
							"type": "bytes[]"
						}
					],
					"name": "getPayouts",
					"outputs": [
						{
							"components": [
								{
									"internalType": "address",
									"name": "recipientAddress",
									"type": "address"
								},
								{
									"internalType": "uint256",
									"name": "amount",
									"type": "uint256"
								}
							],
							"internalType": "struct IStrategy.PayoutSummary[]",
							"name": "",
							"type": "tuple[]"
						}
					],
					"stateMutability": "view",
					"type": "function"
				},
				{
					"inputs": [],
					"name": "getPoolAmount",
					"outputs": [
						{
							"internalType": "uint256",
							"name": "",
							"type": "uint256"
						}
					],
					"stateMutability": "view",
					"type": "function"
				},
				{
					"inputs": [],
					"name": "getPoolId",
					"outputs": [
						{
							"internalType": "uint256",
							"name": "",
							"type": "uint256"
						}
					],
					"stateMutability": "view",
					"type": "function"
				},
				{
					"inputs": [
						{
							"internalType": "address",
							"name": "_recipientId",
							"type": "address"
						}
					],
					"name": "getRecipientStatus",
					"outputs": [
						{
							"internalType": "enum IStrategy.Status",
							"name": "",
							"type": "uint8"
						}
					],
					"stateMutability": "view",
					"type": "function"
				},
				{
					"inputs": [],
					"name": "getStrategyId",
					"outputs": [
						{
							"internalType": "bytes32",
							"name": "",
							"type": "bytes32"
						}
					],
					"stateMutability": "view",
					"type": "function"
				},
				{
					"inputs": [
						{
							"internalType": "uint256",
							"name": "_amount",
							"type": "uint256"
						}
					],
					"name": "increasePoolAmount",
					"outputs": [],
					"stateMutability": "nonpayable",
					"type": "function"
				},
				{
					"inputs": [
						{
							"internalType": "uint256",
							"name": "_poolId",
							"type": "uint256"
						},
						{
							"internalType": "bytes",
							"name": "_data",
							"type": "bytes"
						}
					],
					"name": "initialize",
					"outputs": [],
					"stateMutability": "nonpayable",
					"type": "function"
				},
				{
					"inputs": [],
					"name": "isPoolActive",
					"outputs": [
						{
							"internalType": "bool",
							"name": "",
							"type": "bool"
						}
					],
					"stateMutability": "view",
					"type": "function"
				},
				{
					"inputs": [
						{
							"internalType": "address",
							"name": "_allocator",
							"type": "address"
						}
					],
					"name": "isValidAllocator",
					"outputs": [
						{
							"internalType": "bool",
							"name": "",
							"type": "bool"
						}
					],
					"stateMutability": "view",
					"type": "function"
				},
				{
					"inputs": [
						{
							"internalType": "bytes",
							"name": "_data",
							"type": "bytes"
						},
						{
							"internalType": "address",
							"name": "_sender",
							"type": "address"
						}
					],
					"name": "registerRecipient",
					"outputs": [
						{
							"internalType": "address",
							"name": "recipientId",
							"type": "address"
						}
					],
					"stateMutability": "payable",
					"type": "function"
				},
				{
					"inputs": [
						{
							"internalType": "address",
							"name": "_token",
							"type": "address"
						},
						{
							"internalType": "address",
							"name": "_recipient",
							"type": "address"
						},
						{
							"internalType": "uint256",
							"name": "_amount",
							"type": "uint256"
						}
					],
					"name": "withdraw",
					"outputs": [],
					"stateMutability": "nonpayable",
					"type": "function"
				},
				{
					"stateMutability": "payable",
					"type": "receive"
				}
			],
			"devdoc": {
				"errors": {
					"ANCHOR_ERROR()": [
						{
							"details": "Thrown if the anchor creation fails"
						}
					],
					"NONCE_NOT_AVAILABLE()": [
						{
							"details": "Thrown when the nonce passed has been used or not available"
						}
					],
					"NOT_PENDING_OWNER()": [
						{
							"details": "Thrown when the 'msg.sender' is not the pending owner on ownership transfer"
						}
					]
				},
				"events": {
					"Allocated(address,uint256,address,address)": {
						"params": {
							"amount": "The amount allocated",
							"recipientId": "The ID of the recipient",
							"token": "The token allocated"
						}
					},
					"Distributed(address,address,uint256,address)": {
						"params": {
							"amount": "The amount distributed",
							"recipientAddress": "The recipient",
							"recipientId": "The ID of the recipient",
							"sender": "The sender"
						}
					},
					"Initialized(uint256,bytes)": {
						"params": {
							"data": "The data passed to the 'initialize' function",
							"poolId": "The ID of the pool"
						}
					},
					"PoolActive(bool)": {
						"params": {
							"active": "The status of the pool"
						}
					},
					"Registered(address,bytes,address)": {
						"params": {
							"data": "The data passed to the 'registerRecipient' function",
							"recipientId": "The ID of the recipient",
							"sender": "The sender"
						}
					}
				},
				"kind": "dev",
				"methods": {
					"allocate(bytes,address)": {
						"details": "The encoded '_data' will be determined by the strategy implementation. Only 'Allo' contract can      call this when it is initialized.",
						"params": {
							"_data": "The data to use to allocate to the recipient",
							"_sender": "The address of the sender"
						}
					},
					"distribute(address[],bytes,address)": {
						"details": "The encoded '_data' will be determined by the strategy implementation. Only 'Allo' contract can      call this when it is initialized.",
						"params": {
							"_data": "The data to use to distribute to the recipients",
							"_recipientIds": "The IDs of the recipients",
							"_sender": "The address of the sender"
						}
					},
					"getAllo()": {
						"returns": {
							"_0": "The Allo contract"
						}
					},
					"getPayouts(address[],bytes[])": {
						"details": "The encoded '_data' will be determined by the strategy implementation.",
						"params": {
							"_data": "The data to use to get the payout summary for the recipients",
							"_recipientIds": "The IDs of the recipients"
						},
						"returns": {
							"_0": "The payout summary for the recipients"
						}
					},
					"getPoolAmount()": {
						"returns": {
							"_0": "The balance of the pool"
						}
					},
					"getPoolId()": {
						"returns": {
							"_0": "The ID of the pool"
						}
					},
					"getRecipientStatus(address)": {
						"params": {
							"_recipientId": "The ID of the recipient"
						},
						"returns": {
							"_0": "The status of the recipient"
						}
					},
					"getStrategyId()": {
						"returns": {
							"_0": "The ID of the strategy"
						}
					},
					"increasePoolAmount(uint256)": {
						"details": "Increases the 'poolAmount' by '_amount'. Only 'Allo' contract can call this.",
						"params": {
							"_amount": "The amount to increase the pool by"
						}
					},
					"initialize(uint256,bytes)": {
						"params": {
							"_data": "The encoded data",
							"_poolId": "The ID of the pool"
						}
					},
					"isPoolActive()": {
						"returns": {
							"_0": "'true' if the pool is active, otherwise 'false'"
						}
					},
					"isValidAllocator(address)": {
						"details": "How the allocator is determined is up to the strategy implementation.",
						"params": {
							"_allocator": "The address to check if it is a valid allocator for the strategy."
						},
						"returns": {
							"_0": "'true' if the address is a valid allocator, 'false' otherwise"
						}
					},
					"registerRecipient(bytes,address)": {
						"details": "Registers a recipient and returns the ID of the recipient. The encoded '_data' will be determined by the      strategy implementation. Only 'Allo' contract can call this when it is initialized.",
						"params": {
							"_data": "The data to use to register the recipient",
							"_sender": "The address of the sender"
						},
						"returns": {
							"recipientId": "The recipientId"
						}
					},
					"withdraw(address,address,uint256)": {
						"params": {
							"_amount": "Amount to withdraw",
							"_recipient": "Address to send the funds to",
							"_token": "Token address"
						}
					}
				},
				"version": 1
			},
			"evm": {
				"assembly": "    /* \"src/YeeterStrategy.sol\":421:3028  contract YeeterStrategy is BaseStrategy {... */\n  mstore(0x40, 0xc0)\n    /* \"src/YeeterStrategy.sol\":521:598  constructor(address _allo, string memory _name) BaseStrategy(_allo, _name) {} */\n  callvalue\n  dup1\n  iszero\n  tag_1\n  jumpi\n  revert(0x00, 0x00)\ntag_1:\n  pop\n  mload(0x40)\n  sub(codesize, bytecodeSize)\n  dup1\n  bytecodeSize\n  dup4\n  codecopy\n  dup2\n  dup2\n  add\n  0x40\n  mstore\n  dup2\n  add\n  swap1\n  tag_2\n  swap2\n  swap1\n  tag_3\n  jump\t// in\ntag_2:\n    /* \"src/YeeterStrategy.sol\":582:587  _allo */\n  dup2\n    /* \"src/YeeterStrategy.sol\":589:594  _name */\n  dup2\n    /* \"lib/allo-v2/contracts/strategies/BaseStrategy.sol\":5281:5286  _allo */\n  dup2\n    /* \"lib/allo-v2/contracts/strategies/BaseStrategy.sol\":5268:5287  allo = IAllo(_allo) */\n  0xffffffffffffffffffffffffffffffffffffffff\n  and\n  0x80\n  dup2\n  0xffffffffffffffffffffffffffffffffffffffff\n  and\n  dup2\n  mstore\n  pop\n  pop\n    /* \"lib/allo-v2/contracts/strategies/BaseStrategy.sol\":5331:5336  _name */\n  dup1\n    /* \"lib/allo-v2/contracts/strategies/BaseStrategy.sol\":5320:5337  abi.encode(_name) */\n  add(0x20, mload(0x40))\n  tag_7\n  swap2\n  swap1\n  tag_8\n  jump\t// in\ntag_7:\n  mload(0x40)\n  0x20\n  dup2\n  dup4\n  sub\n  sub\n  dup2\n  mstore\n  swap1\n  0x40\n  mstore\n    /* \"lib/allo-v2/contracts/strategies/BaseStrategy.sol\":5310:5338  keccak256(abi.encode(_name)) */\n  dup1\n  mload\n  swap1\n  0x20\n  add\n  keccak256\n    /* \"lib/allo-v2/contracts/strategies/BaseStrategy.sol\":5297:5338  strategyId = keccak256(abi.encode(_name)) */\n  0xa0\n  dup2\n  dup2\n  mstore\n  pop\n  pop\n    /* \"lib/allo-v2/contracts/strategies/BaseStrategy.sol\":5210:5345  constructor(address _allo, string memory _name) {... */\n  pop\n  pop\n    /* \"src/YeeterStrategy.sol\":521:598  constructor(address _allo, string memory _name) BaseStrategy(_allo, _name) {} */\n  pop\n  pop\n    /* \"src/YeeterStrategy.sol\":421:3028  contract YeeterStrategy is BaseStrategy {... */\n  jump(tag_10)\n    /* \"#utility.yul\":7:82   */\ntag_11:\n    /* \"#utility.yul\":40:46   */\n  0x00\n    /* \"#utility.yul\":73:75   */\n  0x40\n    /* \"#utility.yul\":67:76   */\n  mload\n    /* \"#utility.yul\":57:76   */\n  swap1\n  pop\n    /* \"#utility.yul\":7:82   */\n  swap1\n  jump\t// out\n    /* \"#utility.yul\":88:205   */\ntag_12:\n    /* \"#utility.yul\":197:198   */\n  0x00\n    /* \"#utility.yul\":194:195   */\n  0x00\n    /* \"#utility.yul\":187:199   */\n  revert\n    /* \"#utility.yul\":211:328   */\ntag_13:\n    /* \"#utility.yul\":320:321   */\n  0x00\n    /* \"#utility.yul\":317:318   */\n  0x00\n    /* \"#utility.yul\":310:322   */\n  revert\n    /* \"#utility.yul\":334:460   */\ntag_14:\n    /* \"#utility.yul\":371:378   */\n  0x00\n    /* \"#utility.yul\":411:453   */\n  0xffffffffffffffffffffffffffffffffffffffff\n    /* \"#utility.yul\":404:409   */\n  dup3\n    /* \"#utility.yul\":400:454   */\n  and\n    /* \"#utility.yul\":389:454   */\n  swap1\n  pop\n    /* \"#utility.yul\":334:460   */\n  swap2\n  swap1\n  pop\n  jump\t// out\n    /* \"#utility.yul\":466:562   */\ntag_15:\n    /* \"#utility.yul\":503:510   */\n  0x00\n    /* \"#utility.yul\":532:556   */\n  tag_37\n    /* \"#utility.yul\":550:555   */\n  dup3\n    /* \"#utility.yul\":532:556   */\n  tag_14\n  jump\t// in\ntag_37:\n    /* \"#utility.yul\":521:556   */\n  swap1\n  pop\n    /* \"#utility.yul\":466:562   */\n  swap2\n  swap1\n  pop\n  jump\t// out\n    /* \"#utility.yul\":568:690   */\ntag_16:\n    /* \"#utility.yul\":641:665   */\n  tag_39\n    /* \"#utility.yul\":659:664   */\n  dup2\n    /* \"#utility.yul\":641:665   */\n  tag_15\n  jump\t// in\ntag_39:\n    /* \"#utility.yul\":634:639   */\n  dup2\n    /* \"#utility.yul\":631:666   */\n  eq\n    /* \"#utility.yul\":621:684   */\n  tag_40\n  jumpi\n    /* \"#utility.yul\":680:681   */\n  0x00\n    /* \"#utility.yul\":677:678   */\n  0x00\n    /* \"#utility.yul\":670:682   */\n  revert\n    /* \"#utility.yul\":621:684   */\ntag_40:\n    /* \"#utility.yul\":568:690   */\n  pop\n  jump\t// out\n    /* \"#utility.yul\":696:839   */\ntag_17:\n    /* \"#utility.yul\":753:758   */\n  0x00\n    /* \"#utility.yul\":784:790   */\n  dup2\n    /* \"#utility.yul\":778:791   */\n  mload\n    /* \"#utility.yul\":769:791   */\n  swap1\n  pop\n    /* \"#utility.yul\":800:833   */\n  tag_42\n    /* \"#utility.yul\":827:832   */\n  dup2\n    /* \"#utility.yul\":800:833   */\n  tag_16\n  jump\t// in\ntag_42:\n    /* \"#utility.yul\":696:839   */\n  swap3\n  swap2\n  pop\n  pop\n  jump\t// out\n    /* \"#utility.yul\":845:962   */\ntag_18:\n    /* \"#utility.yul\":954:955   */\n  0x00\n    /* \"#utility.yul\":951:952   */\n  0x00\n    /* \"#utility.yul\":944:956   */\n  revert\n    /* \"#utility.yul\":968:1085   */\ntag_19:\n    /* \"#utility.yul\":1077:1078   */\n  0x00\n    /* \"#utility.yul\":1074:1075   */\n  0x00\n    /* \"#utility.yul\":1067:1079   */\n  revert\n    /* \"#utility.yul\":1091:1193   */\ntag_20:\n    /* \"#utility.yul\":1132:1138   */\n  0x00\n    /* \"#utility.yul\":1183:1185   */\n  0x1f\n    /* \"#utility.yul\":1179:1186   */\n  not\n    /* \"#utility.yul\":1174:1176   */\n  0x1f\n    /* \"#utility.yul\":1167:1172   */\n  dup4\n    /* \"#utility.yul\":1163:1177   */\n  add\n    /* \"#utility.yul\":1159:1187   */\n  and\n    /* \"#utility.yul\":1149:1187   */\n  swap1\n  pop\n    /* \"#utility.yul\":1091:1193   */\n  swap2\n  swap1\n  pop\n  jump\t// out\n    /* \"#utility.yul\":1199:1379   */\ntag_21:\n    /* \"#utility.yul\":1247:1324   */\n  0x4e487b7100000000000000000000000000000000000000000000000000000000\n    /* \"#utility.yul\":1244:1245   */\n  0x00\n    /* \"#utility.yul\":1237:1325   */\n  mstore\n    /* \"#utility.yul\":1344:1348   */\n  0x41\n    /* \"#utility.yul\":1341:1342   */\n  0x04\n    /* \"#utility.yul\":1334:1349   */\n  mstore\n    /* \"#utility.yul\":1368:1372   */\n  0x24\n    /* \"#utility.yul\":1365:1366   */\n  0x00\n    /* \"#utility.yul\":1358:1373   */\n  revert\n    /* \"#utility.yul\":1385:1666   */\ntag_22:\n    /* \"#utility.yul\":1468:1495   */\n  tag_48\n    /* \"#utility.yul\":1490:1494   */\n  dup3\n    /* \"#utility.yul\":1468:1495   */\n  tag_20\n  jump\t// in\ntag_48:\n    /* \"#utility.yul\":1460:1466   */\n  dup2\n    /* \"#utility.yul\":1456:1496   */\n  add\n    /* \"#utility.yul\":1598:1604   */\n  dup2\n    /* \"#utility.yul\":1586:1596   */\n  dup2\n    /* \"#utility.yul\":1583:1605   */\n  lt\n    /* \"#utility.yul\":1562:1580   */\n  0xffffffffffffffff\n    /* \"#utility.yul\":1550:1560   */\n  dup3\n    /* \"#utility.yul\":1547:1581   */\n  gt\n    /* \"#utility.yul\":1544:1606   */\n  or\n    /* \"#utility.yul\":1541:1629   */\n  iszero\n  tag_49\n  jumpi\n    /* \"#utility.yul\":1609:1627   */\n  tag_50\n  tag_21\n  jump\t// in\ntag_50:\n    /* \"#utility.yul\":1541:1629   */\ntag_49:\n    /* \"#utility.yul\":1649:1659   */\n  dup1\n    /* \"#utility.yul\":1645:1647   */\n  0x40\n    /* \"#utility.yul\":1638:1660   */\n  mstore\n    /* \"#utility.yul\":1428:1666   */\n  pop\n    /* \"#utility.yul\":1385:1666   */\n  pop\n  pop\n  jump\t// out\n    /* \"#utility.yul\":1672:1801   */\ntag_23:\n    /* \"#utility.yul\":1706:1712   */\n  0x00\n    /* \"#utility.yul\":1733:1753   */\n  tag_52\n  tag_11\n  jump\t// in\ntag_52:\n    /* \"#utility.yul\":1723:1753   */\n  swap1\n  pop\n    /* \"#utility.yul\":1762:1795   */\n  tag_53\n    /* \"#utility.yul\":1790:1794   */\n  dup3\n    /* \"#utility.yul\":1782:1788   */\n  dup3\n    /* \"#utility.yul\":1762:1795   */\n  tag_22\n  jump\t// in\ntag_53:\n    /* \"#utility.yul\":1672:1801   */\n  swap2\n  swap1\n  pop\n  jump\t// out\n    /* \"#utility.yul\":1807:2115   */\ntag_24:\n    /* \"#utility.yul\":1869:1873   */\n  0x00\n    /* \"#utility.yul\":1959:1977   */\n  0xffffffffffffffff\n    /* \"#utility.yul\":1951:1957   */\n  dup3\n    /* \"#utility.yul\":1948:1978   */\n  gt\n    /* \"#utility.yul\":1945:2001   */\n  iszero\n  tag_55\n  jumpi\n    /* \"#utility.yul\":1981:1999   */\n  tag_56\n  tag_21\n  jump\t// in\ntag_56:\n    /* \"#utility.yul\":1945:2001   */\ntag_55:\n    /* \"#utility.yul\":2019:2048   */\n  tag_57\n    /* \"#utility.yul\":2041:2047   */\n  dup3\n    /* \"#utility.yul\":2019:2048   */\n  tag_20\n  jump\t// in\ntag_57:\n    /* \"#utility.yul\":2011:2048   */\n  swap1\n  pop\n    /* \"#utility.yul\":2103:2107   */\n  0x20\n    /* \"#utility.yul\":2097:2101   */\n  dup2\n    /* \"#utility.yul\":2093:2108   */\n  add\n    /* \"#utility.yul\":2085:2108   */\n  swap1\n  pop\n    /* \"#utility.yul\":1807:2115   */\n  swap2\n  swap1\n  pop\n  jump\t// out\n    /* \"#utility.yul\":2121:2260   */\ntag_25:\n    /* \"#utility.yul\":2210:2216   */\n  dup3\n    /* \"#utility.yul\":2205:2208   */\n  dup2\n    /* \"#utility.yul\":2200:2203   */\n  dup4\n    /* \"#utility.yul\":2194:2217   */\n  mcopy\n    /* \"#utility.yul\":2251:2252   */\n  0x00\n    /* \"#utility.yul\":2242:2248   */\n  dup4\n    /* \"#utility.yul\":2237:2240   */\n  dup4\n    /* \"#utility.yul\":2233:2249   */\n  add\n    /* \"#utility.yul\":2226:2253   */\n  mstore\n    /* \"#utility.yul\":2121:2260   */\n  pop\n  pop\n  pop\n  jump\t// out\n    /* \"#utility.yul\":2266:2700   */\ntag_26:\n    /* \"#utility.yul\":2355:2360   */\n  0x00\n    /* \"#utility.yul\":2380:2446   */\n  tag_60\n    /* \"#utility.yul\":2396:2445   */\n  tag_61\n    /* \"#utility.yul\":2438:2444   */\n  dup5\n    /* \"#utility.yul\":2396:2445   */\n  tag_24\n  jump\t// in\ntag_61:\n    /* \"#utility.yul\":2380:2446   */\n  tag_23\n  jump\t// in\ntag_60:\n    /* \"#utility.yul\":2371:2446   */\n  swap1\n  pop\n    /* \"#utility.yul\":2469:2475   */\n  dup3\n    /* \"#utility.yul\":2462:2467   */\n  dup2\n    /* \"#utility.yul\":2455:2476   */\n  mstore\n    /* \"#utility.yul\":2507:2511   */\n  0x20\n    /* \"#utility.yul\":2500:2505   */\n  dup2\n    /* \"#utility.yul\":2496:2512   */\n  add\n    /* \"#utility.yul\":2545:2548   */\n  dup5\n    /* \"#utility.yul\":2536:2542   */\n  dup5\n    /* \"#utility.yul\":2531:2534   */\n  dup5\n    /* \"#utility.yul\":2527:2543   */\n  add\n    /* \"#utility.yul\":2524:2549   */\n  gt\n    /* \"#utility.yul\":2521:2633   */\n  iszero\n  tag_62\n  jumpi\n    /* \"#utility.yul\":2552:2631   */\n  tag_63\n  tag_19\n  jump\t// in\ntag_63:\n    /* \"#utility.yul\":2521:2633   */\ntag_62:\n    /* \"#utility.yul\":2642:2694   */\n  tag_64\n    /* \"#utility.yul\":2687:2693   */\n  dup5\n    /* \"#utility.yul\":2682:2685   */\n  dup3\n    /* \"#utility.yul\":2677:2680   */\n  dup6\n    /* \"#utility.yul\":2642:2694   */\n  tag_25\n  jump\t// in\ntag_64:\n    /* \"#utility.yul\":2361:2700   */\n  pop\n    /* \"#utility.yul\":2266:2700   */\n  swap4\n  swap3\n  pop\n  pop\n  pop\n  jump\t// out\n    /* \"#utility.yul\":2720:3075   */\ntag_27:\n    /* \"#utility.yul\":2787:2792   */\n  0x00\n    /* \"#utility.yul\":2836:2839   */\n  dup3\n    /* \"#utility.yul\":2829:2833   */\n  0x1f\n    /* \"#utility.yul\":2821:2827   */\n  dup4\n    /* \"#utility.yul\":2817:2834   */\n  add\n    /* \"#utility.yul\":2813:2840   */\n  slt\n    /* \"#utility.yul\":2803:2925   */\n  tag_66\n  jumpi\n    /* \"#utility.yul\":2844:2923   */\n  tag_67\n  tag_18\n  jump\t// in\ntag_67:\n    /* \"#utility.yul\":2803:2925   */\ntag_66:\n    /* \"#utility.yul\":2954:2960   */\n  dup2\n    /* \"#utility.yul\":2948:2961   */\n  mload\n    /* \"#utility.yul\":2979:3069   */\n  tag_68\n    /* \"#utility.yul\":3065:3068   */\n  dup5\n    /* \"#utility.yul\":3057:3063   */\n  dup3\n    /* \"#utility.yul\":3050:3054   */\n  0x20\n    /* \"#utility.yul\":3042:3048   */\n  dup7\n    /* \"#utility.yul\":3038:3055   */\n  add\n    /* \"#utility.yul\":2979:3069   */\n  tag_26\n  jump\t// in\ntag_68:\n    /* \"#utility.yul\":2970:3069   */\n  swap2\n  pop\n    /* \"#utility.yul\":2793:3075   */\n  pop\n    /* \"#utility.yul\":2720:3075   */\n  swap3\n  swap2\n  pop\n  pop\n  jump\t// out\n    /* \"#utility.yul\":3081:3761   */\ntag_3:\n    /* \"#utility.yul\":3170:3176   */\n  0x00\n    /* \"#utility.yul\":3178:3184   */\n  0x00\n    /* \"#utility.yul\":3227:3229   */\n  0x40\n    /* \"#utility.yul\":3215:3224   */\n  dup4\n    /* \"#utility.yul\":3206:3213   */\n  dup6\n    /* \"#utility.yul\":3202:3225   */\n  sub\n    /* \"#utility.yul\":3198:3230   */\n  slt\n    /* \"#utility.yul\":3195:3314   */\n  iszero\n  tag_70\n  jumpi\n    /* \"#utility.yul\":3233:3312   */\n  tag_71\n  tag_12\n  jump\t// in\ntag_71:\n    /* \"#utility.yul\":3195:3314   */\ntag_70:\n    /* \"#utility.yul\":3353:3354   */\n  0x00\n    /* \"#utility.yul\":3378:3442   */\n  tag_72\n    /* \"#utility.yul\":3434:3441   */\n  dup6\n    /* \"#utility.yul\":3425:3431   */\n  dup3\n    /* \"#utility.yul\":3414:3423   */\n  dup7\n    /* \"#utility.yul\":3410:3432   */\n  add\n    /* \"#utility.yul\":3378:3442   */\n  tag_17\n  jump\t// in\ntag_72:\n    /* \"#utility.yul\":3368:3442   */\n  swap3\n  pop\n    /* \"#utility.yul\":3324:3452   */\n  pop\n    /* \"#utility.yul\":3512:3514   */\n  0x20\n    /* \"#utility.yul\":3501:3510   */\n  dup4\n    /* \"#utility.yul\":3497:3515   */\n  add\n    /* \"#utility.yul\":3491:3516   */\n  mload\n    /* \"#utility.yul\":3543:3561   */\n  0xffffffffffffffff\n    /* \"#utility.yul\":3535:3541   */\n  dup2\n    /* \"#utility.yul\":3532:3562   */\n  gt\n    /* \"#utility.yul\":3529:3646   */\n  iszero\n  tag_73\n  jumpi\n    /* \"#utility.yul\":3565:3644   */\n  tag_74\n  tag_13\n  jump\t// in\ntag_74:\n    /* \"#utility.yul\":3529:3646   */\ntag_73:\n    /* \"#utility.yul\":3670:3744   */\n  tag_75\n    /* \"#utility.yul\":3736:3743   */\n  dup6\n    /* \"#utility.yul\":3727:3733   */\n  dup3\n    /* \"#utility.yul\":3716:3725   */\n  dup7\n    /* \"#utility.yul\":3712:3734   */\n  add\n    /* \"#utility.yul\":3670:3744   */\n  tag_27\n  jump\t// in\ntag_75:\n    /* \"#utility.yul\":3660:3744   */\n  swap2\n  pop\n    /* \"#utility.yul\":3462:3754   */\n  pop\n    /* \"#utility.yul\":3081:3761   */\n  swap3\n  pop\n  swap3\n  swap1\n  pop\n  jump\t// out\n    /* \"#utility.yul\":3767:3866   */\ntag_28:\n    /* \"#utility.yul\":3819:3825   */\n  0x00\n    /* \"#utility.yul\":3853:3858   */\n  dup2\n    /* \"#utility.yul\":3847:3859   */\n  mload\n    /* \"#utility.yul\":3837:3859   */\n  swap1\n  pop\n    /* \"#utility.yul\":3767:3866   */\n  swap2\n  swap1\n  pop\n  jump\t// out\n    /* \"#utility.yul\":3872:4041   */\ntag_29:\n    /* \"#utility.yul\":3956:3967   */\n  0x00\n    /* \"#utility.yul\":3990:3996   */\n  dup3\n    /* \"#utility.yul\":3985:3988   */\n  dup3\n    /* \"#utility.yul\":3978:3997   */\n  mstore\n    /* \"#utility.yul\":4030:4034   */\n  0x20\n    /* \"#utility.yul\":4025:4028   */\n  dup3\n    /* \"#utility.yul\":4021:4035   */\n  add\n    /* \"#utility.yul\":4006:4035   */\n  swap1\n  pop\n    /* \"#utility.yul\":3872:4041   */\n  swap3\n  swap2\n  pop\n  pop\n  jump\t// out\n    /* \"#utility.yul\":4047:4424   */\ntag_30:\n    /* \"#utility.yul\":4135:4138   */\n  0x00\n    /* \"#utility.yul\":4163:4202   */\n  tag_79\n    /* \"#utility.yul\":4196:4201   */\n  dup3\n    /* \"#utility.yul\":4163:4202   */\n  tag_28\n  jump\t// in\ntag_79:\n    /* \"#utility.yul\":4218:4289   */\n  tag_80\n    /* \"#utility.yul\":4282:4288   */\n  dup2\n    /* \"#utility.yul\":4277:4280   */\n  dup6\n    /* \"#utility.yul\":4218:4289   */\n  tag_29\n  jump\t// in\ntag_80:\n    /* \"#utility.yul\":4211:4289   */\n  swap4\n  pop\n    /* \"#utility.yul\":4298:4363   */\n  tag_81\n    /* \"#utility.yul\":4356:4362   */\n  dup2\n    /* \"#utility.yul\":4351:4354   */\n  dup6\n    /* \"#utility.yul\":4344:4348   */\n  0x20\n    /* \"#utility.yul\":4337:4342   */\n  dup7\n    /* \"#utility.yul\":4333:4349   */\n  add\n    /* \"#utility.yul\":4298:4363   */\n  tag_25\n  jump\t// in\ntag_81:\n    /* \"#utility.yul\":4388:4417   */\n  tag_82\n    /* \"#utility.yul\":4410:4416   */\n  dup2\n    /* \"#utility.yul\":4388:4417   */\n  tag_20\n  jump\t// in\ntag_82:\n    /* \"#utility.yul\":4383:4386   */\n  dup5\n    /* \"#utility.yul\":4379:4418   */\n  add\n    /* \"#utility.yul\":4372:4418   */\n  swap2\n  pop\n    /* \"#utility.yul\":4139:4424   */\n  pop\n    /* \"#utility.yul\":4047:4424   */\n  swap3\n  swap2\n  pop\n  pop\n  jump\t// out\n    /* \"#utility.yul\":4430:4743   */\ntag_8:\n    /* \"#utility.yul\":4543:4547   */\n  0x00\n    /* \"#utility.yul\":4581:4583   */\n  0x20\n    /* \"#utility.yul\":4570:4579   */\n  dup3\n    /* \"#utility.yul\":4566:4584   */\n  add\n    /* \"#utility.yul\":4558:4584   */\n  swap1\n  pop\n    /* \"#utility.yul\":4630:4639   */\n  dup2\n    /* \"#utility.yul\":4624:4628   */\n  dup2\n    /* \"#utility.yul\":4620:4640   */\n  sub\n    /* \"#utility.yul\":4616:4617   */\n  0x00\n    /* \"#utility.yul\":4605:4614   */\n  dup4\n    /* \"#utility.yul\":4601:4618   */\n  add\n    /* \"#utility.yul\":4594:4641   */\n  mstore\n    /* \"#utility.yul\":4658:4736   */\n  tag_84\n    /* \"#utility.yul\":4731:4735   */\n  dup2\n    /* \"#utility.yul\":4722:4728   */\n  dup5\n    /* \"#utility.yul\":4658:4736   */\n  tag_30\n  jump\t// in\ntag_84:\n    /* \"#utility.yul\":4650:4736   */\n  swap1\n  pop\n    /* \"#utility.yul\":4430:4743   */\n  swap3\n  swap2\n  pop\n  pop\n  jump\t// out\n    /* \"src/YeeterStrategy.sol\":421:3028  contract YeeterStrategy is BaseStrategy {... */\ntag_10:\n  mload(0x80)\n  mload(0xa0)\n  codecopy(0x00, dataOffset(sub_0), dataSize(sub_0))\n  0x00\n  assignImmutable(\"0x219fe5d1c18f2cbf388f9e850fcdf2097051cb75bfacbd7a8efd0178bdf8d594\")\n  0x00\n  assignImmutable(\"0x0d36db49541e48e0baaf49e5cf80258467a29ecf7146772ef8777fb68b49f82b\")\n  return(0x00, dataSize(sub_0))\nstop\n\nsub_0: assembly {\n        /* \"src/YeeterStrategy.sol\":421:3028  contract YeeterStrategy is BaseStrategy {... */\n      mstore(0x40, 0x80)\n      jumpi(tag_1, lt(calldatasize, 0x04))\n      shr(0xe0, calldataload(0x00))\n      dup1\n      0xa0cf0aea\n      gt\n      tag_18\n      jumpi\n      dup1\n      0xeb11af93\n      gt\n      tag_19\n      jumpi\n      dup1\n      0xeb11af93\n      eq\n      tag_14\n      jumpi\n      dup1\n      0xedd146cc\n      eq\n      tag_15\n      jumpi\n      dup1\n      0xef2920fc\n      eq\n      tag_16\n      jumpi\n      dup1\n      0xf5b0dfb7\n      eq\n      tag_17\n      jumpi\n      jump(tag_2)\n    tag_19:\n      dup1\n      0xa0cf0aea\n      eq\n      tag_10\n      jumpi\n      dup1\n      0xb2b878d0\n      eq\n      tag_11\n      jumpi\n      dup1\n      0xd9caed12\n      eq\n      tag_12\n      jumpi\n      dup1\n      0xdf868ed3\n      eq\n      tag_13\n      jumpi\n      jump(tag_2)\n    tag_18:\n      dup1\n      0x38fff2d0\n      gt\n      tag_20\n      jumpi\n      dup1\n      0x38fff2d0\n      eq\n      tag_6\n      jumpi\n      dup1\n      0x42fda9c7\n      eq\n      tag_7\n      jumpi\n      dup1\n      0x4ab4ba42\n      eq\n      tag_8\n      jumpi\n      dup1\n      0x4d31d087\n      eq\n      tag_9\n      jumpi\n      jump(tag_2)\n    tag_20:\n      dup1\n      0x0a6f0ee9\n      eq\n      tag_3\n      jumpi\n      dup1\n      0x15cc481e\n      eq\n      tag_4\n      jumpi\n      dup1\n      0x2bbe0cae\n      eq\n      tag_5\n      jumpi\n      jump(tag_2)\n    tag_1:\n      jumpi(tag_2, calldatasize)\n      stop\n    tag_2:\n      revert(0x00, 0x00)\n        /* \"lib/allo-v2/contracts/strategies/BaseStrategy.sol\":10705:11030  function distribute(address[] memory _recipientIds, bytes memory _data, address _sender)... */\n    tag_3:\n      callvalue\n      dup1\n      iszero\n      tag_23\n      jumpi\n      revert(0x00, 0x00)\n    tag_23:\n      pop\n      tag_24\n      0x04\n      dup1\n      calldatasize\n      sub\n      dup2\n      add\n      swap1\n      tag_25\n      swap2\n      swap1\n      tag_26\n      jump\t// in\n    tag_25:\n      tag_27\n      jump\t// in\n    tag_24:\n      stop\n        /* \"lib/allo-v2/contracts/strategies/BaseStrategy.sol\":6785:6871  function getAllo() external view override returns (IAllo) {... */\n    tag_4:\n      callvalue\n      dup1\n      iszero\n      tag_28\n      jumpi\n      revert(0x00, 0x00)\n    tag_28:\n      pop\n      tag_29\n      tag_30\n      jump\t// in\n    tag_29:\n      mload(0x40)\n      tag_31\n      swap2\n      swap1\n      tag_32\n      jump\t// in\n    tag_31:\n      mload(0x40)\n      dup1\n      swap2\n      sub\n      swap1\n      return\n        /* \"lib/allo-v2/contracts/strategies/BaseStrategy.sol\":9429:9773  function registerRecipient(bytes memory _data, address _sender)... */\n    tag_5:\n      tag_33\n      0x04\n      dup1\n      calldatasize\n      sub\n      dup2\n      add\n      swap1\n      tag_34\n      swap2\n      swap1\n      tag_35\n      jump\t// in\n    tag_34:\n      tag_36\n      jump\t// in\n    tag_33:\n      mload(0x40)\n      tag_37\n      swap2\n      swap1\n      tag_38\n      jump\t// in\n    tag_37:\n      mload(0x40)\n      dup1\n      swap2\n      sub\n      swap1\n      return\n        /* \"lib/allo-v2/contracts/strategies/BaseStrategy.sol\":6953:7045  function getPoolId() external view override returns (uint256) {... */\n    tag_6:\n      callvalue\n      dup1\n      iszero\n      tag_39\n      jumpi\n      revert(0x00, 0x00)\n    tag_39:\n      pop\n      tag_40\n      tag_41\n      jump\t// in\n    tag_40:\n      mload(0x40)\n      tag_42\n      swap2\n      swap1\n      tag_43\n      jump\t// in\n    tag_42:\n      mload(0x40)\n      dup1\n      swap2\n      sub\n      swap1\n      return\n        /* \"lib/allo-v2/contracts/strategies/BaseStrategy.sol\":7135:7235  function getStrategyId() external view override returns (bytes32) {... */\n    tag_7:\n      callvalue\n      dup1\n      iszero\n      tag_44\n      jumpi\n      revert(0x00, 0x00)\n    tag_44:\n      pop\n      tag_45\n      tag_46\n      jump\t// in\n    tag_45:\n      mload(0x40)\n      tag_47\n      swap2\n      swap1\n      tag_48\n      jump\t// in\n    tag_47:\n      mload(0x40)\n      dup1\n      swap2\n      sub\n      swap1\n      return\n        /* \"lib/allo-v2/contracts/strategies/BaseStrategy.sol\":7326:7434  function getPoolAmount() external view virtual override returns (uint256) {... */\n    tag_8:\n      callvalue\n      dup1\n      iszero\n      tag_49\n      jumpi\n      revert(0x00, 0x00)\n    tag_49:\n      pop\n      tag_50\n      tag_51\n      jump\t// in\n    tag_50:\n      mload(0x40)\n      tag_52\n      swap2\n      swap1\n      tag_43\n      jump\t// in\n    tag_52:\n      mload(0x40)\n      dup1\n      swap2\n      sub\n      swap1\n      return\n        /* \"lib/allo-v2/contracts/strategies/BaseStrategy.sol\":12395:12540  function isValidAllocator(address _allocator) external view virtual override returns (bool) {... */\n    tag_9:\n      callvalue\n      dup1\n      iszero\n      tag_53\n      jumpi\n      revert(0x00, 0x00)\n    tag_53:\n      pop\n      tag_54\n      0x04\n      dup1\n      calldatasize\n      sub\n      dup2\n      add\n      swap1\n      tag_55\n      swap2\n      swap1\n      tag_56\n      jump\t// in\n    tag_55:\n      tag_57\n      jump\t// in\n    tag_54:\n      mload(0x40)\n      tag_58\n      swap2\n      swap1\n      tag_59\n      jump\t// in\n    tag_58:\n      mload(0x40)\n      dup1\n      swap2\n      sub\n      swap1\n      return\n        /* \"lib/allo-v2/contracts/core/libraries/Native.sol\":4413:4488  address public constant NATIVE = 0xEeeeeEeeeEeEeeEeEeEeeEEEeeeeEeeeeeeeEEeE */\n    tag_10:\n      callvalue\n      dup1\n      iszero\n      tag_60\n      jumpi\n      revert(0x00, 0x00)\n    tag_60:\n      pop\n      tag_61\n      tag_62\n      jump\t// in\n    tag_61:\n      mload(0x40)\n      tag_63\n      swap2\n      swap1\n      tag_38\n      jump\t// in\n    tag_63:\n      mload(0x40)\n      dup1\n      swap2\n      sub\n      swap1\n      return\n        /* \"lib/allo-v2/contracts/strategies/BaseStrategy.sol\":11367:12071  function getPayouts(address[] memory _recipientIds, bytes[] memory _data)... */\n    tag_11:\n      callvalue\n      dup1\n      iszero\n      tag_64\n      jumpi\n      revert(0x00, 0x00)\n    tag_64:\n      pop\n      tag_65\n      0x04\n      dup1\n      calldatasize\n      sub\n      dup2\n      add\n      swap1\n      tag_66\n      swap2\n      swap1\n      tag_67\n      jump\t// in\n    tag_66:\n      tag_68\n      jump\t// in\n    tag_65:\n      mload(0x40)\n      tag_69\n      swap2\n      swap1\n      tag_70\n      jump\t// in\n    tag_69:\n      mload(0x40)\n      dup1\n      swap2\n      sub\n      swap1\n      return\n        /* \"src/YeeterStrategy.sol\":962:1131  function withdraw(address _token, address _recipient, uint256 _amount) external onlyPoolManager(msg.sender) {... */\n    tag_12:\n      callvalue\n      dup1\n      iszero\n      tag_71\n      jumpi\n      revert(0x00, 0x00)\n    tag_71:\n      pop\n      tag_72\n      0x04\n      dup1\n      calldatasize\n      sub\n      dup2\n      add\n      swap1\n      tag_73\n      swap2\n      swap1\n      tag_74\n      jump\t// in\n    tag_73:\n      tag_75\n      jump\t// in\n    tag_72:\n      stop\n        /* \"lib/allo-v2/contracts/strategies/BaseStrategy.sol\":7566:7667  function isPoolActive() external view override returns (bool) {... */\n    tag_13:\n      callvalue\n      dup1\n      iszero\n      tag_76\n      jumpi\n      revert(0x00, 0x00)\n    tag_76:\n      pop\n      tag_77\n      tag_78\n      jump\t// in\n    tag_77:\n      mload(0x40)\n      tag_79\n      swap2\n      swap1\n      tag_59\n      jump\t// in\n    tag_79:\n      mload(0x40)\n      dup1\n      swap2\n      sub\n      swap1\n      return\n        /* \"lib/allo-v2/contracts/strategies/BaseStrategy.sol\":7823:7969  function getRecipientStatus(address _recipientId) external view virtual returns (Status) {... */\n    tag_14:\n      callvalue\n      dup1\n      iszero\n      tag_80\n      jumpi\n      revert(0x00, 0x00)\n    tag_80:\n      pop\n      tag_81\n      0x04\n      dup1\n      calldatasize\n      sub\n      dup2\n      add\n      swap1\n      tag_82\n      swap2\n      swap1\n      tag_56\n      jump\t// in\n    tag_82:\n      tag_83\n      jump\t// in\n    tag_81:\n      mload(0x40)\n      tag_84\n      swap2\n      swap1\n      tag_85\n      jump\t// in\n    tag_84:\n      mload(0x40)\n      dup1\n      swap2\n      sub\n      swap1\n      return\n        /* \"src/YeeterStrategy.sol\":604:774  function initialize(uint256 _poolId, bytes memory _data) external virtual override {... */\n    tag_15:\n      callvalue\n      dup1\n      iszero\n      tag_86\n      jumpi\n      revert(0x00, 0x00)\n    tag_86:\n      pop\n      tag_87\n      0x04\n      dup1\n      calldatasize\n      sub\n      dup2\n      add\n      swap1\n      tag_88\n      swap2\n      swap1\n      tag_89\n      jump\t// in\n    tag_88:\n      tag_90\n      jump\t// in\n    tag_87:\n      stop\n        /* \"lib/allo-v2/contracts/strategies/BaseStrategy.sol\":10092:10312  function allocate(bytes memory _data, address _sender) external payable onlyAllo onlyInitialized {... */\n    tag_16:\n      tag_91\n      0x04\n      dup1\n      calldatasize\n      sub\n      dup2\n      add\n      swap1\n      tag_92\n      swap2\n      swap1\n      tag_35\n      jump\t// in\n    tag_92:\n      tag_93\n      jump\t// in\n    tag_91:\n      stop\n        /* \"lib/allo-v2/contracts/strategies/BaseStrategy.sol\":8816:9013  function increasePoolAmount(uint256 _amount) external override onlyAllo {... */\n    tag_17:\n      callvalue\n      dup1\n      iszero\n      tag_94\n      jumpi\n      revert(0x00, 0x00)\n    tag_94:\n      pop\n      tag_95\n      0x04\n      dup1\n      calldatasize\n      sub\n      dup2\n      add\n      swap1\n      tag_96\n      swap2\n      swap1\n      tag_97\n      jump\t// in\n    tag_96:\n      tag_98\n      jump\t// in\n    tag_95:\n      stop\n        /* \"lib/allo-v2/contracts/strategies/BaseStrategy.sol\":10705:11030  function distribute(address[] memory _recipientIds, bytes memory _data, address _sender)... */\n    tag_27:\n        /* \"lib/allo-v2/contracts/strategies/BaseStrategy.sol\":5660:5676  _checkOnlyAllo() */\n      tag_100\n        /* \"lib/allo-v2/contracts/strategies/BaseStrategy.sol\":5660:5674  _checkOnlyAllo */\n      tag_101\n        /* \"lib/allo-v2/contracts/strategies/BaseStrategy.sol\":5660:5676  _checkOnlyAllo() */\n      jump\t// in\n    tag_100:\n        /* \"lib/allo-v2/contracts/strategies/BaseStrategy.sol\":6532:6555  _checkOnlyInitialized() */\n      tag_103\n        /* \"lib/allo-v2/contracts/strategies/BaseStrategy.sol\":6532:6553  _checkOnlyInitialized */\n      tag_104\n        /* \"lib/allo-v2/contracts/strategies/BaseStrategy.sol\":6532:6555  _checkOnlyInitialized() */\n      jump\t// in\n    tag_103:\n        /* \"lib/allo-v2/contracts/strategies/BaseStrategy.sol\":10866:10914  _beforeDistribute(_recipientIds, _data, _sender) */\n      tag_106\n        /* \"lib/allo-v2/contracts/strategies/BaseStrategy.sol\":10884:10897  _recipientIds */\n      dup4\n        /* \"lib/allo-v2/contracts/strategies/BaseStrategy.sol\":10899:10904  _data */\n      dup4\n        /* \"lib/allo-v2/contracts/strategies/BaseStrategy.sol\":10906:10913  _sender */\n      dup4\n        /* \"lib/allo-v2/contracts/strategies/BaseStrategy.sol\":10866:10883  _beforeDistribute */\n      tag_107\n        /* \"lib/allo-v2/contracts/strategies/BaseStrategy.sol\":10866:10914  _beforeDistribute(_recipientIds, _data, _sender) */\n      jump\t// in\n    tag_106:\n        /* \"lib/allo-v2/contracts/strategies/BaseStrategy.sol\":10924:10966  _distribute(_recipientIds, _data, _sender) */\n      tag_108\n        /* \"lib/allo-v2/contracts/strategies/BaseStrategy.sol\":10936:10949  _recipientIds */\n      dup4\n        /* \"lib/allo-v2/contracts/strategies/BaseStrategy.sol\":10951:10956  _data */\n      dup4\n        /* \"lib/allo-v2/contracts/strategies/BaseStrategy.sol\":10958:10965  _sender */\n      dup4\n        /* \"lib/allo-v2/contracts/strategies/BaseStrategy.sol\":10924:10935  _distribute */\n      tag_109\n        /* \"lib/allo-v2/contracts/strategies/BaseStrategy.sol\":10924:10966  _distribute(_recipientIds, _data, _sender) */\n      jump\t// in\n    tag_108:\n        /* \"lib/allo-v2/contracts/strategies/BaseStrategy.sol\":10976:11023  _afterDistribute(_recipientIds, _data, _sender) */\n      tag_110\n        /* \"lib/allo-v2/contracts/strategies/BaseStrategy.sol\":10993:11006  _recipientIds */\n      dup4\n        /* \"lib/allo-v2/contracts/strategies/BaseStrategy.sol\":11008:11013  _data */\n      dup4\n        /* \"lib/allo-v2/contracts/strategies/BaseStrategy.sol\":11015:11022  _sender */\n      dup4\n        /* \"lib/allo-v2/contracts/strategies/BaseStrategy.sol\":10976:10992  _afterDistribute */\n      tag_111\n        /* \"lib/allo-v2/contracts/strategies/BaseStrategy.sol\":10976:11023  _afterDistribute(_recipientIds, _data, _sender) */\n      jump\t// in\n    tag_110:\n        /* \"lib/allo-v2/contracts/strategies/BaseStrategy.sol\":10705:11030  function distribute(address[] memory _recipientIds, bytes memory _data, address _sender)... */\n      pop\n      pop\n      pop\n      jump\t// out\n        /* \"lib/allo-v2/contracts/strategies/BaseStrategy.sol\":6785:6871  function getAllo() external view override returns (IAllo) {... */\n    tag_30:\n        /* \"lib/allo-v2/contracts/strategies/BaseStrategy.sol\":6836:6841  IAllo */\n      0x00\n        /* \"lib/allo-v2/contracts/strategies/BaseStrategy.sol\":6860:6864  allo */\n      immutable(\"0x0d36db49541e48e0baaf49e5cf80258467a29ecf7146772ef8777fb68b49f82b\")\n        /* \"lib/allo-v2/contracts/strategies/BaseStrategy.sol\":6853:6864  return allo */\n      swap1\n      pop\n        /* \"lib/allo-v2/contracts/strategies/BaseStrategy.sol\":6785:6871  function getAllo() external view override returns (IAllo) {... */\n      swap1\n      jump\t// out\n        /* \"lib/allo-v2/contracts/strategies/BaseStrategy.sol\":9429:9773  function registerRecipient(bytes memory _data, address _sender)... */\n    tag_36:\n        /* \"lib/allo-v2/contracts/strategies/BaseStrategy.sol\":9584:9603  address recipientId */\n      0x00\n        /* \"lib/allo-v2/contracts/strategies/BaseStrategy.sol\":5660:5676  _checkOnlyAllo() */\n      tag_114\n        /* \"lib/allo-v2/contracts/strategies/BaseStrategy.sol\":5660:5674  _checkOnlyAllo */\n      tag_101\n        /* \"lib/allo-v2/contracts/strategies/BaseStrategy.sol\":5660:5676  _checkOnlyAllo() */\n      jump\t// in\n    tag_114:\n        /* \"lib/allo-v2/contracts/strategies/BaseStrategy.sol\":6532:6555  _checkOnlyInitialized() */\n      tag_116\n        /* \"lib/allo-v2/contracts/strategies/BaseStrategy.sol\":6532:6553  _checkOnlyInitialized */\n      tag_104\n        /* \"lib/allo-v2/contracts/strategies/BaseStrategy.sol\":6532:6555  _checkOnlyInitialized() */\n      jump\t// in\n    tag_116:\n        /* \"lib/allo-v2/contracts/strategies/BaseStrategy.sol\":9619:9659  _beforeRegisterRecipient(_data, _sender) */\n      tag_118\n        /* \"lib/allo-v2/contracts/strategies/BaseStrategy.sol\":9644:9649  _data */\n      dup4\n        /* \"lib/allo-v2/contracts/strategies/BaseStrategy.sol\":9651:9658  _sender */\n      dup4\n        /* \"lib/allo-v2/contracts/strategies/BaseStrategy.sol\":9619:9643  _beforeRegisterRecipient */\n      tag_119\n        /* \"lib/allo-v2/contracts/strategies/BaseStrategy.sol\":9619:9659  _beforeRegisterRecipient(_data, _sender) */\n      jump\t// in\n    tag_118:\n        /* \"lib/allo-v2/contracts/strategies/BaseStrategy.sol\":9683:9717  _registerRecipient(_data, _sender) */\n      tag_120\n        /* \"lib/allo-v2/contracts/strategies/BaseStrategy.sol\":9702:9707  _data */\n      dup4\n        /* \"lib/allo-v2/contracts/strategies/BaseStrategy.sol\":9709:9716  _sender */\n      dup4\n        /* \"lib/allo-v2/contracts/strategies/BaseStrategy.sol\":9683:9701  _registerRecipient */\n      tag_121\n        /* \"lib/allo-v2/contracts/strategies/BaseStrategy.sol\":9683:9717  _registerRecipient(_data, _sender) */\n      jump\t// in\n    tag_120:\n        /* \"lib/allo-v2/contracts/strategies/BaseStrategy.sol\":9669:9717  recipientId = _registerRecipient(_data, _sender) */\n      swap1\n      pop\n        /* \"lib/allo-v2/contracts/strategies/BaseStrategy.sol\":9727:9766  _afterRegisterRecipient(_data, _sender) */\n      tag_122\n        /* \"lib/allo-v2/contracts/strategies/BaseStrategy.sol\":9751:9756  _data */\n      dup4\n        /* \"lib/allo-v2/contracts/strategies/BaseStrategy.sol\":9758:9765  _sender */\n      dup4\n        /* \"lib/allo-v2/contracts/strategies/BaseStrategy.sol\":9727:9750  _afterRegisterRecipient */\n      tag_123\n        /* \"lib/allo-v2/contracts/strategies/BaseStrategy.sol\":9727:9766  _afterRegisterRecipient(_data, _sender) */\n      jump\t// in\n    tag_122:\n        /* \"lib/allo-v2/contracts/strategies/BaseStrategy.sol\":9429:9773  function registerRecipient(bytes memory _data, address _sender)... */\n      swap3\n      swap2\n      pop\n      pop\n      jump\t// out\n        /* \"lib/allo-v2/contracts/strategies/BaseStrategy.sol\":6953:7045  function getPoolId() external view override returns (uint256) {... */\n    tag_41:\n        /* \"lib/allo-v2/contracts/strategies/BaseStrategy.sol\":7006:7013  uint256 */\n      0x00\n        /* \"lib/allo-v2/contracts/strategies/BaseStrategy.sol\":7032:7038  poolId */\n      sload(0x01)\n        /* \"lib/allo-v2/contracts/strategies/BaseStrategy.sol\":7025:7038  return poolId */\n      swap1\n      pop\n        /* \"lib/allo-v2/contracts/strategies/BaseStrategy.sol\":6953:7045  function getPoolId() external view override returns (uint256) {... */\n      swap1\n      jump\t// out\n        /* \"lib/allo-v2/contracts/strategies/BaseStrategy.sol\":7135:7235  function getStrategyId() external view override returns (bytes32) {... */\n    tag_46:\n        /* \"lib/allo-v2/contracts/strategies/BaseStrategy.sol\":7192:7199  bytes32 */\n      0x00\n        /* \"lib/allo-v2/contracts/strategies/BaseStrategy.sol\":7218:7228  strategyId */\n      immutable(\"0x219fe5d1c18f2cbf388f9e850fcdf2097051cb75bfacbd7a8efd0178bdf8d594\")\n        /* \"lib/allo-v2/contracts/strategies/BaseStrategy.sol\":7211:7228  return strategyId */\n      swap1\n      pop\n        /* \"lib/allo-v2/contracts/strategies/BaseStrategy.sol\":7135:7235  function getStrategyId() external view override returns (bytes32) {... */\n      swap1\n      jump\t// out\n        /* \"lib/allo-v2/contracts/strategies/BaseStrategy.sol\":7326:7434  function getPoolAmount() external view virtual override returns (uint256) {... */\n    tag_51:\n        /* \"lib/allo-v2/contracts/strategies/BaseStrategy.sol\":7391:7398  uint256 */\n      0x00\n        /* \"lib/allo-v2/contracts/strategies/BaseStrategy.sol\":7417:7427  poolAmount */\n      sload(0x02)\n        /* \"lib/allo-v2/contracts/strategies/BaseStrategy.sol\":7410:7427  return poolAmount */\n      swap1\n      pop\n        /* \"lib/allo-v2/contracts/strategies/BaseStrategy.sol\":7326:7434  function getPoolAmount() external view virtual override returns (uint256) {... */\n      swap1\n      jump\t// out\n        /* \"lib/allo-v2/contracts/strategies/BaseStrategy.sol\":12395:12540  function isValidAllocator(address _allocator) external view virtual override returns (bool) {... */\n    tag_57:\n        /* \"lib/allo-v2/contracts/strategies/BaseStrategy.sol\":12481:12485  bool */\n      0x00\n        /* \"lib/allo-v2/contracts/strategies/BaseStrategy.sol\":12504:12533  _isValidAllocator(_allocator) */\n      tag_128\n        /* \"lib/allo-v2/contracts/strategies/BaseStrategy.sol\":12522:12532  _allocator */\n      dup3\n        /* \"lib/allo-v2/contracts/strategies/BaseStrategy.sol\":12504:12521  _isValidAllocator */\n      tag_129\n        /* \"lib/allo-v2/contracts/strategies/BaseStrategy.sol\":12504:12533  _isValidAllocator(_allocator) */\n      jump\t// in\n    tag_128:\n        /* \"lib/allo-v2/contracts/strategies/BaseStrategy.sol\":12497:12533  return _isValidAllocator(_allocator) */\n      swap1\n      pop\n        /* \"lib/allo-v2/contracts/strategies/BaseStrategy.sol\":12395:12540  function isValidAllocator(address _allocator) external view virtual override returns (bool) {... */\n      swap2\n      swap1\n      pop\n      jump\t// out\n        /* \"lib/allo-v2/contracts/core/libraries/Native.sol\":4413:4488  address public constant NATIVE = 0xEeeeeEeeeEeEeeEeEeEeeEEEeeeeEeeeeeeeEEeE */\n    tag_62:\n        /* \"lib/allo-v2/contracts/core/libraries/Native.sol\":4446:4488  0xEeeeeEeeeEeEeeEeEeEeeEEEeeeeEeeeeeeeEEeE */\n      0xeeeeeeeeeeeeeeeeeeeeeeeeeeeeeeeeeeeeeeee\n        /* \"lib/allo-v2/contracts/core/libraries/Native.sol\":4413:4488  address public constant NATIVE = 0xEeeeeEeeeEeEeeEeEeEeeEEEeeeeEeeeeeeeEEeE */\n      dup2\n      jump\t// out\n        /* \"lib/allo-v2/contracts/strategies/BaseStrategy.sol\":11367:12071  function getPayouts(address[] memory _recipientIds, bytes[] memory _data)... */\n    tag_68:\n        /* \"lib/allo-v2/contracts/strategies/BaseStrategy.sol\":11521:11543  PayoutSummary[] memory */\n      0x60\n        /* \"lib/allo-v2/contracts/strategies/BaseStrategy.sol\":11559:11582  uint256 recipientLength */\n      0x00\n        /* \"lib/allo-v2/contracts/strategies/BaseStrategy.sol\":11585:11598  _recipientIds */\n      dup4\n        /* \"lib/allo-v2/contracts/strategies/BaseStrategy.sol\":11585:11605  _recipientIds.length */\n      mload\n        /* \"lib/allo-v2/contracts/strategies/BaseStrategy.sol\":11559:11605  uint256 recipientLength = _recipientIds.length */\n      swap1\n      pop\n        /* \"lib/allo-v2/contracts/strategies/BaseStrategy.sol\":11741:11746  _data */\n      dup3\n        /* \"lib/allo-v2/contracts/strategies/BaseStrategy.sol\":11741:11753  _data.length */\n      mload\n        /* \"lib/allo-v2/contracts/strategies/BaseStrategy.sol\":11722:11737  recipientLength */\n      dup2\n        /* \"lib/allo-v2/contracts/strategies/BaseStrategy.sol\":11722:11753  recipientLength != _data.length */\n      eq\n        /* \"lib/allo-v2/contracts/strategies/BaseStrategy.sol\":11718:11778  if (recipientLength != _data.length) revert ARRAY_MISMATCH() */\n      tag_131\n      jumpi\n        /* \"lib/allo-v2/contracts/strategies/BaseStrategy.sol\":11762:11778  ARRAY_MISMATCH() */\n      mload(0x40)\n      0x7b49805600000000000000000000000000000000000000000000000000000000\n      dup2\n      mstore\n      0x04\n      add\n      mload(0x40)\n      dup1\n      swap2\n      sub\n      swap1\n      revert\n        /* \"lib/allo-v2/contracts/strategies/BaseStrategy.sol\":11718:11778  if (recipientLength != _data.length) revert ARRAY_MISMATCH() */\n    tag_131:\n        /* \"lib/allo-v2/contracts/strategies/BaseStrategy.sol\":11789:11819  PayoutSummary[] memory payouts */\n      0x00\n        /* \"lib/allo-v2/contracts/strategies/BaseStrategy.sol\":11842:11857  recipientLength */\n      dup2\n        /* \"lib/allo-v2/contracts/strategies/BaseStrategy.sol\":11822:11858  new PayoutSummary[](recipientLength) */\n      0xffffffffffffffff\n      dup2\n      gt\n      iszero\n      tag_132\n      jumpi\n      tag_133\n      tag_134\n      jump\t// in\n    tag_133:\n    tag_132:\n      mload(0x40)\n      swap1\n      dup1\n      dup3\n      mstore\n      dup1\n      0x20\n      mul\n      0x20\n      add\n      dup3\n      add\n      0x40\n      mstore\n      dup1\n      iszero\n      tag_135\n      jumpi\n      dup2\n      0x20\n      add\n    tag_136:\n      tag_137\n      tag_138\n      jump\t// in\n    tag_137:\n      dup2\n      mstore\n      0x20\n      add\n      swap1\n      0x01\n      swap1\n      sub\n      swap1\n      dup2\n      tag_136\n      jumpi\n      swap1\n      pop\n    tag_135:\n      pop\n        /* \"lib/allo-v2/contracts/strategies/BaseStrategy.sol\":11789:11858  PayoutSummary[] memory payouts = new PayoutSummary[](recipientLength) */\n      swap1\n      pop\n        /* \"lib/allo-v2/contracts/strategies/BaseStrategy.sol\":11873:11882  uint256 i */\n      0x00\n        /* \"lib/allo-v2/contracts/strategies/BaseStrategy.sol\":11868:12041  for (uint256 i; i < recipientLength;) {... */\n    tag_139:\n        /* \"lib/allo-v2/contracts/strategies/BaseStrategy.sol\":11888:11903  recipientLength */\n      dup3\n        /* \"lib/allo-v2/contracts/strategies/BaseStrategy.sol\":11884:11885  i */\n      dup2\n        /* \"lib/allo-v2/contracts/strategies/BaseStrategy.sol\":11884:11903  i < recipientLength */\n      lt\n        /* \"lib/allo-v2/contracts/strategies/BaseStrategy.sol\":11868:12041  for (uint256 i; i < recipientLength;) {... */\n      iszero\n      tag_140\n      jumpi\n        /* \"lib/allo-v2/contracts/strategies/BaseStrategy.sol\":11933:11971  _getPayout(_recipientIds[i], _data[i]) */\n      tag_142\n        /* \"lib/allo-v2/contracts/strategies/BaseStrategy.sol\":11944:11957  _recipientIds */\n      dup7\n        /* \"lib/allo-v2/contracts/strategies/BaseStrategy.sol\":11958:11959  i */\n      dup3\n        /* \"lib/allo-v2/contracts/strategies/BaseStrategy.sol\":11944:11960  _recipientIds[i] */\n      dup2\n      mload\n      dup2\n      lt\n      tag_143\n      jumpi\n      tag_144\n      tag_145\n      jump\t// in\n    tag_144:\n    tag_143:\n      0x20\n      mul\n      0x20\n      add\n      add\n      mload\n        /* \"lib/allo-v2/contracts/strategies/BaseStrategy.sol\":11962:11967  _data */\n      dup7\n        /* \"lib/allo-v2/contracts/strategies/BaseStrategy.sol\":11968:11969  i */\n      dup4\n        /* \"lib/allo-v2/contracts/strategies/BaseStrategy.sol\":11962:11970  _data[i] */\n      dup2\n      mload\n      dup2\n      lt\n      tag_146\n      jumpi\n      tag_147\n      tag_145\n      jump\t// in\n    tag_147:\n    tag_146:\n      0x20\n      mul\n      0x20\n      add\n      add\n      mload\n        /* \"lib/allo-v2/contracts/strategies/BaseStrategy.sol\":11933:11943  _getPayout */\n      tag_148\n        /* \"lib/allo-v2/contracts/strategies/BaseStrategy.sol\":11933:11971  _getPayout(_recipientIds[i], _data[i]) */\n      jump\t// in\n    tag_142:\n        /* \"lib/allo-v2/contracts/strategies/BaseStrategy.sol\":11920:11927  payouts */\n      dup3\n        /* \"lib/allo-v2/contracts/strategies/BaseStrategy.sol\":11928:11929  i */\n      dup3\n        /* \"lib/allo-v2/contracts/strategies/BaseStrategy.sol\":11920:11930  payouts[i] */\n      dup2\n      mload\n      dup2\n      lt\n      tag_149\n      jumpi\n      tag_150\n      tag_145\n      jump\t// in\n    tag_150:\n    tag_149:\n      0x20\n      mul\n      0x20\n      add\n      add\n        /* \"lib/allo-v2/contracts/strategies/BaseStrategy.sol\":11920:11971  payouts[i] = _getPayout(_recipientIds[i], _data[i]) */\n      dup2\n      swap1\n      mstore\n      pop\n        /* \"lib/allo-v2/contracts/strategies/BaseStrategy.sol\":12013:12016  i++ */\n      dup1\n      dup1\n      0x01\n      add\n      swap2\n      pop\n      pop\n        /* \"lib/allo-v2/contracts/strategies/BaseStrategy.sol\":11868:12041  for (uint256 i; i < recipientLength;) {... */\n      jump(tag_139)\n    tag_140:\n      pop\n        /* \"lib/allo-v2/contracts/strategies/BaseStrategy.sol\":12057:12064  payouts */\n      dup1\n        /* \"lib/allo-v2/contracts/strategies/BaseStrategy.sol\":12050:12064  return payouts */\n      swap3\n      pop\n      pop\n      pop\n        /* \"lib/allo-v2/contracts/strategies/BaseStrategy.sol\":11367:12071  function getPayouts(address[] memory _recipientIds, bytes[] memory _data)... */\n      swap3\n      swap2\n      pop\n      pop\n      jump\t// out\n        /* \"src/YeeterStrategy.sol\":962:1131  function withdraw(address _token, address _recipient, uint256 _amount) external onlyPoolManager(msg.sender) {... */\n    tag_75:\n        /* \"src/YeeterStrategy.sol\":1058:1068  msg.sender */\n      caller\n        /* \"lib/allo-v2/contracts/strategies/BaseStrategy.sol\":5954:5984  _checkOnlyPoolManager(_sender) */\n      tag_152\n        /* \"lib/allo-v2/contracts/strategies/BaseStrategy.sol\":5976:5983  _sender */\n      dup2\n        /* \"lib/allo-v2/contracts/strategies/BaseStrategy.sol\":5954:5975  _checkOnlyPoolManager */\n      tag_153\n        /* \"lib/allo-v2/contracts/strategies/BaseStrategy.sol\":5954:5984  _checkOnlyPoolManager(_sender) */\n      jump\t// in\n    tag_152:\n        /* \"src/YeeterStrategy.sol\":1080:1124  _transferAmount(_token, _recipient, _amount) */\n      tag_155\n        /* \"src/YeeterStrategy.sol\":1096:1102  _token */\n      dup5\n        /* \"src/YeeterStrategy.sol\":1104:1114  _recipient */\n      dup5\n        /* \"src/YeeterStrategy.sol\":1116:1123  _amount */\n      dup5\n        /* \"src/YeeterStrategy.sol\":1080:1095  _transferAmount */\n      tag_156\n        /* \"src/YeeterStrategy.sol\":1080:1124  _transferAmount(_token, _recipient, _amount) */\n      jump\t// in\n    tag_155:\n        /* \"src/YeeterStrategy.sol\":962:1131  function withdraw(address _token, address _recipient, uint256 _amount) external onlyPoolManager(msg.sender) {... */\n      pop\n      pop\n      pop\n      pop\n      jump\t// out\n        /* \"lib/allo-v2/contracts/strategies/BaseStrategy.sol\":7566:7667  function isPoolActive() external view override returns (bool) {... */\n    tag_78:\n        /* \"lib/allo-v2/contracts/strategies/BaseStrategy.sol\":7622:7626  bool */\n      0x00\n        /* \"lib/allo-v2/contracts/strategies/BaseStrategy.sol\":7645:7660  _isPoolActive() */\n      tag_158\n        /* \"lib/allo-v2/contracts/strategies/BaseStrategy.sol\":7645:7658  _isPoolActive */\n      tag_159\n        /* \"lib/allo-v2/contracts/strategies/BaseStrategy.sol\":7645:7660  _isPoolActive() */\n      jump\t// in\n    tag_158:\n        /* \"lib/allo-v2/contracts/strategies/BaseStrategy.sol\":7638:7660  return _isPoolActive() */\n      swap1\n      pop\n        /* \"lib/allo-v2/contracts/strategies/BaseStrategy.sol\":7566:7667  function isPoolActive() external view override returns (bool) {... */\n      swap1\n      jump\t// out\n        /* \"lib/allo-v2/contracts/strategies/BaseStrategy.sol\":7823:7969  function getRecipientStatus(address _recipientId) external view virtual returns (Status) {... */\n    tag_83:\n        /* \"lib/allo-v2/contracts/strategies/BaseStrategy.sol\":7904:7910  Status */\n      0x00\n        /* \"lib/allo-v2/contracts/strategies/BaseStrategy.sol\":7929:7962  _getRecipientStatus(_recipientId) */\n      tag_161\n        /* \"lib/allo-v2/contracts/strategies/BaseStrategy.sol\":7949:7961  _recipientId */\n      dup3\n        /* \"lib/allo-v2/contracts/strategies/BaseStrategy.sol\":7929:7948  _getRecipientStatus */\n      tag_162\n        /* \"lib/allo-v2/contracts/strategies/BaseStrategy.sol\":7929:7962  _getRecipientStatus(_recipientId) */\n      jump\t// in\n    tag_161:\n        /* \"lib/allo-v2/contracts/strategies/BaseStrategy.sol\":7922:7962  return _getRecipientStatus(_recipientId) */\n      swap1\n      pop\n        /* \"lib/allo-v2/contracts/strategies/BaseStrategy.sol\":7823:7969  function getRecipientStatus(address _recipientId) external view virtual returns (Status) {... */\n      swap2\n      swap1\n      pop\n      jump\t// out\n        /* \"src/YeeterStrategy.sol\":604:774  function initialize(uint256 _poolId, bytes memory _data) external virtual override {... */\n    tag_90:\n        /* \"src/YeeterStrategy.sol\":697:725  __BaseStrategy_init(_poolId) */\n      tag_164\n        /* \"src/YeeterStrategy.sol\":717:724  _poolId */\n      dup3\n        /* \"src/YeeterStrategy.sol\":697:716  __BaseStrategy_init */\n      tag_165\n        /* \"src/YeeterStrategy.sol\":697:725  __BaseStrategy_init(_poolId) */\n      jump\t// in\n    tag_164:\n        /* \"src/YeeterStrategy.sol\":740:767  Initialized(_poolId, _data) */\n      0x91efa3d50feccde0d0d202f8ae5c41ca0b2be614cebcb2bd2f4b019396e6568a\n        /* \"src/YeeterStrategy.sol\":752:759  _poolId */\n      dup3\n        /* \"src/YeeterStrategy.sol\":761:766  _data */\n      dup3\n        /* \"src/YeeterStrategy.sol\":740:767  Initialized(_poolId, _data) */\n      mload(0x40)\n      tag_166\n      swap3\n      swap2\n      swap1\n      tag_167\n      jump\t// in\n    tag_166:\n      mload(0x40)\n      dup1\n      swap2\n      sub\n      swap1\n      log1\n        /* \"src/YeeterStrategy.sol\":604:774  function initialize(uint256 _poolId, bytes memory _data) external virtual override {... */\n      pop\n      pop\n      jump\t// out\n        /* \"lib/allo-v2/contracts/strategies/BaseStrategy.sol\":10092:10312  function allocate(bytes memory _data, address _sender) external payable onlyAllo onlyInitialized {... */\n    tag_93:\n        /* \"lib/allo-v2/contracts/strategies/BaseStrategy.sol\":5660:5676  _checkOnlyAllo() */\n      tag_169\n        /* \"lib/allo-v2/contracts/strategies/BaseStrategy.sol\":5660:5674  _checkOnlyAllo */\n      tag_101\n        /* \"lib/allo-v2/contracts/strategies/BaseStrategy.sol\":5660:5676  _checkOnlyAllo() */\n      jump\t// in\n    tag_169:\n        /* \"lib/allo-v2/contracts/strategies/BaseStrategy.sol\":6532:6555  _checkOnlyInitialized() */\n      tag_171\n        /* \"lib/allo-v2/contracts/strategies/BaseStrategy.sol\":6532:6553  _checkOnlyInitialized */\n      tag_104\n        /* \"lib/allo-v2/contracts/strategies/BaseStrategy.sol\":6532:6555  _checkOnlyInitialized() */\n      jump\t// in\n    tag_171:\n        /* \"lib/allo-v2/contracts/strategies/BaseStrategy.sol\":10199:10230  _beforeAllocate(_data, _sender) */\n      tag_173\n        /* \"lib/allo-v2/contracts/strategies/BaseStrategy.sol\":10215:10220  _data */\n      dup3\n        /* \"lib/allo-v2/contracts/strategies/BaseStrategy.sol\":10222:10229  _sender */\n      dup3\n        /* \"lib/allo-v2/contracts/strategies/BaseStrategy.sol\":10199:10214  _beforeAllocate */\n      tag_174\n        /* \"lib/allo-v2/contracts/strategies/BaseStrategy.sol\":10199:10230  _beforeAllocate(_data, _sender) */\n      jump\t// in\n    tag_173:\n        /* \"lib/allo-v2/contracts/strategies/BaseStrategy.sol\":10240:10265  _allocate(_data, _sender) */\n      tag_175\n        /* \"lib/allo-v2/contracts/strategies/BaseStrategy.sol\":10250:10255  _data */\n      dup3\n        /* \"lib/allo-v2/contracts/strategies/BaseStrategy.sol\":10257:10264  _sender */\n      dup3\n        /* \"lib/allo-v2/contracts/strategies/BaseStrategy.sol\":10240:10249  _allocate */\n      tag_176\n        /* \"lib/allo-v2/contracts/strategies/BaseStrategy.sol\":10240:10265  _allocate(_data, _sender) */\n      jump\t// in\n    tag_175:\n        /* \"lib/allo-v2/contracts/strategies/BaseStrategy.sol\":10275:10305  _afterAllocate(_data, _sender) */\n      tag_177\n        /* \"lib/allo-v2/contracts/strategies/BaseStrategy.sol\":10290:10295  _data */\n      dup3\n        /* \"lib/allo-v2/contracts/strategies/BaseStrategy.sol\":10297:10304  _sender */\n      dup3\n        /* \"lib/allo-v2/contracts/strategies/BaseStrategy.sol\":10275:10289  _afterAllocate */\n      tag_178\n        /* \"lib/allo-v2/contracts/strategies/BaseStrategy.sol\":10275:10305  _afterAllocate(_data, _sender) */\n      jump\t// in\n    tag_177:\n        /* \"lib/allo-v2/contracts/strategies/BaseStrategy.sol\":10092:10312  function allocate(bytes memory _data, address _sender) external payable onlyAllo onlyInitialized {... */\n      pop\n      pop\n      jump\t// out\n        /* \"lib/allo-v2/contracts/strategies/BaseStrategy.sol\":8816:9013  function increasePoolAmount(uint256 _amount) external override onlyAllo {... */\n    tag_98:\n        /* \"lib/allo-v2/contracts/strategies/BaseStrategy.sol\":5660:5676  _checkOnlyAllo() */\n      tag_180\n        /* \"lib/allo-v2/contracts/strategies/BaseStrategy.sol\":5660:5674  _checkOnlyAllo */\n      tag_101\n        /* \"lib/allo-v2/contracts/strategies/BaseStrategy.sol\":5660:5676  _checkOnlyAllo() */\n      jump\t// in\n    tag_180:\n        /* \"lib/allo-v2/contracts/strategies/BaseStrategy.sol\":8898:8932  _beforeIncreasePoolAmount(_amount) */\n      tag_182\n        /* \"lib/allo-v2/contracts/strategies/BaseStrategy.sol\":8924:8931  _amount */\n      dup2\n        /* \"lib/allo-v2/contracts/strategies/BaseStrategy.sol\":8898:8923  _beforeIncreasePoolAmount */\n      tag_183\n        /* \"lib/allo-v2/contracts/strategies/BaseStrategy.sol\":8898:8932  _beforeIncreasePoolAmount(_amount) */\n      jump\t// in\n    tag_182:\n        /* \"lib/allo-v2/contracts/strategies/BaseStrategy.sol\":8956:8963  _amount */\n      dup1\n        /* \"lib/allo-v2/contracts/strategies/BaseStrategy.sol\":8942:8952  poolAmount */\n      0x02\n      0x00\n        /* \"lib/allo-v2/contracts/strategies/BaseStrategy.sol\":8942:8963  poolAmount += _amount */\n      dup3\n      dup3\n      sload\n      tag_184\n      swap2\n      swap1\n      tag_185\n      jump\t// in\n    tag_184:\n      swap3\n      pop\n      pop\n      dup2\n      swap1\n      sstore\n      pop\n        /* \"lib/allo-v2/contracts/strategies/BaseStrategy.sol\":8973:9006  _afterIncreasePoolAmount(_amount) */\n      tag_186\n        /* \"lib/allo-v2/contracts/strategies/BaseStrategy.sol\":8998:9005  _amount */\n      dup2\n        /* \"lib/allo-v2/contracts/strategies/BaseStrategy.sol\":8973:8997  _afterIncreasePoolAmount */\n      tag_187\n        /* \"lib/allo-v2/contracts/strategies/BaseStrategy.sol\":8973:9006  _afterIncreasePoolAmount(_amount) */\n      jump\t// in\n    tag_186:\n        /* \"lib/allo-v2/contracts/strategies/BaseStrategy.sol\":8816:9013  function increasePoolAmount(uint256 _amount) external override onlyAllo {... */\n      pop\n      jump\t// out\n        /* \"lib/allo-v2/contracts/strategies/BaseStrategy.sol\":12814:12925  function _checkOnlyAllo() internal view {... */\n    tag_101:\n        /* \"lib/allo-v2/contracts/strategies/BaseStrategy.sol\":12890:12894  allo */\n      immutable(\"0x0d36db49541e48e0baaf49e5cf80258467a29ecf7146772ef8777fb68b49f82b\")\n        /* \"lib/allo-v2/contracts/strategies/BaseStrategy.sol\":12868:12895  msg.sender != address(allo) */\n      0xffffffffffffffffffffffffffffffffffffffff\n      and\n        /* \"lib/allo-v2/contracts/strategies/BaseStrategy.sol\":12868:12878  msg.sender */\n      caller\n        /* \"lib/allo-v2/contracts/strategies/BaseStrategy.sol\":12868:12895  msg.sender != address(allo) */\n      0xffffffffffffffffffffffffffffffffffffffff\n      and\n      eq\n        /* \"lib/allo-v2/contracts/strategies/BaseStrategy.sol\":12864:12918  if (msg.sender != address(allo)) revert UNAUTHORIZED() */\n      tag_189\n      jumpi\n        /* \"lib/allo-v2/contracts/strategies/BaseStrategy.sol\":12904:12918  UNAUTHORIZED() */\n      mload(0x40)\n      0x075fd2b100000000000000000000000000000000000000000000000000000000\n      dup2\n      mstore\n      0x04\n      add\n      mload(0x40)\n      dup1\n      swap2\n      sub\n      swap1\n      revert\n        /* \"lib/allo-v2/contracts/strategies/BaseStrategy.sol\":12864:12918  if (msg.sender != address(allo)) revert UNAUTHORIZED() */\n    tag_189:\n        /* \"lib/allo-v2/contracts/strategies/BaseStrategy.sol\":12814:12925  function _checkOnlyAllo() internal view {... */\n      jump\t// out\n        /* \"lib/allo-v2/contracts/strategies/BaseStrategy.sol\":13771:13876  function _checkOnlyInitialized() internal view {... */\n    tag_104:\n        /* \"lib/allo-v2/contracts/strategies/BaseStrategy.sol\":13842:13843  0 */\n      0x00\n        /* \"lib/allo-v2/contracts/strategies/BaseStrategy.sol\":13832:13838  poolId */\n      sload(0x01)\n        /* \"lib/allo-v2/contracts/strategies/BaseStrategy.sol\":13832:13843  poolId == 0 */\n      sub\n        /* \"lib/allo-v2/contracts/strategies/BaseStrategy.sol\":13828:13869  if (poolId == 0) revert NOT_INITIALIZED() */\n      tag_191\n      jumpi\n        /* \"lib/allo-v2/contracts/strategies/BaseStrategy.sol\":13852:13869  NOT_INITIALIZED() */\n      mload(0x40)\n      0x3da3f98c00000000000000000000000000000000000000000000000000000000\n      dup2\n      mstore\n      0x04\n      add\n      mload(0x40)\n      dup1\n      swap2\n      sub\n      swap1\n      revert\n        /* \"lib/allo-v2/contracts/strategies/BaseStrategy.sol\":13828:13869  if (poolId == 0) revert NOT_INITIALIZED() */\n    tag_191:\n        /* \"lib/allo-v2/contracts/strategies/BaseStrategy.sol\":13771:13876  function _checkOnlyInitialized() internal view {... */\n      jump\t// out\n        /* \"lib/allo-v2/contracts/strategies/BaseStrategy.sol\":18949:19064  function _beforeDistribute(address[] memory _recipientIds, bytes memory _data, address _sender) internal virtual {} */\n    tag_107:\n      pop\n      pop\n      pop\n      jump\t// out\n        /* \"src/YeeterStrategy.sol\":2396:2514  function _distribute(address[] memory, bytes memory, address) internal virtual override {... */\n    tag_109:\n        /* \"src/YeeterStrategy.sol\":2501:2507  NOOP() */\n      mload(0x40)\n      0x1569426800000000000000000000000000000000000000000000000000000000\n      dup2\n      mstore\n      0x04\n      add\n      mload(0x40)\n      dup1\n      swap2\n      sub\n      swap1\n      revert\n        /* \"lib/allo-v2/contracts/strategies/BaseStrategy.sol\":19320:19434  function _afterDistribute(address[] memory _recipientIds, bytes memory _data, address _sender) internal virtual {} */\n    tag_111:\n      pop\n      pop\n      pop\n      jump\t// out\n        /* \"lib/allo-v2/contracts/strategies/BaseStrategy.sol\":17810:17900  function _beforeRegisterRecipient(bytes memory _data, address _sender) internal virtual {} */\n    tag_119:\n      pop\n      pop\n      jump\t// out\n        /* \"src/YeeterStrategy.sol\":2760:2885  function _registerRecipient(bytes memory, address) internal virtual override returns (address) {... */\n    tag_121:\n        /* \"src/YeeterStrategy.sol\":2846:2853  address */\n      0x00\n        /* \"src/YeeterStrategy.sol\":2872:2878  NOOP() */\n      mload(0x40)\n      0x1569426800000000000000000000000000000000000000000000000000000000\n      dup2\n      mstore\n      0x04\n      add\n      mload(0x40)\n      dup1\n      swap2\n      sub\n      swap1\n      revert\n        /* \"lib/allo-v2/contracts/strategies/BaseStrategy.sol\":18077:18166  function _afterRegisterRecipient(bytes memory _data, address _sender) internal virtual {} */\n    tag_123:\n      pop\n      pop\n      jump\t// out\n        /* \"src/YeeterStrategy.sol\":2642:2754  function _isValidAllocator(address) internal view virtual override returns (bool) {... */\n    tag_129:\n        /* \"src/YeeterStrategy.sol\":2718:2722  bool */\n      0x00\n        /* \"src/YeeterStrategy.sol\":2741:2747  NOOP() */\n      mload(0x40)\n      0x1569426800000000000000000000000000000000000000000000000000000000\n      dup2\n      mstore\n      0x04\n      add\n      mload(0x40)\n      dup1\n      swap2\n      sub\n      swap1\n      revert\n        /* \"src/YeeterStrategy.sol\":2891:3026  function _getPayout(address, bytes memory) internal view virtual override returns (PayoutSummary memory) {... */\n    tag_148:\n        /* \"src/YeeterStrategy.sol\":2974:2994  PayoutSummary memory */\n      tag_199\n      tag_138\n      jump\t// in\n    tag_199:\n        /* \"src/YeeterStrategy.sol\":3013:3019  NOOP() */\n      mload(0x40)\n      0x1569426800000000000000000000000000000000000000000000000000000000\n      dup2\n      mstore\n      0x04\n      add\n      mload(0x40)\n      dup1\n      swap2\n      sub\n      swap1\n      revert\n        /* \"lib/allo-v2/contracts/strategies/BaseStrategy.sol\":13122:13264  function _checkOnlyPoolManager(address _sender) internal view {... */\n    tag_153:\n        /* \"lib/allo-v2/contracts/strategies/BaseStrategy.sol\":13199:13203  allo */\n      immutable(\"0x0d36db49541e48e0baaf49e5cf80258467a29ecf7146772ef8777fb68b49f82b\")\n        /* \"lib/allo-v2/contracts/strategies/BaseStrategy.sol\":13199:13217  allo.isPoolManager */\n      0xffffffffffffffffffffffffffffffffffffffff\n      and\n      0x29e40d4b\n        /* \"lib/allo-v2/contracts/strategies/BaseStrategy.sol\":13218:13224  poolId */\n      sload(0x01)\n        /* \"lib/allo-v2/contracts/strategies/BaseStrategy.sol\":13226:13233  _sender */\n      dup4\n        /* \"lib/allo-v2/contracts/strategies/BaseStrategy.sol\":13199:13234  allo.isPoolManager(poolId, _sender) */\n      mload(0x40)\n      dup4\n      0xffffffff\n      and\n      0xe0\n      shl\n      dup2\n      mstore\n      0x04\n      add\n      tag_202\n      swap3\n      swap2\n      swap1\n      tag_203\n      jump\t// in\n    tag_202:\n      0x20\n      mload(0x40)\n      dup1\n      dup4\n      sub\n      dup2\n      dup7\n      gas\n      staticcall\n      iszero\n      dup1\n      iszero\n      tag_205\n      jumpi\n      returndatacopy(0x00, 0x00, returndatasize)\n      revert(0x00, returndatasize)\n    tag_205:\n      pop\n      pop\n      pop\n      pop\n      mload(0x40)\n      returndatasize\n      not(0x1f)\n      0x1f\n      dup3\n      add\n      and\n      dup3\n      add\n      dup1\n      0x40\n      mstore\n      pop\n      dup2\n      add\n      swap1\n      tag_206\n      swap2\n      swap1\n      tag_207\n      jump\t// in\n    tag_206:\n        /* \"lib/allo-v2/contracts/strategies/BaseStrategy.sol\":13194:13257  if (!allo.isPoolManager(poolId, _sender)) revert UNAUTHORIZED() */\n      tag_208\n      jumpi\n        /* \"lib/allo-v2/contracts/strategies/BaseStrategy.sol\":13243:13257  UNAUTHORIZED() */\n      mload(0x40)\n      0x075fd2b100000000000000000000000000000000000000000000000000000000\n      dup2\n      mstore\n      0x04\n      add\n      mload(0x40)\n      dup1\n      swap2\n      sub\n      swap1\n      revert\n        /* \"lib/allo-v2/contracts/strategies/BaseStrategy.sol\":13194:13257  if (!allo.isPoolManager(poolId, _sender)) revert UNAUTHORIZED() */\n    tag_208:\n        /* \"lib/allo-v2/contracts/strategies/BaseStrategy.sol\":13122:13264  function _checkOnlyPoolManager(address _sender) internal view {... */\n      pop\n      jump\t// out\n        /* \"lib/allo-v2/contracts/core/libraries/Transfer.sol\":6762:7039  function _transferAmount(address _token, address _to, uint256 _amount) internal virtual {... */\n    tag_156:\n        /* \"lib/allo-v2/contracts/core/libraries/Native.sol\":4446:4488  0xEeeeeEeeeEeEeeEeEeEeeEEEeeeeEeeeeeeeEEeE */\n      0xeeeeeeeeeeeeeeeeeeeeeeeeeeeeeeeeeeeeeeee\n        /* \"lib/allo-v2/contracts/core/libraries/Transfer.sol\":6864:6880  _token == NATIVE */\n      0xffffffffffffffffffffffffffffffffffffffff\n      and\n        /* \"lib/allo-v2/contracts/core/libraries/Transfer.sol\":6864:6870  _token */\n      dup4\n        /* \"lib/allo-v2/contracts/core/libraries/Transfer.sol\":6864:6880  _token == NATIVE */\n      0xffffffffffffffffffffffffffffffffffffffff\n      and\n      sub\n        /* \"lib/allo-v2/contracts/core/libraries/Transfer.sol\":6860:7033  if (_token == NATIVE) {... */\n      tag_210\n      jumpi\n        /* \"lib/allo-v2/contracts/core/libraries/Transfer.sol\":6896:6941  SafeTransferLib.safeTransferETH(_to, _amount) */\n      tag_211\n        /* \"lib/allo-v2/contracts/core/libraries/Transfer.sol\":6928:6931  _to */\n      dup3\n        /* \"lib/allo-v2/contracts/core/libraries/Transfer.sol\":6933:6940  _amount */\n      dup3\n        /* \"lib/allo-v2/contracts/core/libraries/Transfer.sol\":6896:6927  SafeTransferLib.safeTransferETH */\n      tag_212\n        /* \"lib/allo-v2/contracts/core/libraries/Transfer.sol\":6896:6941  SafeTransferLib.safeTransferETH(_to, _amount) */\n      jump\t// in\n    tag_211:\n        /* \"lib/allo-v2/contracts/core/libraries/Transfer.sol\":6860:7033  if (_token == NATIVE) {... */\n      jump(tag_213)\n    tag_210:\n        /* \"lib/allo-v2/contracts/core/libraries/Transfer.sol\":6972:7022  SafeTransferLib.safeTransfer(_token, _to, _amount) */\n      tag_214\n        /* \"lib/allo-v2/contracts/core/libraries/Transfer.sol\":7001:7007  _token */\n      dup4\n        /* \"lib/allo-v2/contracts/core/libraries/Transfer.sol\":7009:7012  _to */\n      dup4\n        /* \"lib/allo-v2/contracts/core/libraries/Transfer.sol\":7014:7021  _amount */\n      dup4\n        /* \"lib/allo-v2/contracts/core/libraries/Transfer.sol\":6972:7000  SafeTransferLib.safeTransfer */\n      tag_215\n        /* \"lib/allo-v2/contracts/core/libraries/Transfer.sol\":6972:7022  SafeTransferLib.safeTransfer(_token, _to, _amount) */\n      jump\t// in\n    tag_214:\n        /* \"lib/allo-v2/contracts/core/libraries/Transfer.sol\":6860:7033  if (_token == NATIVE) {... */\n    tag_213:\n        /* \"lib/allo-v2/contracts/core/libraries/Transfer.sol\":6762:7039  function _transferAmount(address _token, address _to, uint256 _amount) internal virtual {... */\n      pop\n      pop\n      pop\n      jump\t// out\n        /* \"lib/allo-v2/contracts/strategies/BaseStrategy.sol\":14400:14496  function _isPoolActive() internal view virtual returns (bool) {... */\n    tag_159:\n        /* \"lib/allo-v2/contracts/strategies/BaseStrategy.sol\":14456:14460  bool */\n      0x00\n        /* \"lib/allo-v2/contracts/strategies/BaseStrategy.sol\":14479:14489  poolActive */\n      0x00\n      0x00\n      swap1\n      sload\n      swap1\n      0x0100\n      exp\n      swap1\n      div\n      0xff\n      and\n        /* \"lib/allo-v2/contracts/strategies/BaseStrategy.sol\":14472:14489  return poolActive */\n      swap1\n      pop\n        /* \"lib/allo-v2/contracts/strategies/BaseStrategy.sol\":14400:14496  function _isPoolActive() internal view virtual returns (bool) {... */\n      swap1\n      jump\t// out\n        /* \"src/YeeterStrategy.sol\":2520:2636  function _getRecipientStatus(address) internal view virtual override returns (Status) {... */\n    tag_162:\n        /* \"src/YeeterStrategy.sol\":2598:2604  Status */\n      0x00\n        /* \"src/YeeterStrategy.sol\":2623:2629  NOOP() */\n      mload(0x40)\n      0x1569426800000000000000000000000000000000000000000000000000000000\n      dup2\n      mstore\n      0x04\n      add\n      mload(0x40)\n      dup1\n      swap2\n      sub\n      swap1\n      revert\n        /* \"lib/allo-v2/contracts/strategies/BaseStrategy.sol\":8269:8619  function __BaseStrategy_init(uint256 _poolId) internal virtual onlyAllo {... */\n    tag_165:\n        /* \"lib/allo-v2/contracts/strategies/BaseStrategy.sol\":5660:5676  _checkOnlyAllo() */\n      tag_219\n        /* \"lib/allo-v2/contracts/strategies/BaseStrategy.sol\":5660:5674  _checkOnlyAllo */\n      tag_101\n        /* \"lib/allo-v2/contracts/strategies/BaseStrategy.sol\":5660:5676  _checkOnlyAllo() */\n      jump\t// in\n    tag_219:\n        /* \"lib/allo-v2/contracts/strategies/BaseStrategy.sol\":8438:8439  0 */\n      0x00\n        /* \"lib/allo-v2/contracts/strategies/BaseStrategy.sol\":8428:8434  poolId */\n      sload(0x01)\n        /* \"lib/allo-v2/contracts/strategies/BaseStrategy.sol\":8428:8439  poolId != 0 */\n      eq\n        /* \"lib/allo-v2/contracts/strategies/BaseStrategy.sol\":8424:8469  if (poolId != 0) revert ALREADY_INITIALIZED() */\n      tag_221\n      jumpi\n        /* \"lib/allo-v2/contracts/strategies/BaseStrategy.sol\":8448:8469  ALREADY_INITIALIZED() */\n      mload(0x40)\n      0x439a74c900000000000000000000000000000000000000000000000000000000\n      dup2\n      mstore\n      0x04\n      add\n      mload(0x40)\n      dup1\n      swap2\n      sub\n      swap1\n      revert\n        /* \"lib/allo-v2/contracts/strategies/BaseStrategy.sol\":8424:8469  if (poolId != 0) revert ALREADY_INITIALIZED() */\n    tag_221:\n        /* \"lib/allo-v2/contracts/strategies/BaseStrategy.sol\":8567:8568  0 */\n      0x00\n        /* \"lib/allo-v2/contracts/strategies/BaseStrategy.sol\":8556:8563  _poolId */\n      dup2\n        /* \"lib/allo-v2/contracts/strategies/BaseStrategy.sol\":8556:8568  _poolId == 0 */\n      sub\n        /* \"lib/allo-v2/contracts/strategies/BaseStrategy.sol\":8552:8586  if (_poolId == 0) revert INVALID() */\n      tag_222\n      jumpi\n        /* \"lib/allo-v2/contracts/strategies/BaseStrategy.sol\":8577:8586  INVALID() */\n      mload(0x40)\n      0x7fcce2a900000000000000000000000000000000000000000000000000000000\n      dup2\n      mstore\n      0x04\n      add\n      mload(0x40)\n      dup1\n      swap2\n      sub\n      swap1\n      revert\n        /* \"lib/allo-v2/contracts/strategies/BaseStrategy.sol\":8552:8586  if (_poolId == 0) revert INVALID() */\n    tag_222:\n        /* \"lib/allo-v2/contracts/strategies/BaseStrategy.sol\":8605:8612  _poolId */\n      dup1\n        /* \"lib/allo-v2/contracts/strategies/BaseStrategy.sol\":8596:8602  poolId */\n      0x01\n        /* \"lib/allo-v2/contracts/strategies/BaseStrategy.sol\":8596:8612  poolId = _poolId */\n      dup2\n      swap1\n      sstore\n      pop\n        /* \"lib/allo-v2/contracts/strategies/BaseStrategy.sol\":8269:8619  function __BaseStrategy_init(uint256 _poolId) internal virtual onlyAllo {... */\n      pop\n      jump\t// out\n        /* \"lib/allo-v2/contracts/strategies/BaseStrategy.sol\":18349:18430  function _beforeAllocate(bytes memory _data, address _sender) internal virtual {} */\n    tag_174:\n      pop\n      pop\n      jump\t// out\n        /* \"src/YeeterStrategy.sol\":1337:2357  function _allocate(bytes memory _data, address _sender) internal virtual override onlyPoolManager(_sender) {... */\n    tag_176:\n        /* \"src/YeeterStrategy.sol\":1435:1442  _sender */\n      dup1\n        /* \"lib/allo-v2/contracts/strategies/BaseStrategy.sol\":5954:5984  _checkOnlyPoolManager(_sender) */\n      tag_225\n        /* \"lib/allo-v2/contracts/strategies/BaseStrategy.sol\":5976:5983  _sender */\n      dup2\n        /* \"lib/allo-v2/contracts/strategies/BaseStrategy.sol\":5954:5975  _checkOnlyPoolManager */\n      tag_153\n        /* \"lib/allo-v2/contracts/strategies/BaseStrategy.sol\":5954:5984  _checkOnlyPoolManager(_sender) */\n      jump\t// in\n    tag_225:\n        /* \"src/YeeterStrategy.sol\":1482:1512  address[] memory _recipientIds */\n      0x00\n        /* \"src/YeeterStrategy.sol\":1514:1539  uint256[] memory _amounts */\n      0x00\n        /* \"src/YeeterStrategy.sol\":1541:1555  address _token */\n      0x00\n        /* \"src/YeeterStrategy.sol\":1582:1587  _data */\n      dup6\n        /* \"src/YeeterStrategy.sol\":1571:1621  abi.decode(_data, (address[], uint256[], address)) */\n      dup1\n      0x20\n      add\n      swap1\n      mload\n      dup2\n      add\n      swap1\n      tag_227\n      swap2\n      swap1\n      tag_228\n      jump\t// in\n    tag_227:\n        /* \"src/YeeterStrategy.sol\":1481:1621  (address[] memory _recipientIds, uint256[] memory _amounts, address _token) =... */\n      swap3\n      pop\n      swap3\n      pop\n      swap3\n      pop\n        /* \"src/YeeterStrategy.sol\":1632:1652  uint256 payoutLength */\n      0x00\n        /* \"src/YeeterStrategy.sol\":1655:1668  _recipientIds */\n      dup4\n        /* \"src/YeeterStrategy.sol\":1655:1675  _recipientIds.length */\n      mload\n        /* \"src/YeeterStrategy.sol\":1632:1675  uint256 payoutLength = _recipientIds.length */\n      swap1\n      pop\n        /* \"src/YeeterStrategy.sol\":1747:1748  0 */\n      0x00\n        /* \"src/YeeterStrategy.sol\":1731:1743  payoutLength */\n      dup2\n        /* \"src/YeeterStrategy.sol\":1731:1748  payoutLength == 0 */\n      sub\n        /* \"src/YeeterStrategy.sol\":1727:1805  if (payoutLength == 0) {... */\n      tag_229\n      jumpi\n        /* \"src/YeeterStrategy.sol\":1771:1794  INPUT_LENGTH_MISMATCH() */\n      mload(0x40)\n      0xfb76571500000000000000000000000000000000000000000000000000000000\n      dup2\n      mstore\n      0x04\n      add\n      mload(0x40)\n      dup1\n      swap2\n      sub\n      swap1\n      revert\n        /* \"src/YeeterStrategy.sol\":1727:1805  if (payoutLength == 0) {... */\n    tag_229:\n        /* \"src/YeeterStrategy.sol\":1892:1900  _amounts */\n      dup3\n        /* \"src/YeeterStrategy.sol\":1892:1907  _amounts.length */\n      mload\n        /* \"src/YeeterStrategy.sol\":1876:1888  payoutLength */\n      dup2\n        /* \"src/YeeterStrategy.sol\":1876:1907  payoutLength != _amounts.length */\n      eq\n        /* \"src/YeeterStrategy.sol\":1872:1964  if (payoutLength != _amounts.length) {... */\n      tag_230\n      jumpi\n        /* \"src/YeeterStrategy.sol\":1930:1953  INPUT_LENGTH_MISMATCH() */\n      mload(0x40)\n      0xfb76571500000000000000000000000000000000000000000000000000000000\n      dup2\n      mstore\n      0x04\n      add\n      mload(0x40)\n      dup1\n      swap2\n      sub\n      swap1\n      revert\n        /* \"src/YeeterStrategy.sol\":1872:1964  if (payoutLength != _amounts.length) {... */\n    tag_230:\n        /* \"src/YeeterStrategy.sol\":2026:2035  uint256 i */\n      0x00\n        /* \"src/YeeterStrategy.sol\":2021:2351  for (uint256 i; i < payoutLength;) {... */\n    tag_231:\n        /* \"src/YeeterStrategy.sol\":2041:2053  payoutLength */\n      dup2\n        /* \"src/YeeterStrategy.sol\":2037:2038  i */\n      dup2\n        /* \"src/YeeterStrategy.sol\":2037:2053  i < payoutLength */\n      lt\n        /* \"src/YeeterStrategy.sol\":2021:2351  for (uint256 i; i < payoutLength;) {... */\n      iszero\n      tag_232\n      jumpi\n        /* \"src/YeeterStrategy.sol\":2070:2085  uint256 _amount */\n      0x00\n        /* \"src/YeeterStrategy.sol\":2088:2096  _amounts */\n      dup5\n        /* \"src/YeeterStrategy.sol\":2097:2098  i */\n      dup3\n        /* \"src/YeeterStrategy.sol\":2088:2099  _amounts[i] */\n      dup2\n      mload\n      dup2\n      lt\n      tag_234\n      jumpi\n      tag_235\n      tag_145\n      jump\t// in\n    tag_235:\n    tag_234:\n      0x20\n      mul\n      0x20\n      add\n      add\n      mload\n        /* \"src/YeeterStrategy.sol\":2070:2099  uint256 _amount = _amounts[i] */\n      swap1\n      pop\n        /* \"src/YeeterStrategy.sol\":2113:2133  address _recipientId */\n      0x00\n        /* \"src/YeeterStrategy.sol\":2136:2149  _recipientIds */\n      dup7\n        /* \"src/YeeterStrategy.sol\":2150:2151  i */\n      dup4\n        /* \"src/YeeterStrategy.sol\":2136:2152  _recipientIds[i] */\n      dup2\n      mload\n      dup2\n      lt\n      tag_236\n      jumpi\n      tag_237\n      tag_145\n      jump\t// in\n    tag_237:\n    tag_236:\n      0x20\n      mul\n      0x20\n      add\n      add\n      mload\n        /* \"src/YeeterStrategy.sol\":2113:2152  address _recipientId = _recipientIds[i] */\n      swap1\n      pop\n        /* \"src/YeeterStrategy.sol\":2167:2213  _transferAmount(_token, _recipientId, _amount) */\n      tag_238\n        /* \"src/YeeterStrategy.sol\":2183:2189  _token */\n      dup6\n        /* \"src/YeeterStrategy.sol\":2191:2203  _recipientId */\n      dup3\n        /* \"src/YeeterStrategy.sol\":2205:2212  _amount */\n      dup5\n        /* \"src/YeeterStrategy.sol\":2167:2182  _transferAmount */\n      tag_156\n        /* \"src/YeeterStrategy.sol\":2167:2213  _transferAmount(_token, _recipientId, _amount) */\n      jump\t// in\n    tag_238:\n        /* \"src/YeeterStrategy.sol\":2242:2254  _recipientId */\n      dup1\n        /* \"src/YeeterStrategy.sol\":2232:2281  Allocated(_recipientId, _amount, _token, _sender) */\n      0xffffffffffffffffffffffffffffffffffffffff\n      and\n      0x463ffc2cf8b1596445c417388ed30e53eb67cf6668cb2be7f0addf8a78c8441b\n        /* \"src/YeeterStrategy.sol\":2256:2263  _amount */\n      dup4\n        /* \"src/YeeterStrategy.sol\":2265:2271  _token */\n      dup8\n        /* \"src/YeeterStrategy.sol\":2273:2280  _sender */\n      dup13\n        /* \"src/YeeterStrategy.sol\":2232:2281  Allocated(_recipientId, _amount, _token, _sender) */\n      mload(0x40)\n      tag_239\n      swap4\n      swap3\n      swap2\n      swap1\n      tag_240\n      jump\t// in\n    tag_239:\n      mload(0x40)\n      dup1\n      swap2\n      sub\n      swap1\n      log2\n        /* \"src/YeeterStrategy.sol\":2323:2326  ++i */\n      dup3\n      0x01\n      add\n      swap3\n      pop\n        /* \"src/YeeterStrategy.sol\":2056:2351  {... */\n      pop\n      pop\n        /* \"src/YeeterStrategy.sol\":2021:2351  for (uint256 i; i < payoutLength;) {... */\n      jump(tag_231)\n    tag_232:\n      pop\n        /* \"src/YeeterStrategy.sol\":1444:2357  {... */\n      pop\n      pop\n      pop\n      pop\n        /* \"src/YeeterStrategy.sol\":1337:2357  function _allocate(bytes memory _data, address _sender) internal virtual override onlyPoolManager(_sender) {... */\n      pop\n      pop\n      pop\n      jump\t// out\n        /* \"lib/allo-v2/contracts/strategies/BaseStrategy.sol\":18612:18692  function _afterAllocate(bytes memory _data, address _sender) internal virtual {} */\n    tag_178:\n      pop\n      pop\n      jump\t// out\n        /* \"lib/allo-v2/contracts/strategies/BaseStrategy.sol\":17365:17436  function _beforeIncreasePoolAmount(uint256 _amount) internal virtual {} */\n    tag_183:\n      pop\n      jump\t// out\n        /* \"lib/allo-v2/contracts/strategies/BaseStrategy.sol\":17562:17632  function _afterIncreasePoolAmount(uint256 _amount) internal virtual {} */\n    tag_187:\n      pop\n      jump\t// out\n        /* \"lib/allo-v2/lib/solady/src/utils/SafeTransferLib.sol\":2455:2945  function safeTransferETH(address to, uint256 amount) internal {... */\n    tag_212:\n        /* \"lib/allo-v2/lib/solady/src/utils/SafeTransferLib.sol\":2711:2715  0x00 */\n      0x00\n        /* \"lib/allo-v2/lib/solady/src/utils/SafeTransferLib.sol\":2705:2709  0x00 */\n      0x00\n        /* \"lib/allo-v2/lib/solady/src/utils/SafeTransferLib.sol\":2699:2703  0x00 */\n      0x00\n        /* \"lib/allo-v2/lib/solady/src/utils/SafeTransferLib.sol\":2693:2697  0x00 */\n      0x00\n        /* \"lib/allo-v2/lib/solady/src/utils/SafeTransferLib.sol\":2685:2691  amount */\n      dup5\n        /* \"lib/allo-v2/lib/solady/src/utils/SafeTransferLib.sol\":2681:2683  to */\n      dup7\n        /* \"lib/allo-v2/lib/solady/src/utils/SafeTransferLib.sol\":2674:2679  gas() */\n      gas\n        /* \"lib/allo-v2/lib/solady/src/utils/SafeTransferLib.sol\":2669:2716  call(gas(), to, amount, 0x00, 0x00, 0x00, 0x00) */\n      call\n        /* \"lib/allo-v2/lib/solady/src/utils/SafeTransferLib.sol\":2659:2929  if iszero(call(gas(), to, amount, 0x00, 0x00, 0x00, 0x00)) {... */\n      tag_245\n      jumpi\n        /* \"lib/allo-v2/lib/solady/src/utils/SafeTransferLib.sol\":2822:2832  0xb12d13eb */\n      0xb12d13eb\n        /* \"lib/allo-v2/lib/solady/src/utils/SafeTransferLib.sol\":2816:2820  0x00 */\n      0x00\n        /* \"lib/allo-v2/lib/solady/src/utils/SafeTransferLib.sol\":2809:2833  mstore(0x00, 0xb12d13eb) */\n      mstore\n        /* \"lib/allo-v2/lib/solady/src/utils/SafeTransferLib.sol\":2910:2914  0x04 */\n      0x04\n        /* \"lib/allo-v2/lib/solady/src/utils/SafeTransferLib.sol\":2904:2908  0x1c */\n      0x1c\n        /* \"lib/allo-v2/lib/solady/src/utils/SafeTransferLib.sol\":2897:2915  revert(0x1c, 0x04) */\n      revert\n        /* \"lib/allo-v2/lib/solady/src/utils/SafeTransferLib.sol\":2659:2929  if iszero(call(gas(), to, amount, 0x00, 0x00, 0x00, 0x00)) {... */\n    tag_245:\n        /* \"lib/allo-v2/lib/solady/src/utils/SafeTransferLib.sol\":2455:2945  function safeTransferETH(address to, uint256 amount) internal {... */\n      pop\n      pop\n      jump\t// out\n        /* \"lib/allo-v2/lib/solady/src/utils/SafeTransferLib.sol\":11454:12643  function safeTransfer(address token, address to, uint256 amount) internal {... */\n    tag_215:\n        /* \"lib/allo-v2/lib/solady/src/utils/SafeTransferLib.sol\":11617:11619  to */\n      dup2\n        /* \"lib/allo-v2/lib/solady/src/utils/SafeTransferLib.sol\":11611:11615  0x14 */\n      0x14\n        /* \"lib/allo-v2/lib/solady/src/utils/SafeTransferLib.sol\":11604:11620  mstore(0x14, to) */\n      mstore\n        /* \"lib/allo-v2/lib/solady/src/utils/SafeTransferLib.sol\":11674:11680  amount */\n      dup1\n        /* \"lib/allo-v2/lib/solady/src/utils/SafeTransferLib.sol\":11668:11672  0x34 */\n      0x34\n        /* \"lib/allo-v2/lib/solady/src/utils/SafeTransferLib.sol\":11661:11681  mstore(0x34, amount) */\n      mstore\n        /* \"lib/allo-v2/lib/solady/src/utils/SafeTransferLib.sol\":11814:11848  0xa9059cbb000000000000000000000000 */\n      0xa9059cbb000000000000000000000000\n        /* \"lib/allo-v2/lib/solady/src/utils/SafeTransferLib.sol\":11808:11812  0x00 */\n      0x00\n        /* \"lib/allo-v2/lib/solady/src/utils/SafeTransferLib.sol\":11801:11849  mstore(0x00, 0xa9059cbb000000000000000000000000) */\n      mstore\n        /* \"lib/allo-v2/lib/solady/src/utils/SafeTransferLib.sol\":12272:12276  0x20 */\n      0x20\n        /* \"lib/allo-v2/lib/solady/src/utils/SafeTransferLib.sol\":12266:12270  0x00 */\n      0x00\n        /* \"lib/allo-v2/lib/solady/src/utils/SafeTransferLib.sol\":12260:12264  0x44 */\n      0x44\n        /* \"lib/allo-v2/lib/solady/src/utils/SafeTransferLib.sol\":12254:12258  0x10 */\n      0x10\n        /* \"lib/allo-v2/lib/solady/src/utils/SafeTransferLib.sol\":12251:12252  0 */\n      0x00\n        /* \"lib/allo-v2/lib/solady/src/utils/SafeTransferLib.sol\":12244:12249  token */\n      dup8\n        /* \"lib/allo-v2/lib/solady/src/utils/SafeTransferLib.sol\":12237:12242  gas() */\n      gas\n        /* \"lib/allo-v2/lib/solady/src/utils/SafeTransferLib.sol\":12232:12277  call(gas(), token, 0, 0x10, 0x44, 0x00, 0x20) */\n      call\n        /* \"lib/allo-v2/lib/solady/src/utils/SafeTransferLib.sol\":12192:12208  returndatasize() */\n      returndatasize\n        /* \"lib/allo-v2/lib/solady/src/utils/SafeTransferLib.sol\":12185:12209  iszero(returndatasize()) */\n      iszero\n        /* \"lib/allo-v2/lib/solady/src/utils/SafeTransferLib.sol\":12181:12182  1 */\n      0x01\n        /* \"lib/allo-v2/lib/solady/src/utils/SafeTransferLib.sol\":12174:12178  0x00 */\n      0x00\n        /* \"lib/allo-v2/lib/solady/src/utils/SafeTransferLib.sol\":12168:12179  mload(0x00) */\n      mload\n        /* \"lib/allo-v2/lib/solady/src/utils/SafeTransferLib.sol\":12165:12183  eq(mload(0x00), 1) */\n      eq\n        /* \"lib/allo-v2/lib/solady/src/utils/SafeTransferLib.sol\":12162:12210  or(eq(mload(0x00), 1), iszero(returndatasize())) */\n      or\n        /* \"lib/allo-v2/lib/solady/src/utils/SafeTransferLib.sol\":11890:12295  and( // The arguments of `and` are evaluated from right to left.... */\n      and\n        /* \"lib/allo-v2/lib/solady/src/utils/SafeTransferLib.sol\":11863:12518  if iszero(... */\n      tag_247\n      jumpi\n        /* \"lib/allo-v2/lib/solady/src/utils/SafeTransferLib.sol\":12411:12421  0x90b8ec18 */\n      0x90b8ec18\n        /* \"lib/allo-v2/lib/solady/src/utils/SafeTransferLib.sol\":12405:12409  0x00 */\n      0x00\n        /* \"lib/allo-v2/lib/solady/src/utils/SafeTransferLib.sol\":12398:12422  mstore(0x00, 0x90b8ec18) */\n      mstore\n        /* \"lib/allo-v2/lib/solady/src/utils/SafeTransferLib.sol\":12499:12503  0x04 */\n      0x04\n        /* \"lib/allo-v2/lib/solady/src/utils/SafeTransferLib.sol\":12493:12497  0x1c */\n      0x1c\n        /* \"lib/allo-v2/lib/solady/src/utils/SafeTransferLib.sol\":12486:12504  revert(0x1c, 0x04) */\n      revert\n        /* \"lib/allo-v2/lib/solady/src/utils/SafeTransferLib.sol\":11863:12518  if iszero(... */\n    tag_247:\n        /* \"lib/allo-v2/lib/solady/src/utils/SafeTransferLib.sol\":12625:12626  0 */\n      0x00\n        /* \"lib/allo-v2/lib/solady/src/utils/SafeTransferLib.sol\":12619:12623  0x34 */\n      0x34\n        /* \"lib/allo-v2/lib/solady/src/utils/SafeTransferLib.sol\":12612:12627  mstore(0x34, 0) */\n      mstore\n        /* \"lib/allo-v2/lib/solady/src/utils/SafeTransferLib.sol\":11454:12643  function safeTransfer(address token, address to, uint256 amount) internal {... */\n      pop\n      pop\n      pop\n      jump\t// out\n    tag_138:\n      mload(0x40)\n      dup1\n      0x40\n      add\n      0x40\n      mstore\n      dup1\n      and(0xffffffffffffffffffffffffffffffffffffffff, 0x00)\n      dup2\n      mstore\n      0x20\n      add\n      0x00\n      dup2\n      mstore\n      pop\n      swap1\n      jump\t// out\n        /* \"#utility.yul\":7:82   */\n    tag_248:\n        /* \"#utility.yul\":40:46   */\n      0x00\n        /* \"#utility.yul\":73:75   */\n      0x40\n        /* \"#utility.yul\":67:76   */\n      mload\n        /* \"#utility.yul\":57:76   */\n      swap1\n      pop\n        /* \"#utility.yul\":7:82   */\n      swap1\n      jump\t// out\n        /* \"#utility.yul\":88:205   */\n    tag_249:\n        /* \"#utility.yul\":197:198   */\n      0x00\n        /* \"#utility.yul\":194:195   */\n      0x00\n        /* \"#utility.yul\":187:199   */\n      revert\n        /* \"#utility.yul\":211:328   */\n    tag_250:\n        /* \"#utility.yul\":320:321   */\n      0x00\n        /* \"#utility.yul\":317:318   */\n      0x00\n        /* \"#utility.yul\":310:322   */\n      revert\n        /* \"#utility.yul\":334:451   */\n    tag_251:\n        /* \"#utility.yul\":443:444   */\n      0x00\n        /* \"#utility.yul\":440:441   */\n      0x00\n        /* \"#utility.yul\":433:445   */\n      revert\n        /* \"#utility.yul\":457:559   */\n    tag_252:\n        /* \"#utility.yul\":498:504   */\n      0x00\n        /* \"#utility.yul\":549:551   */\n      0x1f\n        /* \"#utility.yul\":545:552   */\n      not\n        /* \"#utility.yul\":540:542   */\n      0x1f\n        /* \"#utility.yul\":533:538   */\n      dup4\n        /* \"#utility.yul\":529:543   */\n      add\n        /* \"#utility.yul\":525:553   */\n      and\n        /* \"#utility.yul\":515:553   */\n      swap1\n      pop\n        /* \"#utility.yul\":457:559   */\n      swap2\n      swap1\n      pop\n      jump\t// out\n        /* \"#utility.yul\":565:745   */\n    tag_134:\n        /* \"#utility.yul\":613:690   */\n      0x4e487b7100000000000000000000000000000000000000000000000000000000\n        /* \"#utility.yul\":610:611   */\n      0x00\n        /* \"#utility.yul\":603:691   */\n      mstore\n        /* \"#utility.yul\":710:714   */\n      0x41\n        /* \"#utility.yul\":707:708   */\n      0x04\n        /* \"#utility.yul\":700:715   */\n      mstore\n        /* \"#utility.yul\":734:738   */\n      0x24\n        /* \"#utility.yul\":731:732   */\n      0x00\n        /* \"#utility.yul\":724:739   */\n      revert\n        /* \"#utility.yul\":751:1032   */\n    tag_253:\n        /* \"#utility.yul\":834:861   */\n      tag_324\n        /* \"#utility.yul\":856:860   */\n      dup3\n        /* \"#utility.yul\":834:861   */\n      tag_252\n      jump\t// in\n    tag_324:\n        /* \"#utility.yul\":826:832   */\n      dup2\n        /* \"#utility.yul\":822:862   */\n      add\n        /* \"#utility.yul\":964:970   */\n      dup2\n        /* \"#utility.yul\":952:962   */\n      dup2\n        /* \"#utility.yul\":949:971   */\n      lt\n        /* \"#utility.yul\":928:946   */\n      0xffffffffffffffff\n        /* \"#utility.yul\":916:926   */\n      dup3\n        /* \"#utility.yul\":913:947   */\n      gt\n        /* \"#utility.yul\":910:972   */\n      or\n        /* \"#utility.yul\":907:995   */\n      iszero\n      tag_325\n      jumpi\n        /* \"#utility.yul\":975:993   */\n      tag_326\n      tag_134\n      jump\t// in\n    tag_326:\n        /* \"#utility.yul\":907:995   */\n    tag_325:\n        /* \"#utility.yul\":1015:1025   */\n      dup1\n        /* \"#utility.yul\":1011:1013   */\n      0x40\n        /* \"#utility.yul\":1004:1026   */\n      mstore\n        /* \"#utility.yul\":794:1032   */\n      pop\n        /* \"#utility.yul\":751:1032   */\n      pop\n      pop\n      jump\t// out\n        /* \"#utility.yul\":1038:1167   */\n    tag_254:\n        /* \"#utility.yul\":1072:1078   */\n      0x00\n        /* \"#utility.yul\":1099:1119   */\n      tag_328\n      tag_248\n      jump\t// in\n    tag_328:\n        /* \"#utility.yul\":1089:1119   */\n      swap1\n      pop\n        /* \"#utility.yul\":1128:1161   */\n      tag_329\n        /* \"#utility.yul\":1156:1160   */\n      dup3\n        /* \"#utility.yul\":1148:1154   */\n      dup3\n        /* \"#utility.yul\":1128:1161   */\n      tag_253\n      jump\t// in\n    tag_329:\n        /* \"#utility.yul\":1038:1167   */\n      swap2\n      swap1\n      pop\n      jump\t// out\n        /* \"#utility.yul\":1173:1484   */\n    tag_255:\n        /* \"#utility.yul\":1250:1254   */\n      0x00\n        /* \"#utility.yul\":1340:1358   */\n      0xffffffffffffffff\n        /* \"#utility.yul\":1332:1338   */\n      dup3\n        /* \"#utility.yul\":1329:1359   */\n      gt\n        /* \"#utility.yul\":1326:1382   */\n      iszero\n      tag_331\n      jumpi\n        /* \"#utility.yul\":1362:1380   */\n      tag_332\n      tag_134\n      jump\t// in\n    tag_332:\n        /* \"#utility.yul\":1326:1382   */\n    tag_331:\n        /* \"#utility.yul\":1412:1416   */\n      0x20\n        /* \"#utility.yul\":1404:1410   */\n      dup3\n        /* \"#utility.yul\":1400:1417   */\n      mul\n        /* \"#utility.yul\":1392:1417   */\n      swap1\n      pop\n        /* \"#utility.yul\":1472:1476   */\n      0x20\n        /* \"#utility.yul\":1466:1470   */\n      dup2\n        /* \"#utility.yul\":1462:1477   */\n      add\n        /* \"#utility.yul\":1454:1477   */\n      swap1\n      pop\n        /* \"#utility.yul\":1173:1484   */\n      swap2\n      swap1\n      pop\n      jump\t// out\n        /* \"#utility.yul\":1490:1607   */\n    tag_256:\n        /* \"#utility.yul\":1599:1600   */\n      0x00\n        /* \"#utility.yul\":1596:1597   */\n      0x00\n        /* \"#utility.yul\":1589:1601   */\n      revert\n        /* \"#utility.yul\":1613:1739   */\n    tag_257:\n        /* \"#utility.yul\":1650:1657   */\n      0x00\n        /* \"#utility.yul\":1690:1732   */\n      0xffffffffffffffffffffffffffffffffffffffff\n        /* \"#utility.yul\":1683:1688   */\n      dup3\n        /* \"#utility.yul\":1679:1733   */\n      and\n        /* \"#utility.yul\":1668:1733   */\n      swap1\n      pop\n        /* \"#utility.yul\":1613:1739   */\n      swap2\n      swap1\n      pop\n      jump\t// out\n        /* \"#utility.yul\":1745:1841   */\n    tag_258:\n        /* \"#utility.yul\":1782:1789   */\n      0x00\n        /* \"#utility.yul\":1811:1835   */\n      tag_336\n        /* \"#utility.yul\":1829:1834   */\n      dup3\n        /* \"#utility.yul\":1811:1835   */\n      tag_257\n      jump\t// in\n    tag_336:\n        /* \"#utility.yul\":1800:1835   */\n      swap1\n      pop\n        /* \"#utility.yul\":1745:1841   */\n      swap2\n      swap1\n      pop\n      jump\t// out\n        /* \"#utility.yul\":1847:1969   */\n    tag_259:\n        /* \"#utility.yul\":1920:1944   */\n      tag_338\n        /* \"#utility.yul\":1938:1943   */\n      dup2\n        /* \"#utility.yul\":1920:1944   */\n      tag_258\n      jump\t// in\n    tag_338:\n        /* \"#utility.yul\":1913:1918   */\n      dup2\n        /* \"#utility.yul\":1910:1945   */\n      eq\n        /* \"#utility.yul\":1900:1963   */\n      tag_339\n      jumpi\n        /* \"#utility.yul\":1959:1960   */\n      0x00\n        /* \"#utility.yul\":1956:1957   */\n      0x00\n        /* \"#utility.yul\":1949:1961   */\n      revert\n        /* \"#utility.yul\":1900:1963   */\n    tag_339:\n        /* \"#utility.yul\":1847:1969   */\n      pop\n      jump\t// out\n        /* \"#utility.yul\":1975:2114   */\n    tag_260:\n        /* \"#utility.yul\":2021:2026   */\n      0x00\n        /* \"#utility.yul\":2059:2065   */\n      dup2\n        /* \"#utility.yul\":2046:2066   */\n      calldataload\n        /* \"#utility.yul\":2037:2066   */\n      swap1\n      pop\n        /* \"#utility.yul\":2075:2108   */\n      tag_341\n        /* \"#utility.yul\":2102:2107   */\n      dup2\n        /* \"#utility.yul\":2075:2108   */\n      tag_259\n      jump\t// in\n    tag_341:\n        /* \"#utility.yul\":1975:2114   */\n      swap3\n      swap2\n      pop\n      pop\n      jump\t// out\n        /* \"#utility.yul\":2137:2847   */\n    tag_261:\n        /* \"#utility.yul\":2233:2238   */\n      0x00\n        /* \"#utility.yul\":2258:2339   */\n      tag_343\n        /* \"#utility.yul\":2274:2338   */\n      tag_344\n        /* \"#utility.yul\":2331:2337   */\n      dup5\n        /* \"#utility.yul\":2274:2338   */\n      tag_255\n      jump\t// in\n    tag_344:\n        /* \"#utility.yul\":2258:2339   */\n      tag_254\n      jump\t// in\n    tag_343:\n        /* \"#utility.yul\":2249:2339   */\n      swap1\n      pop\n        /* \"#utility.yul\":2359:2364   */\n      dup1\n        /* \"#utility.yul\":2388:2394   */\n      dup4\n        /* \"#utility.yul\":2381:2386   */\n      dup3\n        /* \"#utility.yul\":2374:2395   */\n      mstore\n        /* \"#utility.yul\":2422:2426   */\n      0x20\n        /* \"#utility.yul\":2415:2420   */\n      dup3\n        /* \"#utility.yul\":2411:2427   */\n      add\n        /* \"#utility.yul\":2404:2427   */\n      swap1\n      pop\n        /* \"#utility.yul\":2475:2479   */\n      0x20\n        /* \"#utility.yul\":2467:2473   */\n      dup5\n        /* \"#utility.yul\":2463:2480   */\n      mul\n        /* \"#utility.yul\":2455:2461   */\n      dup4\n        /* \"#utility.yul\":2451:2481   */\n      add\n        /* \"#utility.yul\":2504:2507   */\n      dup6\n        /* \"#utility.yul\":2496:2502   */\n      dup2\n        /* \"#utility.yul\":2493:2508   */\n      gt\n        /* \"#utility.yul\":2490:2612   */\n      iszero\n      tag_345\n      jumpi\n        /* \"#utility.yul\":2523:2602   */\n      tag_346\n      tag_256\n      jump\t// in\n    tag_346:\n        /* \"#utility.yul\":2490:2612   */\n    tag_345:\n        /* \"#utility.yul\":2638:2644   */\n      dup4\n        /* \"#utility.yul\":2621:2841   */\n    tag_347:\n        /* \"#utility.yul\":2655:2661   */\n      dup2\n        /* \"#utility.yul\":2650:2653   */\n      dup2\n        /* \"#utility.yul\":2647:2662   */\n      lt\n        /* \"#utility.yul\":2621:2841   */\n      iszero\n      tag_349\n      jumpi\n        /* \"#utility.yul\":2730:2733   */\n      dup1\n        /* \"#utility.yul\":2759:2796   */\n      tag_350\n        /* \"#utility.yul\":2792:2795   */\n      dup9\n        /* \"#utility.yul\":2780:2790   */\n      dup3\n        /* \"#utility.yul\":2759:2796   */\n      tag_260\n      jump\t// in\n    tag_350:\n        /* \"#utility.yul\":2754:2757   */\n      dup5\n        /* \"#utility.yul\":2747:2797   */\n      mstore\n        /* \"#utility.yul\":2826:2830   */\n      0x20\n        /* \"#utility.yul\":2821:2824   */\n      dup5\n        /* \"#utility.yul\":2817:2831   */\n      add\n        /* \"#utility.yul\":2810:2831   */\n      swap4\n      pop\n        /* \"#utility.yul\":2697:2841   */\n      pop\n        /* \"#utility.yul\":2681:2685   */\n      0x20\n        /* \"#utility.yul\":2676:2679   */\n      dup2\n        /* \"#utility.yul\":2672:2686   */\n      add\n        /* \"#utility.yul\":2665:2686   */\n      swap1\n      pop\n        /* \"#utility.yul\":2621:2841   */\n      jump(tag_347)\n    tag_349:\n        /* \"#utility.yul\":2625:2646   */\n      pop\n        /* \"#utility.yul\":2239:2847   */\n      pop\n      pop\n        /* \"#utility.yul\":2137:2847   */\n      swap4\n      swap3\n      pop\n      pop\n      pop\n      jump\t// out\n        /* \"#utility.yul\":2870:3240   */\n    tag_262:\n        /* \"#utility.yul\":2941:2946   */\n      0x00\n        /* \"#utility.yul\":2990:2993   */\n      dup3\n        /* \"#utility.yul\":2983:2987   */\n      0x1f\n        /* \"#utility.yul\":2975:2981   */\n      dup4\n        /* \"#utility.yul\":2971:2988   */\n      add\n        /* \"#utility.yul\":2967:2994   */\n      slt\n        /* \"#utility.yul\":2957:3079   */\n      tag_352\n      jumpi\n        /* \"#utility.yul\":2998:3077   */\n      tag_353\n      tag_251\n      jump\t// in\n    tag_353:\n        /* \"#utility.yul\":2957:3079   */\n    tag_352:\n        /* \"#utility.yul\":3115:3121   */\n      dup2\n        /* \"#utility.yul\":3102:3122   */\n      calldataload\n        /* \"#utility.yul\":3140:3234   */\n      tag_354\n        /* \"#utility.yul\":3230:3233   */\n      dup5\n        /* \"#utility.yul\":3222:3228   */\n      dup3\n        /* \"#utility.yul\":3215:3219   */\n      0x20\n        /* \"#utility.yul\":3207:3213   */\n      dup7\n        /* \"#utility.yul\":3203:3220   */\n      add\n        /* \"#utility.yul\":3140:3234   */\n      tag_261\n      jump\t// in\n    tag_354:\n        /* \"#utility.yul\":3131:3234   */\n      swap2\n      pop\n        /* \"#utility.yul\":2947:3240   */\n      pop\n        /* \"#utility.yul\":2870:3240   */\n      swap3\n      swap2\n      pop\n      pop\n      jump\t// out\n        /* \"#utility.yul\":3246:3363   */\n    tag_263:\n        /* \"#utility.yul\":3355:3356   */\n      0x00\n        /* \"#utility.yul\":3352:3353   */\n      0x00\n        /* \"#utility.yul\":3345:3357   */\n      revert\n        /* \"#utility.yul\":3369:3676   */\n    tag_264:\n        /* \"#utility.yul\":3430:3434   */\n      0x00\n        /* \"#utility.yul\":3520:3538   */\n      0xffffffffffffffff\n        /* \"#utility.yul\":3512:3518   */\n      dup3\n        /* \"#utility.yul\":3509:3539   */\n      gt\n        /* \"#utility.yul\":3506:3562   */\n      iszero\n      tag_357\n      jumpi\n        /* \"#utility.yul\":3542:3560   */\n      tag_358\n      tag_134\n      jump\t// in\n    tag_358:\n        /* \"#utility.yul\":3506:3562   */\n    tag_357:\n        /* \"#utility.yul\":3580:3609   */\n      tag_359\n        /* \"#utility.yul\":3602:3608   */\n      dup3\n        /* \"#utility.yul\":3580:3609   */\n      tag_252\n      jump\t// in\n    tag_359:\n        /* \"#utility.yul\":3572:3609   */\n      swap1\n      pop\n        /* \"#utility.yul\":3664:3668   */\n      0x20\n        /* \"#utility.yul\":3658:3662   */\n      dup2\n        /* \"#utility.yul\":3654:3669   */\n      add\n        /* \"#utility.yul\":3646:3669   */\n      swap1\n      pop\n        /* \"#utility.yul\":3369:3676   */\n      swap2\n      swap1\n      pop\n      jump\t// out\n        /* \"#utility.yul\":3682:3830   */\n    tag_265:\n        /* \"#utility.yul\":3780:3786   */\n      dup3\n        /* \"#utility.yul\":3775:3778   */\n      dup2\n        /* \"#utility.yul\":3770:3773   */\n      dup4\n        /* \"#utility.yul\":3757:3787   */\n      calldatacopy\n        /* \"#utility.yul\":3821:3822   */\n      0x00\n        /* \"#utility.yul\":3812:3818   */\n      dup4\n        /* \"#utility.yul\":3807:3810   */\n      dup4\n        /* \"#utility.yul\":3803:3819   */\n      add\n        /* \"#utility.yul\":3796:3823   */\n      mstore\n        /* \"#utility.yul\":3682:3830   */\n      pop\n      pop\n      pop\n      jump\t// out\n        /* \"#utility.yul\":3836:4259   */\n    tag_266:\n        /* \"#utility.yul\":3913:3918   */\n      0x00\n        /* \"#utility.yul\":3938:4003   */\n      tag_362\n        /* \"#utility.yul\":3954:4002   */\n      tag_363\n        /* \"#utility.yul\":3995:4001   */\n      dup5\n        /* \"#utility.yul\":3954:4002   */\n      tag_264\n      jump\t// in\n    tag_363:\n        /* \"#utility.yul\":3938:4003   */\n      tag_254\n      jump\t// in\n    tag_362:\n        /* \"#utility.yul\":3929:4003   */\n      swap1\n      pop\n        /* \"#utility.yul\":4026:4032   */\n      dup3\n        /* \"#utility.yul\":4019:4024   */\n      dup2\n        /* \"#utility.yul\":4012:4033   */\n      mstore\n        /* \"#utility.yul\":4064:4068   */\n      0x20\n        /* \"#utility.yul\":4057:4062   */\n      dup2\n        /* \"#utility.yul\":4053:4069   */\n      add\n        /* \"#utility.yul\":4102:4105   */\n      dup5\n        /* \"#utility.yul\":4093:4099   */\n      dup5\n        /* \"#utility.yul\":4088:4091   */\n      dup5\n        /* \"#utility.yul\":4084:4100   */\n      add\n        /* \"#utility.yul\":4081:4106   */\n      gt\n        /* \"#utility.yul\":4078:4190   */\n      iszero\n      tag_364\n      jumpi\n        /* \"#utility.yul\":4109:4188   */\n      tag_365\n      tag_263\n      jump\t// in\n    tag_365:\n        /* \"#utility.yul\":4078:4190   */\n    tag_364:\n        /* \"#utility.yul\":4199:4253   */\n      tag_366\n        /* \"#utility.yul\":4246:4252   */\n      dup5\n        /* \"#utility.yul\":4241:4244   */\n      dup3\n        /* \"#utility.yul\":4236:4239   */\n      dup6\n        /* \"#utility.yul\":4199:4253   */\n      tag_265\n      jump\t// in\n    tag_366:\n        /* \"#utility.yul\":3919:4259   */\n      pop\n        /* \"#utility.yul\":3836:4259   */\n      swap4\n      swap3\n      pop\n      pop\n      pop\n      jump\t// out\n        /* \"#utility.yul\":4278:4616   */\n    tag_267:\n        /* \"#utility.yul\":4333:4338   */\n      0x00\n        /* \"#utility.yul\":4382:4385   */\n      dup3\n        /* \"#utility.yul\":4375:4379   */\n      0x1f\n        /* \"#utility.yul\":4367:4373   */\n      dup4\n        /* \"#utility.yul\":4363:4380   */\n      add\n        /* \"#utility.yul\":4359:4386   */\n      slt\n        /* \"#utility.yul\":4349:4471   */\n      tag_368\n      jumpi\n        /* \"#utility.yul\":4390:4469   */\n      tag_369\n      tag_251\n      jump\t// in\n    tag_369:\n        /* \"#utility.yul\":4349:4471   */\n    tag_368:\n        /* \"#utility.yul\":4507:4513   */\n      dup2\n        /* \"#utility.yul\":4494:4514   */\n      calldataload\n        /* \"#utility.yul\":4532:4610   */\n      tag_370\n        /* \"#utility.yul\":4606:4609   */\n      dup5\n        /* \"#utility.yul\":4598:4604   */\n      dup3\n        /* \"#utility.yul\":4591:4595   */\n      0x20\n        /* \"#utility.yul\":4583:4589   */\n      dup7\n        /* \"#utility.yul\":4579:4596   */\n      add\n        /* \"#utility.yul\":4532:4610   */\n      tag_266\n      jump\t// in\n    tag_370:\n        /* \"#utility.yul\":4523:4610   */\n      swap2\n      pop\n        /* \"#utility.yul\":4339:4616   */\n      pop\n        /* \"#utility.yul\":4278:4616   */\n      swap3\n      swap2\n      pop\n      pop\n      jump\t// out\n        /* \"#utility.yul\":4622:5629   */\n    tag_26:\n        /* \"#utility.yul\":4733:4739   */\n      0x00\n        /* \"#utility.yul\":4741:4747   */\n      0x00\n        /* \"#utility.yul\":4749:4755   */\n      0x00\n        /* \"#utility.yul\":4798:4800   */\n      0x60\n        /* \"#utility.yul\":4786:4795   */\n      dup5\n        /* \"#utility.yul\":4777:4784   */\n      dup7\n        /* \"#utility.yul\":4773:4796   */\n      sub\n        /* \"#utility.yul\":4769:4801   */\n      slt\n        /* \"#utility.yul\":4766:4885   */\n      iszero\n      tag_372\n      jumpi\n        /* \"#utility.yul\":4804:4883   */\n      tag_373\n      tag_249\n      jump\t// in\n    tag_373:\n        /* \"#utility.yul\":4766:4885   */\n    tag_372:\n        /* \"#utility.yul\":4952:4953   */\n      0x00\n        /* \"#utility.yul\":4941:4950   */\n      dup5\n        /* \"#utility.yul\":4937:4954   */\n      add\n        /* \"#utility.yul\":4924:4955   */\n      calldataload\n        /* \"#utility.yul\":4982:5000   */\n      0xffffffffffffffff\n        /* \"#utility.yul\":4974:4980   */\n      dup2\n        /* \"#utility.yul\":4971:5001   */\n      gt\n        /* \"#utility.yul\":4968:5085   */\n      iszero\n      tag_374\n      jumpi\n        /* \"#utility.yul\":5004:5083   */\n      tag_375\n      tag_250\n      jump\t// in\n    tag_375:\n        /* \"#utility.yul\":4968:5085   */\n    tag_374:\n        /* \"#utility.yul\":5109:5187   */\n      tag_376\n        /* \"#utility.yul\":5179:5186   */\n      dup7\n        /* \"#utility.yul\":5170:5176   */\n      dup3\n        /* \"#utility.yul\":5159:5168   */\n      dup8\n        /* \"#utility.yul\":5155:5177   */\n      add\n        /* \"#utility.yul\":5109:5187   */\n      tag_262\n      jump\t// in\n    tag_376:\n        /* \"#utility.yul\":5099:5187   */\n      swap4\n      pop\n        /* \"#utility.yul\":4895:5197   */\n      pop\n        /* \"#utility.yul\":5264:5266   */\n      0x20\n        /* \"#utility.yul\":5253:5262   */\n      dup5\n        /* \"#utility.yul\":5249:5267   */\n      add\n        /* \"#utility.yul\":5236:5268   */\n      calldataload\n        /* \"#utility.yul\":5295:5313   */\n      0xffffffffffffffff\n        /* \"#utility.yul\":5287:5293   */\n      dup2\n        /* \"#utility.yul\":5284:5314   */\n      gt\n        /* \"#utility.yul\":5281:5398   */\n      iszero\n      tag_377\n      jumpi\n        /* \"#utility.yul\":5317:5396   */\n      tag_378\n      tag_250\n      jump\t// in\n    tag_378:\n        /* \"#utility.yul\":5281:5398   */\n    tag_377:\n        /* \"#utility.yul\":5422:5484   */\n      tag_379\n        /* \"#utility.yul\":5476:5483   */\n      dup7\n        /* \"#utility.yul\":5467:5473   */\n      dup3\n        /* \"#utility.yul\":5456:5465   */\n      dup8\n        /* \"#utility.yul\":5452:5474   */\n      add\n        /* \"#utility.yul\":5422:5484   */\n      tag_267\n      jump\t// in\n    tag_379:\n        /* \"#utility.yul\":5412:5484   */\n      swap3\n      pop\n        /* \"#utility.yul\":5207:5494   */\n      pop\n        /* \"#utility.yul\":5533:5535   */\n      0x40\n        /* \"#utility.yul\":5559:5612   */\n      tag_380\n        /* \"#utility.yul\":5604:5611   */\n      dup7\n        /* \"#utility.yul\":5595:5601   */\n      dup3\n        /* \"#utility.yul\":5584:5593   */\n      dup8\n        /* \"#utility.yul\":5580:5602   */\n      add\n        /* \"#utility.yul\":5559:5612   */\n      tag_260\n      jump\t// in\n    tag_380:\n        /* \"#utility.yul\":5549:5612   */\n      swap2\n      pop\n        /* \"#utility.yul\":5504:5622   */\n      pop\n        /* \"#utility.yul\":4622:5629   */\n      swap3\n      pop\n      swap3\n      pop\n      swap3\n      jump\t// out\n        /* \"#utility.yul\":5635:5695   */\n    tag_268:\n        /* \"#utility.yul\":5663:5666   */\n      0x00\n        /* \"#utility.yul\":5684:5689   */\n      dup2\n        /* \"#utility.yul\":5677:5689   */\n      swap1\n      pop\n        /* \"#utility.yul\":5635:5695   */\n      swap2\n      swap1\n      pop\n      jump\t// out\n        /* \"#utility.yul\":5701:5843   */\n    tag_269:\n        /* \"#utility.yul\":5751:5760   */\n      0x00\n        /* \"#utility.yul\":5784:5837   */\n      tag_383\n        /* \"#utility.yul\":5802:5836   */\n      tag_384\n        /* \"#utility.yul\":5811:5835   */\n      tag_385\n        /* \"#utility.yul\":5829:5834   */\n      dup5\n        /* \"#utility.yul\":5811:5835   */\n      tag_257\n      jump\t// in\n    tag_385:\n        /* \"#utility.yul\":5802:5836   */\n      tag_268\n      jump\t// in\n    tag_384:\n        /* \"#utility.yul\":5784:5837   */\n      tag_257\n      jump\t// in\n    tag_383:\n        /* \"#utility.yul\":5771:5837   */\n      swap1\n      pop\n        /* \"#utility.yul\":5701:5843   */\n      swap2\n      swap1\n      pop\n      jump\t// out\n        /* \"#utility.yul\":5849:5975   */\n    tag_270:\n        /* \"#utility.yul\":5899:5908   */\n      0x00\n        /* \"#utility.yul\":5932:5969   */\n      tag_387\n        /* \"#utility.yul\":5963:5968   */\n      dup3\n        /* \"#utility.yul\":5932:5969   */\n      tag_269\n      jump\t// in\n    tag_387:\n        /* \"#utility.yul\":5919:5969   */\n      swap1\n      pop\n        /* \"#utility.yul\":5849:5975   */\n      swap2\n      swap1\n      pop\n      jump\t// out\n        /* \"#utility.yul\":5981:6120   */\n    tag_271:\n        /* \"#utility.yul\":6044:6053   */\n      0x00\n        /* \"#utility.yul\":6077:6114   */\n      tag_389\n        /* \"#utility.yul\":6108:6113   */\n      dup3\n        /* \"#utility.yul\":6077:6114   */\n      tag_270\n      jump\t// in\n    tag_389:\n        /* \"#utility.yul\":6064:6114   */\n      swap1\n      pop\n        /* \"#utility.yul\":5981:6120   */\n      swap2\n      swap1\n      pop\n      jump\t// out\n        /* \"#utility.yul\":6126:6283   */\n    tag_272:\n        /* \"#utility.yul\":6226:6276   */\n      tag_391\n        /* \"#utility.yul\":6270:6275   */\n      dup2\n        /* \"#utility.yul\":6226:6276   */\n      tag_271\n      jump\t// in\n    tag_391:\n        /* \"#utility.yul\":6221:6224   */\n      dup3\n        /* \"#utility.yul\":6214:6277   */\n      mstore\n        /* \"#utility.yul\":6126:6283   */\n      pop\n      pop\n      jump\t// out\n        /* \"#utility.yul\":6289:6537   */\n    tag_32:\n        /* \"#utility.yul\":6395:6399   */\n      0x00\n        /* \"#utility.yul\":6433:6435   */\n      0x20\n        /* \"#utility.yul\":6422:6431   */\n      dup3\n        /* \"#utility.yul\":6418:6436   */\n      add\n        /* \"#utility.yul\":6410:6436   */\n      swap1\n      pop\n        /* \"#utility.yul\":6446:6530   */\n      tag_393\n        /* \"#utility.yul\":6527:6528   */\n      0x00\n        /* \"#utility.yul\":6516:6525   */\n      dup4\n        /* \"#utility.yul\":6512:6529   */\n      add\n        /* \"#utility.yul\":6503:6509   */\n      dup5\n        /* \"#utility.yul\":6446:6530   */\n      tag_272\n      jump\t// in\n    tag_393:\n        /* \"#utility.yul\":6289:6537   */\n      swap3\n      swap2\n      pop\n      pop\n      jump\t// out\n        /* \"#utility.yul\":6543:7195   */\n    tag_35:\n        /* \"#utility.yul\":6620:6626   */\n      0x00\n        /* \"#utility.yul\":6628:6634   */\n      0x00\n        /* \"#utility.yul\":6677:6679   */\n      0x40\n        /* \"#utility.yul\":6665:6674   */\n      dup4\n        /* \"#utility.yul\":6656:6663   */\n      dup6\n        /* \"#utility.yul\":6652:6675   */\n      sub\n        /* \"#utility.yul\":6648:6680   */\n      slt\n        /* \"#utility.yul\":6645:6764   */\n      iszero\n      tag_395\n      jumpi\n        /* \"#utility.yul\":6683:6762   */\n      tag_396\n      tag_249\n      jump\t// in\n    tag_396:\n        /* \"#utility.yul\":6645:6764   */\n    tag_395:\n        /* \"#utility.yul\":6831:6832   */\n      0x00\n        /* \"#utility.yul\":6820:6829   */\n      dup4\n        /* \"#utility.yul\":6816:6833   */\n      add\n        /* \"#utility.yul\":6803:6834   */\n      calldataload\n        /* \"#utility.yul\":6861:6879   */\n      0xffffffffffffffff\n        /* \"#utility.yul\":6853:6859   */\n      dup2\n        /* \"#utility.yul\":6850:6880   */\n      gt\n        /* \"#utility.yul\":6847:6964   */\n      iszero\n      tag_397\n      jumpi\n        /* \"#utility.yul\":6883:6962   */\n      tag_398\n      tag_250\n      jump\t// in\n    tag_398:\n        /* \"#utility.yul\":6847:6964   */\n    tag_397:\n        /* \"#utility.yul\":6988:7050   */\n      tag_399\n        /* \"#utility.yul\":7042:7049   */\n      dup6\n        /* \"#utility.yul\":7033:7039   */\n      dup3\n        /* \"#utility.yul\":7022:7031   */\n      dup7\n        /* \"#utility.yul\":7018:7040   */\n      add\n        /* \"#utility.yul\":6988:7050   */\n      tag_267\n      jump\t// in\n    tag_399:\n        /* \"#utility.yul\":6978:7050   */\n      swap3\n      pop\n        /* \"#utility.yul\":6774:7060   */\n      pop\n        /* \"#utility.yul\":7099:7101   */\n      0x20\n        /* \"#utility.yul\":7125:7178   */\n      tag_400\n        /* \"#utility.yul\":7170:7177   */\n      dup6\n        /* \"#utility.yul\":7161:7167   */\n      dup3\n        /* \"#utility.yul\":7150:7159   */\n      dup7\n        /* \"#utility.yul\":7146:7168   */\n      add\n        /* \"#utility.yul\":7125:7178   */\n      tag_260\n      jump\t// in\n    tag_400:\n        /* \"#utility.yul\":7115:7178   */\n      swap2\n      pop\n        /* \"#utility.yul\":7070:7188   */\n      pop\n        /* \"#utility.yul\":6543:7195   */\n      swap3\n      pop\n      swap3\n      swap1\n      pop\n      jump\t// out\n        /* \"#utility.yul\":7201:7319   */\n    tag_273:\n        /* \"#utility.yul\":7288:7312   */\n      tag_402\n        /* \"#utility.yul\":7306:7311   */\n      dup2\n        /* \"#utility.yul\":7288:7312   */\n      tag_258\n      jump\t// in\n    tag_402:\n        /* \"#utility.yul\":7283:7286   */\n      dup3\n        /* \"#utility.yul\":7276:7313   */\n      mstore\n        /* \"#utility.yul\":7201:7319   */\n      pop\n      pop\n      jump\t// out\n        /* \"#utility.yul\":7325:7547   */\n    tag_38:\n        /* \"#utility.yul\":7418:7422   */\n      0x00\n        /* \"#utility.yul\":7456:7458   */\n      0x20\n        /* \"#utility.yul\":7445:7454   */\n      dup3\n        /* \"#utility.yul\":7441:7459   */\n      add\n        /* \"#utility.yul\":7433:7459   */\n      swap1\n      pop\n        /* \"#utility.yul\":7469:7540   */\n      tag_404\n        /* \"#utility.yul\":7537:7538   */\n      0x00\n        /* \"#utility.yul\":7526:7535   */\n      dup4\n        /* \"#utility.yul\":7522:7539   */\n      add\n        /* \"#utility.yul\":7513:7519   */\n      dup5\n        /* \"#utility.yul\":7469:7540   */\n      tag_273\n      jump\t// in\n    tag_404:\n        /* \"#utility.yul\":7325:7547   */\n      swap3\n      swap2\n      pop\n      pop\n      jump\t// out\n        /* \"#utility.yul\":7553:7630   */\n    tag_274:\n        /* \"#utility.yul\":7590:7597   */\n      0x00\n        /* \"#utility.yul\":7619:7624   */\n      dup2\n        /* \"#utility.yul\":7608:7624   */\n      swap1\n      pop\n        /* \"#utility.yul\":7553:7630   */\n      swap2\n      swap1\n      pop\n      jump\t// out\n        /* \"#utility.yul\":7636:7754   */\n    tag_275:\n        /* \"#utility.yul\":7723:7747   */\n      tag_407\n        /* \"#utility.yul\":7741:7746   */\n      dup2\n        /* \"#utility.yul\":7723:7747   */\n      tag_274\n      jump\t// in\n    tag_407:\n        /* \"#utility.yul\":7718:7721   */\n      dup3\n        /* \"#utility.yul\":7711:7748   */\n      mstore\n        /* \"#utility.yul\":7636:7754   */\n      pop\n      pop\n      jump\t// out\n        /* \"#utility.yul\":7760:7982   */\n    tag_43:\n        /* \"#utility.yul\":7853:7857   */\n      0x00\n        /* \"#utility.yul\":7891:7893   */\n      0x20\n        /* \"#utility.yul\":7880:7889   */\n      dup3\n        /* \"#utility.yul\":7876:7894   */\n      add\n        /* \"#utility.yul\":7868:7894   */\n      swap1\n      pop\n        /* \"#utility.yul\":7904:7975   */\n      tag_409\n        /* \"#utility.yul\":7972:7973   */\n      0x00\n        /* \"#utility.yul\":7961:7970   */\n      dup4\n        /* \"#utility.yul\":7957:7974   */\n      add\n        /* \"#utility.yul\":7948:7954   */\n      dup5\n        /* \"#utility.yul\":7904:7975   */\n      tag_275\n      jump\t// in\n    tag_409:\n        /* \"#utility.yul\":7760:7982   */\n      swap3\n      swap2\n      pop\n      pop\n      jump\t// out\n        /* \"#utility.yul\":7988:8065   */\n    tag_276:\n        /* \"#utility.yul\":8025:8032   */\n      0x00\n        /* \"#utility.yul\":8054:8059   */\n      dup2\n        /* \"#utility.yul\":8043:8059   */\n      swap1\n      pop\n        /* \"#utility.yul\":7988:8065   */\n      swap2\n      swap1\n      pop\n      jump\t// out\n        /* \"#utility.yul\":8071:8189   */\n    tag_277:\n        /* \"#utility.yul\":8158:8182   */\n      tag_412\n        /* \"#utility.yul\":8176:8181   */\n      dup2\n        /* \"#utility.yul\":8158:8182   */\n      tag_276\n      jump\t// in\n    tag_412:\n        /* \"#utility.yul\":8153:8156   */\n      dup3\n        /* \"#utility.yul\":8146:8183   */\n      mstore\n        /* \"#utility.yul\":8071:8189   */\n      pop\n      pop\n      jump\t// out\n        /* \"#utility.yul\":8195:8417   */\n    tag_48:\n        /* \"#utility.yul\":8288:8292   */\n      0x00\n        /* \"#utility.yul\":8326:8328   */\n      0x20\n        /* \"#utility.yul\":8315:8324   */\n      dup3\n        /* \"#utility.yul\":8311:8329   */\n      add\n        /* \"#utility.yul\":8303:8329   */\n      swap1\n      pop\n        /* \"#utility.yul\":8339:8410   */\n      tag_414\n        /* \"#utility.yul\":8407:8408   */\n      0x00\n        /* \"#utility.yul\":8396:8405   */\n      dup4\n        /* \"#utility.yul\":8392:8409   */\n      add\n        /* \"#utility.yul\":8383:8389   */\n      dup5\n        /* \"#utility.yul\":8339:8410   */\n      tag_277\n      jump\t// in\n    tag_414:\n        /* \"#utility.yul\":8195:8417   */\n      swap3\n      swap2\n      pop\n      pop\n      jump\t// out\n        /* \"#utility.yul\":8423:8752   */\n    tag_56:\n        /* \"#utility.yul\":8482:8488   */\n      0x00\n        /* \"#utility.yul\":8531:8533   */\n      0x20\n        /* \"#utility.yul\":8519:8528   */\n      dup3\n        /* \"#utility.yul\":8510:8517   */\n      dup5\n        /* \"#utility.yul\":8506:8529   */\n      sub\n        /* \"#utility.yul\":8502:8534   */\n      slt\n        /* \"#utility.yul\":8499:8618   */\n      iszero\n      tag_416\n      jumpi\n        /* \"#utility.yul\":8537:8616   */\n      tag_417\n      tag_249\n      jump\t// in\n    tag_417:\n        /* \"#utility.yul\":8499:8618   */\n    tag_416:\n        /* \"#utility.yul\":8657:8658   */\n      0x00\n        /* \"#utility.yul\":8682:8735   */\n      tag_418\n        /* \"#utility.yul\":8727:8734   */\n      dup5\n        /* \"#utility.yul\":8718:8724   */\n      dup3\n        /* \"#utility.yul\":8707:8716   */\n      dup6\n        /* \"#utility.yul\":8703:8725   */\n      add\n        /* \"#utility.yul\":8682:8735   */\n      tag_260\n      jump\t// in\n    tag_418:\n        /* \"#utility.yul\":8672:8735   */\n      swap2\n      pop\n        /* \"#utility.yul\":8628:8745   */\n      pop\n        /* \"#utility.yul\":8423:8752   */\n      swap3\n      swap2\n      pop\n      pop\n      jump\t// out\n        /* \"#utility.yul\":8758:8848   */\n    tag_278:\n        /* \"#utility.yul\":8792:8799   */\n      0x00\n        /* \"#utility.yul\":8835:8840   */\n      dup2\n        /* \"#utility.yul\":8828:8841   */\n      iszero\n        /* \"#utility.yul\":8821:8842   */\n      iszero\n        /* \"#utility.yul\":8810:8842   */\n      swap1\n      pop\n        /* \"#utility.yul\":8758:8848   */\n      swap2\n      swap1\n      pop\n      jump\t// out\n        /* \"#utility.yul\":8854:8963   */\n    tag_279:\n        /* \"#utility.yul\":8935:8956   */\n      tag_421\n        /* \"#utility.yul\":8950:8955   */\n      dup2\n        /* \"#utility.yul\":8935:8956   */\n      tag_278\n      jump\t// in\n    tag_421:\n        /* \"#utility.yul\":8930:8933   */\n      dup3\n        /* \"#utility.yul\":8923:8957   */\n      mstore\n        /* \"#utility.yul\":8854:8963   */\n      pop\n      pop\n      jump\t// out\n        /* \"#utility.yul\":8969:9179   */\n    tag_59:\n        /* \"#utility.yul\":9056:9060   */\n      0x00\n        /* \"#utility.yul\":9094:9096   */\n      0x20\n        /* \"#utility.yul\":9083:9092   */\n      dup3\n        /* \"#utility.yul\":9079:9097   */\n      add\n        /* \"#utility.yul\":9071:9097   */\n      swap1\n      pop\n        /* \"#utility.yul\":9107:9172   */\n      tag_423\n        /* \"#utility.yul\":9169:9170   */\n      0x00\n        /* \"#utility.yul\":9158:9167   */\n      dup4\n        /* \"#utility.yul\":9154:9171   */\n      add\n        /* \"#utility.yul\":9145:9151   */\n      dup5\n        /* \"#utility.yul\":9107:9172   */\n      tag_279\n      jump\t// in\n    tag_423:\n        /* \"#utility.yul\":8969:9179   */\n      swap3\n      swap2\n      pop\n      pop\n      jump\t// out\n        /* \"#utility.yul\":9185:9505   */\n    tag_280:\n        /* \"#utility.yul\":9271:9275   */\n      0x00\n        /* \"#utility.yul\":9361:9379   */\n      0xffffffffffffffff\n        /* \"#utility.yul\":9353:9359   */\n      dup3\n        /* \"#utility.yul\":9350:9380   */\n      gt\n        /* \"#utility.yul\":9347:9403   */\n      iszero\n      tag_425\n      jumpi\n        /* \"#utility.yul\":9383:9401   */\n      tag_426\n      tag_134\n      jump\t// in\n    tag_426:\n        /* \"#utility.yul\":9347:9403   */\n    tag_425:\n        /* \"#utility.yul\":9433:9437   */\n      0x20\n        /* \"#utility.yul\":9425:9431   */\n      dup3\n        /* \"#utility.yul\":9421:9438   */\n      mul\n        /* \"#utility.yul\":9413:9438   */\n      swap1\n      pop\n        /* \"#utility.yul\":9493:9497   */\n      0x20\n        /* \"#utility.yul\":9487:9491   */\n      dup2\n        /* \"#utility.yul\":9483:9498   */\n      add\n        /* \"#utility.yul\":9475:9498   */\n      swap1\n      pop\n        /* \"#utility.yul\":9185:9505   */\n      swap2\n      swap1\n      pop\n      jump\t// out\n        /* \"#utility.yul\":9526:10468   */\n    tag_281:\n        /* \"#utility.yul\":9631:9636   */\n      0x00\n        /* \"#utility.yul\":9656:9746   */\n      tag_428\n        /* \"#utility.yul\":9672:9745   */\n      tag_429\n        /* \"#utility.yul\":9738:9744   */\n      dup5\n        /* \"#utility.yul\":9672:9745   */\n      tag_280\n      jump\t// in\n    tag_429:\n        /* \"#utility.yul\":9656:9746   */\n      tag_254\n      jump\t// in\n    tag_428:\n        /* \"#utility.yul\":9647:9746   */\n      swap1\n      pop\n        /* \"#utility.yul\":9766:9771   */\n      dup1\n        /* \"#utility.yul\":9795:9801   */\n      dup4\n        /* \"#utility.yul\":9788:9793   */\n      dup3\n        /* \"#utility.yul\":9781:9802   */\n      mstore\n        /* \"#utility.yul\":9829:9833   */\n      0x20\n        /* \"#utility.yul\":9822:9827   */\n      dup3\n        /* \"#utility.yul\":9818:9834   */\n      add\n        /* \"#utility.yul\":9811:9834   */\n      swap1\n      pop\n        /* \"#utility.yul\":9882:9886   */\n      0x20\n        /* \"#utility.yul\":9874:9880   */\n      dup5\n        /* \"#utility.yul\":9870:9887   */\n      mul\n        /* \"#utility.yul\":9862:9868   */\n      dup4\n        /* \"#utility.yul\":9858:9888   */\n      add\n        /* \"#utility.yul\":9911:9914   */\n      dup6\n        /* \"#utility.yul\":9903:9909   */\n      dup2\n        /* \"#utility.yul\":9900:9915   */\n      gt\n        /* \"#utility.yul\":9897:10019   */\n      iszero\n      tag_430\n      jumpi\n        /* \"#utility.yul\":9930:10009   */\n      tag_431\n      tag_256\n      jump\t// in\n    tag_431:\n        /* \"#utility.yul\":9897:10019   */\n    tag_430:\n        /* \"#utility.yul\":10045:10051   */\n      dup4\n        /* \"#utility.yul\":10028:10462   */\n    tag_432:\n        /* \"#utility.yul\":10062:10068   */\n      dup2\n        /* \"#utility.yul\":10057:10060   */\n      dup2\n        /* \"#utility.yul\":10054:10069   */\n      lt\n        /* \"#utility.yul\":10028:10462   */\n      iszero\n      tag_434\n      jumpi\n        /* \"#utility.yul\":10151:10154   */\n      dup1\n        /* \"#utility.yul\":10138:10155   */\n      calldataload\n        /* \"#utility.yul\":10187:10205   */\n      0xffffffffffffffff\n        /* \"#utility.yul\":10174:10185   */\n      dup2\n        /* \"#utility.yul\":10171:10206   */\n      gt\n        /* \"#utility.yul\":10168:10290   */\n      iszero\n      tag_435\n      jumpi\n        /* \"#utility.yul\":10209:10288   */\n      tag_436\n      tag_251\n      jump\t// in\n    tag_436:\n        /* \"#utility.yul\":10168:10290   */\n    tag_435:\n        /* \"#utility.yul\":10333:10344   */\n      dup1\n        /* \"#utility.yul\":10325:10331   */\n      dup7\n        /* \"#utility.yul\":10321:10345   */\n      add\n        /* \"#utility.yul\":10371:10417   */\n      tag_437\n        /* \"#utility.yul\":10413:10416   */\n      dup10\n        /* \"#utility.yul\":10401:10411   */\n      dup3\n        /* \"#utility.yul\":10371:10417   */\n      tag_267\n      jump\t// in\n    tag_437:\n        /* \"#utility.yul\":10366:10369   */\n      dup6\n        /* \"#utility.yul\":10359:10418   */\n      mstore\n        /* \"#utility.yul\":10447:10451   */\n      0x20\n        /* \"#utility.yul\":10442:10445   */\n      dup6\n        /* \"#utility.yul\":10438:10452   */\n      add\n        /* \"#utility.yul\":10431:10452   */\n      swap5\n      pop\n        /* \"#utility.yul\":10104:10462   */\n      pop\n      pop\n        /* \"#utility.yul\":10088:10092   */\n      0x20\n        /* \"#utility.yul\":10083:10086   */\n      dup2\n        /* \"#utility.yul\":10079:10093   */\n      add\n        /* \"#utility.yul\":10072:10093   */\n      swap1\n      pop\n        /* \"#utility.yul\":10028:10462   */\n      jump(tag_432)\n    tag_434:\n        /* \"#utility.yul\":10032:10053   */\n      pop\n        /* \"#utility.yul\":9637:10468   */\n      pop\n      pop\n        /* \"#utility.yul\":9526:10468   */\n      swap4\n      swap3\n      pop\n      pop\n      pop\n      jump\t// out\n        /* \"#utility.yul\":10489:10877   */\n    tag_282:\n        /* \"#utility.yul\":10569:10574   */\n      0x00\n        /* \"#utility.yul\":10618:10621   */\n      dup3\n        /* \"#utility.yul\":10611:10615   */\n      0x1f\n        /* \"#utility.yul\":10603:10609   */\n      dup4\n        /* \"#utility.yul\":10599:10616   */\n      add\n        /* \"#utility.yul\":10595:10622   */\n      slt\n        /* \"#utility.yul\":10585:10707   */\n      tag_439\n      jumpi\n        /* \"#utility.yul\":10626:10705   */\n      tag_440\n      tag_251\n      jump\t// in\n    tag_440:\n        /* \"#utility.yul\":10585:10707   */\n    tag_439:\n        /* \"#utility.yul\":10743:10749   */\n      dup2\n        /* \"#utility.yul\":10730:10750   */\n      calldataload\n        /* \"#utility.yul\":10768:10871   */\n      tag_441\n        /* \"#utility.yul\":10867:10870   */\n      dup5\n        /* \"#utility.yul\":10859:10865   */\n      dup3\n        /* \"#utility.yul\":10852:10856   */\n      0x20\n        /* \"#utility.yul\":10844:10850   */\n      dup7\n        /* \"#utility.yul\":10840:10857   */\n      add\n        /* \"#utility.yul\":10768:10871   */\n      tag_281\n      jump\t// in\n    tag_441:\n        /* \"#utility.yul\":10759:10871   */\n      swap2\n      pop\n        /* \"#utility.yul\":10575:10877   */\n      pop\n        /* \"#utility.yul\":10489:10877   */\n      swap3\n      swap2\n      pop\n      pop\n      jump\t// out\n        /* \"#utility.yul\":10883:11795   */\n    tag_67:\n        /* \"#utility.yul\":11010:11016   */\n      0x00\n        /* \"#utility.yul\":11018:11024   */\n      0x00\n        /* \"#utility.yul\":11067:11069   */\n      0x40\n        /* \"#utility.yul\":11055:11064   */\n      dup4\n        /* \"#utility.yul\":11046:11053   */\n      dup6\n        /* \"#utility.yul\":11042:11065   */\n      sub\n        /* \"#utility.yul\":11038:11070   */\n      slt\n        /* \"#utility.yul\":11035:11154   */\n      iszero\n      tag_443\n      jumpi\n        /* \"#utility.yul\":11073:11152   */\n      tag_444\n      tag_249\n      jump\t// in\n    tag_444:\n        /* \"#utility.yul\":11035:11154   */\n    tag_443:\n        /* \"#utility.yul\":11221:11222   */\n      0x00\n        /* \"#utility.yul\":11210:11219   */\n      dup4\n        /* \"#utility.yul\":11206:11223   */\n      add\n        /* \"#utility.yul\":11193:11224   */\n      calldataload\n        /* \"#utility.yul\":11251:11269   */\n      0xffffffffffffffff\n        /* \"#utility.yul\":11243:11249   */\n      dup2\n        /* \"#utility.yul\":11240:11270   */\n      gt\n        /* \"#utility.yul\":11237:11354   */\n      iszero\n      tag_445\n      jumpi\n        /* \"#utility.yul\":11273:11352   */\n      tag_446\n      tag_250\n      jump\t// in\n    tag_446:\n        /* \"#utility.yul\":11237:11354   */\n    tag_445:\n        /* \"#utility.yul\":11378:11456   */\n      tag_447\n        /* \"#utility.yul\":11448:11455   */\n      dup6\n        /* \"#utility.yul\":11439:11445   */\n      dup3\n        /* \"#utility.yul\":11428:11437   */\n      dup7\n        /* \"#utility.yul\":11424:11446   */\n      add\n        /* \"#utility.yul\":11378:11456   */\n      tag_262\n      jump\t// in\n    tag_447:\n        /* \"#utility.yul\":11368:11456   */\n      swap3\n      pop\n        /* \"#utility.yul\":11164:11466   */\n      pop\n        /* \"#utility.yul\":11533:11535   */\n      0x20\n        /* \"#utility.yul\":11522:11531   */\n      dup4\n        /* \"#utility.yul\":11518:11536   */\n      add\n        /* \"#utility.yul\":11505:11537   */\n      calldataload\n        /* \"#utility.yul\":11564:11582   */\n      0xffffffffffffffff\n        /* \"#utility.yul\":11556:11562   */\n      dup2\n        /* \"#utility.yul\":11553:11583   */\n      gt\n        /* \"#utility.yul\":11550:11667   */\n      iszero\n      tag_448\n      jumpi\n        /* \"#utility.yul\":11586:11665   */\n      tag_449\n      tag_250\n      jump\t// in\n    tag_449:\n        /* \"#utility.yul\":11550:11667   */\n    tag_448:\n        /* \"#utility.yul\":11691:11778   */\n      tag_450\n        /* \"#utility.yul\":11770:11777   */\n      dup6\n        /* \"#utility.yul\":11761:11767   */\n      dup3\n        /* \"#utility.yul\":11750:11759   */\n      dup7\n        /* \"#utility.yul\":11746:11768   */\n      add\n        /* \"#utility.yul\":11691:11778   */\n      tag_282\n      jump\t// in\n    tag_450:\n        /* \"#utility.yul\":11681:11778   */\n      swap2\n      pop\n        /* \"#utility.yul\":11476:11788   */\n      pop\n        /* \"#utility.yul\":10883:11795   */\n      swap3\n      pop\n      swap3\n      swap1\n      pop\n      jump\t// out\n        /* \"#utility.yul\":11801:11945   */\n    tag_283:\n        /* \"#utility.yul\":11898:11904   */\n      0x00\n        /* \"#utility.yul\":11932:11937   */\n      dup2\n        /* \"#utility.yul\":11926:11938   */\n      mload\n        /* \"#utility.yul\":11916:11938   */\n      swap1\n      pop\n        /* \"#utility.yul\":11801:11945   */\n      swap2\n      swap1\n      pop\n      jump\t// out\n        /* \"#utility.yul\":11951:12165   */\n    tag_284:\n        /* \"#utility.yul\":12080:12091   */\n      0x00\n        /* \"#utility.yul\":12114:12120   */\n      dup3\n        /* \"#utility.yul\":12109:12112   */\n      dup3\n        /* \"#utility.yul\":12102:12121   */\n      mstore\n        /* \"#utility.yul\":12154:12158   */\n      0x20\n        /* \"#utility.yul\":12149:12152   */\n      dup3\n        /* \"#utility.yul\":12145:12159   */\n      add\n        /* \"#utility.yul\":12130:12159   */\n      swap1\n      pop\n        /* \"#utility.yul\":11951:12165   */\n      swap3\n      swap2\n      pop\n      pop\n      jump\t// out\n        /* \"#utility.yul\":12171:12333   */\n    tag_285:\n        /* \"#utility.yul\":12268:12272   */\n      0x00\n        /* \"#utility.yul\":12291:12294   */\n      dup2\n        /* \"#utility.yul\":12283:12294   */\n      swap1\n      pop\n        /* \"#utility.yul\":12321:12325   */\n      0x20\n        /* \"#utility.yul\":12316:12319   */\n      dup3\n        /* \"#utility.yul\":12312:12326   */\n      add\n        /* \"#utility.yul\":12304:12326   */\n      swap1\n      pop\n        /* \"#utility.yul\":12171:12333   */\n      swap2\n      swap1\n      pop\n      jump\t// out\n        /* \"#utility.yul\":12339:12447   */\n    tag_286:\n        /* \"#utility.yul\":12416:12440   */\n      tag_455\n        /* \"#utility.yul\":12434:12439   */\n      dup2\n        /* \"#utility.yul\":12416:12440   */\n      tag_258\n      jump\t// in\n    tag_455:\n        /* \"#utility.yul\":12411:12414   */\n      dup3\n        /* \"#utility.yul\":12404:12441   */\n      mstore\n        /* \"#utility.yul\":12339:12447   */\n      pop\n      pop\n      jump\t// out\n        /* \"#utility.yul\":12453:12561   */\n    tag_287:\n        /* \"#utility.yul\":12530:12554   */\n      tag_457\n        /* \"#utility.yul\":12548:12553   */\n      dup2\n        /* \"#utility.yul\":12530:12554   */\n      tag_274\n      jump\t// in\n    tag_457:\n        /* \"#utility.yul\":12525:12528   */\n      dup3\n        /* \"#utility.yul\":12518:12555   */\n      mstore\n        /* \"#utility.yul\":12453:12561   */\n      pop\n      pop\n      jump\t// out\n        /* \"#utility.yul\":12639:13160   */\n    tag_288:\n        /* \"#utility.yul\":12786:12790   */\n      0x40\n        /* \"#utility.yul\":12781:12784   */\n      dup3\n        /* \"#utility.yul\":12777:12791   */\n      add\n        /* \"#utility.yul\":12885:12889   */\n      0x00\n        /* \"#utility.yul\":12878:12883   */\n      dup3\n        /* \"#utility.yul\":12874:12890   */\n      add\n        /* \"#utility.yul\":12868:12891   */\n      mload\n        /* \"#utility.yul\":12904:12967   */\n      tag_459\n        /* \"#utility.yul\":12961:12965   */\n      0x00\n        /* \"#utility.yul\":12956:12959   */\n      dup6\n        /* \"#utility.yul\":12952:12966   */\n      add\n        /* \"#utility.yul\":12938:12950   */\n      dup3\n        /* \"#utility.yul\":12904:12967   */\n      tag_286\n      jump\t// in\n    tag_459:\n        /* \"#utility.yul\":12801:12977   */\n      pop\n        /* \"#utility.yul\":13061:13065   */\n      0x20\n        /* \"#utility.yul\":13054:13059   */\n      dup3\n        /* \"#utility.yul\":13050:13066   */\n      add\n        /* \"#utility.yul\":13044:13067   */\n      mload\n        /* \"#utility.yul\":13080:13143   */\n      tag_460\n        /* \"#utility.yul\":13137:13141   */\n      0x20\n        /* \"#utility.yul\":13132:13135   */\n      dup6\n        /* \"#utility.yul\":13128:13142   */\n      add\n        /* \"#utility.yul\":13114:13126   */\n      dup3\n        /* \"#utility.yul\":13080:13143   */\n      tag_287\n      jump\t// in\n    tag_460:\n        /* \"#utility.yul\":12987:13153   */\n      pop\n        /* \"#utility.yul\":12755:13160   */\n      pop\n        /* \"#utility.yul\":12639:13160   */\n      pop\n      pop\n      jump\t// out\n        /* \"#utility.yul\":13166:13465   */\n    tag_289:\n        /* \"#utility.yul\":13295:13305   */\n      0x00\n        /* \"#utility.yul\":13316:13422   */\n      tag_462\n        /* \"#utility.yul\":13418:13421   */\n      dup4\n        /* \"#utility.yul\":13410:13416   */\n      dup4\n        /* \"#utility.yul\":13316:13422   */\n      tag_288\n      jump\t// in\n    tag_462:\n        /* \"#utility.yul\":13454:13458   */\n      0x40\n        /* \"#utility.yul\":13449:13452   */\n      dup4\n        /* \"#utility.yul\":13445:13459   */\n      add\n        /* \"#utility.yul\":13431:13459   */\n      swap1\n      pop\n        /* \"#utility.yul\":13166:13465   */\n      swap3\n      swap2\n      pop\n      pop\n      jump\t// out\n        /* \"#utility.yul\":13471:13614   */\n    tag_290:\n        /* \"#utility.yul\":13571:13575   */\n      0x00\n        /* \"#utility.yul\":13603:13607   */\n      0x20\n        /* \"#utility.yul\":13598:13601   */\n      dup3\n        /* \"#utility.yul\":13594:13608   */\n      add\n        /* \"#utility.yul\":13586:13608   */\n      swap1\n      pop\n        /* \"#utility.yul\":13471:13614   */\n      swap2\n      swap1\n      pop\n      jump\t// out\n        /* \"#utility.yul\":13696:14668   */\n    tag_291:\n        /* \"#utility.yul\":13875:13878   */\n      0x00\n        /* \"#utility.yul\":13904:13988   */\n      tag_465\n        /* \"#utility.yul\":13982:13987   */\n      dup3\n        /* \"#utility.yul\":13904:13988   */\n      tag_283\n      jump\t// in\n    tag_465:\n        /* \"#utility.yul\":14004:14120   */\n      tag_466\n        /* \"#utility.yul\":14113:14119   */\n      dup2\n        /* \"#utility.yul\":14108:14111   */\n      dup6\n        /* \"#utility.yul\":14004:14120   */\n      tag_284\n      jump\t// in\n    tag_466:\n        /* \"#utility.yul\":13997:14120   */\n      swap4\n      pop\n        /* \"#utility.yul\":14144:14230   */\n      tag_467\n        /* \"#utility.yul\":14224:14229   */\n      dup4\n        /* \"#utility.yul\":14144:14230   */\n      tag_285\n      jump\t// in\n    tag_467:\n        /* \"#utility.yul\":14253:14260   */\n      dup1\n        /* \"#utility.yul\":14284:14285   */\n      0x00\n        /* \"#utility.yul\":14269:14643   */\n    tag_468:\n        /* \"#utility.yul\":14294:14300   */\n      dup4\n        /* \"#utility.yul\":14291:14292   */\n      dup2\n        /* \"#utility.yul\":14288:14301   */\n      lt\n        /* \"#utility.yul\":14269:14643   */\n      iszero\n      tag_470\n      jumpi\n        /* \"#utility.yul\":14370:14376   */\n      dup2\n        /* \"#utility.yul\":14364:14377   */\n      mload\n        /* \"#utility.yul\":14397:14520   */\n      tag_471\n        /* \"#utility.yul\":14516:14519   */\n      dup9\n        /* \"#utility.yul\":14501:14514   */\n      dup3\n        /* \"#utility.yul\":14397:14520   */\n      tag_289\n      jump\t// in\n    tag_471:\n        /* \"#utility.yul\":14390:14520   */\n      swap8\n      pop\n        /* \"#utility.yul\":14543:14633   */\n      tag_472\n        /* \"#utility.yul\":14626:14632   */\n      dup4\n        /* \"#utility.yul\":14543:14633   */\n      tag_290\n      jump\t// in\n    tag_472:\n        /* \"#utility.yul\":14533:14633   */\n      swap3\n      pop\n        /* \"#utility.yul\":14329:14643   */\n      pop\n        /* \"#utility.yul\":14316:14317   */\n      0x01\n        /* \"#utility.yul\":14313:14314   */\n      dup2\n        /* \"#utility.yul\":14309:14318   */\n      add\n        /* \"#utility.yul\":14304:14318   */\n      swap1\n      pop\n        /* \"#utility.yul\":14269:14643   */\n      jump(tag_468)\n    tag_470:\n        /* \"#utility.yul\":14273:14287   */\n      pop\n        /* \"#utility.yul\":14659:14662   */\n      dup6\n        /* \"#utility.yul\":14652:14662   */\n      swap4\n      pop\n        /* \"#utility.yul\":13880:14668   */\n      pop\n      pop\n      pop\n        /* \"#utility.yul\":13696:14668   */\n      swap3\n      swap2\n      pop\n      pop\n      jump\t// out\n        /* \"#utility.yul\":14674:15167   */\n    tag_70:\n        /* \"#utility.yul\":14877:14881   */\n      0x00\n        /* \"#utility.yul\":14915:14917   */\n      0x20\n        /* \"#utility.yul\":14904:14913   */\n      dup3\n        /* \"#utility.yul\":14900:14918   */\n      add\n        /* \"#utility.yul\":14892:14918   */\n      swap1\n      pop\n        /* \"#utility.yul\":14964:14973   */\n      dup2\n        /* \"#utility.yul\":14958:14962   */\n      dup2\n        /* \"#utility.yul\":14954:14974   */\n      sub\n        /* \"#utility.yul\":14950:14951   */\n      0x00\n        /* \"#utility.yul\":14939:14948   */\n      dup4\n        /* \"#utility.yul\":14935:14952   */\n      add\n        /* \"#utility.yul\":14928:14975   */\n      mstore\n        /* \"#utility.yul\":14992:15160   */\n      tag_474\n        /* \"#utility.yul\":15155:15159   */\n      dup2\n        /* \"#utility.yul\":15146:15152   */\n      dup5\n        /* \"#utility.yul\":14992:15160   */\n      tag_291\n      jump\t// in\n    tag_474:\n        /* \"#utility.yul\":14984:15160   */\n      swap1\n      pop\n        /* \"#utility.yul\":14674:15167   */\n      swap3\n      swap2\n      pop\n      pop\n      jump\t// out\n        /* \"#utility.yul\":15173:15295   */\n    tag_292:\n        /* \"#utility.yul\":15246:15270   */\n      tag_476\n        /* \"#utility.yul\":15264:15269   */\n      dup2\n        /* \"#utility.yul\":15246:15270   */\n      tag_274\n      jump\t// in\n    tag_476:\n        /* \"#utility.yul\":15239:15244   */\n      dup2\n        /* \"#utility.yul\":15236:15271   */\n      eq\n        /* \"#utility.yul\":15226:15289   */\n      tag_477\n      jumpi\n        /* \"#utility.yul\":15285:15286   */\n      0x00\n        /* \"#utility.yul\":15282:15283   */\n      0x00\n        /* \"#utility.yul\":15275:15287   */\n      revert\n        /* \"#utility.yul\":15226:15289   */\n    tag_477:\n        /* \"#utility.yul\":15173:15295   */\n      pop\n      jump\t// out\n        /* \"#utility.yul\":15301:15440   */\n    tag_293:\n        /* \"#utility.yul\":15347:15352   */\n      0x00\n        /* \"#utility.yul\":15385:15391   */\n      dup2\n        /* \"#utility.yul\":15372:15392   */\n      calldataload\n        /* \"#utility.yul\":15363:15392   */\n      swap1\n      pop\n        /* \"#utility.yul\":15401:15434   */\n      tag_479\n        /* \"#utility.yul\":15428:15433   */\n      dup2\n        /* \"#utility.yul\":15401:15434   */\n      tag_292\n      jump\t// in\n    tag_479:\n        /* \"#utility.yul\":15301:15440   */\n      swap3\n      swap2\n      pop\n      pop\n      jump\t// out\n        /* \"#utility.yul\":15446:16065   */\n    tag_74:\n        /* \"#utility.yul\":15523:15529   */\n      0x00\n        /* \"#utility.yul\":15531:15537   */\n      0x00\n        /* \"#utility.yul\":15539:15545   */\n      0x00\n        /* \"#utility.yul\":15588:15590   */\n      0x60\n        /* \"#utility.yul\":15576:15585   */\n      dup5\n        /* \"#utility.yul\":15567:15574   */\n      dup7\n        /* \"#utility.yul\":15563:15586   */\n      sub\n        /* \"#utility.yul\":15559:15591   */\n      slt\n        /* \"#utility.yul\":15556:15675   */\n      iszero\n      tag_481\n      jumpi\n        /* \"#utility.yul\":15594:15673   */\n      tag_482\n      tag_249\n      jump\t// in\n    tag_482:\n        /* \"#utility.yul\":15556:15675   */\n    tag_481:\n        /* \"#utility.yul\":15714:15715   */\n      0x00\n        /* \"#utility.yul\":15739:15792   */\n      tag_483\n        /* \"#utility.yul\":15784:15791   */\n      dup7\n        /* \"#utility.yul\":15775:15781   */\n      dup3\n        /* \"#utility.yul\":15764:15773   */\n      dup8\n        /* \"#utility.yul\":15760:15782   */\n      add\n        /* \"#utility.yul\":15739:15792   */\n      tag_260\n      jump\t// in\n    tag_483:\n        /* \"#utility.yul\":15729:15792   */\n      swap4\n      pop\n        /* \"#utility.yul\":15685:15802   */\n      pop\n        /* \"#utility.yul\":15841:15843   */\n      0x20\n        /* \"#utility.yul\":15867:15920   */\n      tag_484\n        /* \"#utility.yul\":15912:15919   */\n      dup7\n        /* \"#utility.yul\":15903:15909   */\n      dup3\n        /* \"#utility.yul\":15892:15901   */\n      dup8\n        /* \"#utility.yul\":15888:15910   */\n      add\n        /* \"#utility.yul\":15867:15920   */\n      tag_260\n      jump\t// in\n    tag_484:\n        /* \"#utility.yul\":15857:15920   */\n      swap3\n      pop\n        /* \"#utility.yul\":15812:15930   */\n      pop\n        /* \"#utility.yul\":15969:15971   */\n      0x40\n        /* \"#utility.yul\":15995:16048   */\n      tag_485\n        /* \"#utility.yul\":16040:16047   */\n      dup7\n        /* \"#utility.yul\":16031:16037   */\n      dup3\n        /* \"#utility.yul\":16020:16029   */\n      dup8\n        /* \"#utility.yul\":16016:16038   */\n      add\n        /* \"#utility.yul\":15995:16048   */\n      tag_293\n      jump\t// in\n    tag_485:\n        /* \"#utility.yul\":15985:16048   */\n      swap2\n      pop\n        /* \"#utility.yul\":15940:16058   */\n      pop\n        /* \"#utility.yul\":15446:16065   */\n      swap3\n      pop\n      swap3\n      pop\n      swap3\n      jump\t// out\n        /* \"#utility.yul\":16071:16251   */\n    tag_294:\n        /* \"#utility.yul\":16119:16196   */\n      0x4e487b7100000000000000000000000000000000000000000000000000000000\n        /* \"#utility.yul\":16116:16117   */\n      0x00\n        /* \"#utility.yul\":16109:16197   */\n      mstore\n        /* \"#utility.yul\":16216:16220   */\n      0x21\n        /* \"#utility.yul\":16213:16214   */\n      0x04\n        /* \"#utility.yul\":16206:16221   */\n      mstore\n        /* \"#utility.yul\":16240:16244   */\n      0x24\n        /* \"#utility.yul\":16237:16238   */\n      0x00\n        /* \"#utility.yul\":16230:16245   */\n      revert\n        /* \"#utility.yul\":16257:16372   */\n    tag_295:\n        /* \"#utility.yul\":16340:16341   */\n      0x07\n        /* \"#utility.yul\":16333:16338   */\n      dup2\n        /* \"#utility.yul\":16330:16342   */\n      lt\n        /* \"#utility.yul\":16320:16366   */\n      tag_488\n      jumpi\n        /* \"#utility.yul\":16346:16364   */\n      tag_489\n      tag_294\n      jump\t// in\n    tag_489:\n        /* \"#utility.yul\":16320:16366   */\n    tag_488:\n        /* \"#utility.yul\":16257:16372   */\n      pop\n      jump\t// out\n        /* \"#utility.yul\":16378:16509   */\n    tag_296:\n        /* \"#utility.yul\":16425:16432   */\n      0x00\n        /* \"#utility.yul\":16454:16459   */\n      dup2\n        /* \"#utility.yul\":16443:16459   */\n      swap1\n      pop\n        /* \"#utility.yul\":16460:16503   */\n      tag_491\n        /* \"#utility.yul\":16497:16502   */\n      dup3\n        /* \"#utility.yul\":16460:16503   */\n      tag_295\n      jump\t// in\n    tag_491:\n        /* \"#utility.yul\":16378:16509   */\n      swap2\n      swap1\n      pop\n      jump\t// out\n        /* \"#utility.yul\":16515:16646   */\n    tag_297:\n        /* \"#utility.yul\":16573:16582   */\n      0x00\n        /* \"#utility.yul\":16606:16640   */\n      tag_493\n        /* \"#utility.yul\":16634:16639   */\n      dup3\n        /* \"#utility.yul\":16606:16640   */\n      tag_296\n      jump\t// in\n    tag_493:\n        /* \"#utility.yul\":16593:16640   */\n      swap1\n      pop\n        /* \"#utility.yul\":16515:16646   */\n      swap2\n      swap1\n      pop\n      jump\t// out\n        /* \"#utility.yul\":16652:16799   */\n    tag_298:\n        /* \"#utility.yul\":16747:16792   */\n      tag_495\n        /* \"#utility.yul\":16786:16791   */\n      dup2\n        /* \"#utility.yul\":16747:16792   */\n      tag_297\n      jump\t// in\n    tag_495:\n        /* \"#utility.yul\":16742:16745   */\n      dup3\n        /* \"#utility.yul\":16735:16793   */\n      mstore\n        /* \"#utility.yul\":16652:16799   */\n      pop\n      pop\n      jump\t// out\n        /* \"#utility.yul\":16805:17043   */\n    tag_85:\n        /* \"#utility.yul\":16906:16910   */\n      0x00\n        /* \"#utility.yul\":16944:16946   */\n      0x20\n        /* \"#utility.yul\":16933:16942   */\n      dup3\n        /* \"#utility.yul\":16929:16947   */\n      add\n        /* \"#utility.yul\":16921:16947   */\n      swap1\n      pop\n        /* \"#utility.yul\":16957:17036   */\n      tag_497\n        /* \"#utility.yul\":17033:17034   */\n      0x00\n        /* \"#utility.yul\":17022:17031   */\n      dup4\n        /* \"#utility.yul\":17018:17035   */\n      add\n        /* \"#utility.yul\":17009:17015   */\n      dup5\n        /* \"#utility.yul\":16957:17036   */\n      tag_298\n      jump\t// in\n    tag_497:\n        /* \"#utility.yul\":16805:17043   */\n      swap3\n      swap2\n      pop\n      pop\n      jump\t// out\n        /* \"#utility.yul\":17049:17701   */\n    tag_89:\n        /* \"#utility.yul\":17126:17132   */\n      0x00\n        /* \"#utility.yul\":17134:17140   */\n      0x00\n        /* \"#utility.yul\":17183:17185   */\n      0x40\n        /* \"#utility.yul\":17171:17180   */\n      dup4\n        /* \"#utility.yul\":17162:17169   */\n      dup6\n        /* \"#utility.yul\":17158:17181   */\n      sub\n        /* \"#utility.yul\":17154:17186   */\n      slt\n        /* \"#utility.yul\":17151:17270   */\n      iszero\n      tag_499\n      jumpi\n        /* \"#utility.yul\":17189:17268   */\n      tag_500\n      tag_249\n      jump\t// in\n    tag_500:\n        /* \"#utility.yul\":17151:17270   */\n    tag_499:\n        /* \"#utility.yul\":17309:17310   */\n      0x00\n        /* \"#utility.yul\":17334:17387   */\n      tag_501\n        /* \"#utility.yul\":17379:17386   */\n      dup6\n        /* \"#utility.yul\":17370:17376   */\n      dup3\n        /* \"#utility.yul\":17359:17368   */\n      dup7\n        /* \"#utility.yul\":17355:17377   */\n      add\n        /* \"#utility.yul\":17334:17387   */\n      tag_293\n      jump\t// in\n    tag_501:\n        /* \"#utility.yul\":17324:17387   */\n      swap3\n      pop\n        /* \"#utility.yul\":17280:17397   */\n      pop\n        /* \"#utility.yul\":17464:17466   */\n      0x20\n        /* \"#utility.yul\":17453:17462   */\n      dup4\n        /* \"#utility.yul\":17449:17467   */\n      add\n        /* \"#utility.yul\":17436:17468   */\n      calldataload\n        /* \"#utility.yul\":17495:17513   */\n      0xffffffffffffffff\n        /* \"#utility.yul\":17487:17493   */\n      dup2\n        /* \"#utility.yul\":17484:17514   */\n      gt\n        /* \"#utility.yul\":17481:17598   */\n      iszero\n      tag_502\n      jumpi\n        /* \"#utility.yul\":17517:17596   */\n      tag_503\n      tag_250\n      jump\t// in\n    tag_503:\n        /* \"#utility.yul\":17481:17598   */\n    tag_502:\n        /* \"#utility.yul\":17622:17684   */\n      tag_504\n        /* \"#utility.yul\":17676:17683   */\n      dup6\n        /* \"#utility.yul\":17667:17673   */\n      dup3\n        /* \"#utility.yul\":17656:17665   */\n      dup7\n        /* \"#utility.yul\":17652:17674   */\n      add\n        /* \"#utility.yul\":17622:17684   */\n      tag_267\n      jump\t// in\n    tag_504:\n        /* \"#utility.yul\":17612:17684   */\n      swap2\n      pop\n        /* \"#utility.yul\":17407:17694   */\n      pop\n        /* \"#utility.yul\":17049:17701   */\n      swap3\n      pop\n      swap3\n      swap1\n      pop\n      jump\t// out\n        /* \"#utility.yul\":17707:18036   */\n    tag_97:\n        /* \"#utility.yul\":17766:17772   */\n      0x00\n        /* \"#utility.yul\":17815:17817   */\n      0x20\n        /* \"#utility.yul\":17803:17812   */\n      dup3\n        /* \"#utility.yul\":17794:17801   */\n      dup5\n        /* \"#utility.yul\":17790:17813   */\n      sub\n        /* \"#utility.yul\":17786:17818   */\n      slt\n        /* \"#utility.yul\":17783:17902   */\n      iszero\n      tag_506\n      jumpi\n        /* \"#utility.yul\":17821:17900   */\n      tag_507\n      tag_249\n      jump\t// in\n    tag_507:\n        /* \"#utility.yul\":17783:17902   */\n    tag_506:\n        /* \"#utility.yul\":17941:17942   */\n      0x00\n        /* \"#utility.yul\":17966:18019   */\n      tag_508\n        /* \"#utility.yul\":18011:18018   */\n      dup5\n        /* \"#utility.yul\":18002:18008   */\n      dup3\n        /* \"#utility.yul\":17991:18000   */\n      dup6\n        /* \"#utility.yul\":17987:18009   */\n      add\n        /* \"#utility.yul\":17966:18019   */\n      tag_293\n      jump\t// in\n    tag_508:\n        /* \"#utility.yul\":17956:18019   */\n      swap2\n      pop\n        /* \"#utility.yul\":17912:18029   */\n      pop\n        /* \"#utility.yul\":17707:18036   */\n      swap3\n      swap2\n      pop\n      pop\n      jump\t// out\n        /* \"#utility.yul\":18042:18222   */\n    tag_145:\n        /* \"#utility.yul\":18090:18167   */\n      0x4e487b7100000000000000000000000000000000000000000000000000000000\n        /* \"#utility.yul\":18087:18088   */\n      0x00\n        /* \"#utility.yul\":18080:18168   */\n      mstore\n        /* \"#utility.yul\":18187:18191   */\n      0x32\n        /* \"#utility.yul\":18184:18185   */\n      0x04\n        /* \"#utility.yul\":18177:18192   */\n      mstore\n        /* \"#utility.yul\":18211:18215   */\n      0x24\n        /* \"#utility.yul\":18208:18209   */\n      0x00\n        /* \"#utility.yul\":18201:18216   */\n      revert\n        /* \"#utility.yul\":18228:18326   */\n    tag_299:\n        /* \"#utility.yul\":18279:18285   */\n      0x00\n        /* \"#utility.yul\":18313:18318   */\n      dup2\n        /* \"#utility.yul\":18307:18319   */\n      mload\n        /* \"#utility.yul\":18297:18319   */\n      swap1\n      pop\n        /* \"#utility.yul\":18228:18326   */\n      swap2\n      swap1\n      pop\n      jump\t// out\n        /* \"#utility.yul\":18332:18500   */\n    tag_300:\n        /* \"#utility.yul\":18415:18426   */\n      0x00\n        /* \"#utility.yul\":18449:18455   */\n      dup3\n        /* \"#utility.yul\":18444:18447   */\n      dup3\n        /* \"#utility.yul\":18437:18456   */\n      mstore\n        /* \"#utility.yul\":18489:18493   */\n      0x20\n        /* \"#utility.yul\":18484:18487   */\n      dup3\n        /* \"#utility.yul\":18480:18494   */\n      add\n        /* \"#utility.yul\":18465:18494   */\n      swap1\n      pop\n        /* \"#utility.yul\":18332:18500   */\n      swap3\n      swap2\n      pop\n      pop\n      jump\t// out\n        /* \"#utility.yul\":18506:18645   */\n    tag_301:\n        /* \"#utility.yul\":18595:18601   */\n      dup3\n        /* \"#utility.yul\":18590:18593   */\n      dup2\n        /* \"#utility.yul\":18585:18588   */\n      dup4\n        /* \"#utility.yul\":18579:18602   */\n      mcopy\n        /* \"#utility.yul\":18636:18637   */\n      0x00\n        /* \"#utility.yul\":18627:18633   */\n      dup4\n        /* \"#utility.yul\":18622:18625   */\n      dup4\n        /* \"#utility.yul\":18618:18634   */\n      add\n        /* \"#utility.yul\":18611:18638   */\n      mstore\n        /* \"#utility.yul\":18506:18645   */\n      pop\n      pop\n      pop\n      jump\t// out\n        /* \"#utility.yul\":18651:19024   */\n    tag_302:\n        /* \"#utility.yul\":18737:18740   */\n      0x00\n        /* \"#utility.yul\":18765:18803   */\n      tag_514\n        /* \"#utility.yul\":18797:18802   */\n      dup3\n        /* \"#utility.yul\":18765:18803   */\n      tag_299\n      jump\t// in\n    tag_514:\n        /* \"#utility.yul\":18819:18889   */\n      tag_515\n        /* \"#utility.yul\":18882:18888   */\n      dup2\n        /* \"#utility.yul\":18877:18880   */\n      dup6\n        /* \"#utility.yul\":18819:18889   */\n      tag_300\n      jump\t// in\n    tag_515:\n        /* \"#utility.yul\":18812:18889   */\n      swap4\n      pop\n        /* \"#utility.yul\":18898:18963   */\n      tag_516\n        /* \"#utility.yul\":18956:18962   */\n      dup2\n        /* \"#utility.yul\":18951:18954   */\n      dup6\n        /* \"#utility.yul\":18944:18948   */\n      0x20\n        /* \"#utility.yul\":18937:18942   */\n      dup7\n        /* \"#utility.yul\":18933:18949   */\n      add\n        /* \"#utility.yul\":18898:18963   */\n      tag_301\n      jump\t// in\n    tag_516:\n        /* \"#utility.yul\":18988:19017   */\n      tag_517\n        /* \"#utility.yul\":19010:19016   */\n      dup2\n        /* \"#utility.yul\":18988:19017   */\n      tag_252\n      jump\t// in\n    tag_517:\n        /* \"#utility.yul\":18983:18986   */\n      dup5\n        /* \"#utility.yul\":18979:19018   */\n      add\n        /* \"#utility.yul\":18972:19018   */\n      swap2\n      pop\n        /* \"#utility.yul\":18741:19024   */\n      pop\n        /* \"#utility.yul\":18651:19024   */\n      swap3\n      swap2\n      pop\n      pop\n      jump\t// out\n        /* \"#utility.yul\":19030:19449   */\n    tag_167:\n        /* \"#utility.yul\":19169:19173   */\n      0x00\n        /* \"#utility.yul\":19207:19209   */\n      0x40\n        /* \"#utility.yul\":19196:19205   */\n      dup3\n        /* \"#utility.yul\":19192:19210   */\n      add\n        /* \"#utility.yul\":19184:19210   */\n      swap1\n      pop\n        /* \"#utility.yul\":19220:19291   */\n      tag_519\n        /* \"#utility.yul\":19288:19289   */\n      0x00\n        /* \"#utility.yul\":19277:19286   */\n      dup4\n        /* \"#utility.yul\":19273:19290   */\n      add\n        /* \"#utility.yul\":19264:19270   */\n      dup6\n        /* \"#utility.yul\":19220:19291   */\n      tag_275\n      jump\t// in\n    tag_519:\n        /* \"#utility.yul\":19338:19347   */\n      dup2\n        /* \"#utility.yul\":19332:19336   */\n      dup2\n        /* \"#utility.yul\":19328:19348   */\n      sub\n        /* \"#utility.yul\":19323:19325   */\n      0x20\n        /* \"#utility.yul\":19312:19321   */\n      dup4\n        /* \"#utility.yul\":19308:19326   */\n      add\n        /* \"#utility.yul\":19301:19349   */\n      mstore\n        /* \"#utility.yul\":19366:19442   */\n      tag_520\n        /* \"#utility.yul\":19437:19441   */\n      dup2\n        /* \"#utility.yul\":19428:19434   */\n      dup5\n        /* \"#utility.yul\":19366:19442   */\n      tag_302\n      jump\t// in\n    tag_520:\n        /* \"#utility.yul\":19358:19442   */\n      swap1\n      pop\n        /* \"#utility.yul\":19030:19449   */\n      swap4\n      swap3\n      pop\n      pop\n      pop\n      jump\t// out\n        /* \"#utility.yul\":19455:19635   */\n    tag_303:\n        /* \"#utility.yul\":19503:19580   */\n      0x4e487b7100000000000000000000000000000000000000000000000000000000\n        /* \"#utility.yul\":19500:19501   */\n      0x00\n        /* \"#utility.yul\":19493:19581   */\n      mstore\n        /* \"#utility.yul\":19600:19604   */\n      0x11\n        /* \"#utility.yul\":19597:19598   */\n      0x04\n        /* \"#utility.yul\":19590:19605   */\n      mstore\n        /* \"#utility.yul\":19624:19628   */\n      0x24\n        /* \"#utility.yul\":19621:19622   */\n      0x00\n        /* \"#utility.yul\":19614:19629   */\n      revert\n        /* \"#utility.yul\":19641:19832   */\n    tag_185:\n        /* \"#utility.yul\":19681:19684   */\n      0x00\n        /* \"#utility.yul\":19700:19720   */\n      tag_523\n        /* \"#utility.yul\":19718:19719   */\n      dup3\n        /* \"#utility.yul\":19700:19720   */\n      tag_274\n      jump\t// in\n    tag_523:\n        /* \"#utility.yul\":19695:19720   */\n      swap2\n      pop\n        /* \"#utility.yul\":19734:19754   */\n      tag_524\n        /* \"#utility.yul\":19752:19753   */\n      dup4\n        /* \"#utility.yul\":19734:19754   */\n      tag_274\n      jump\t// in\n    tag_524:\n        /* \"#utility.yul\":19729:19754   */\n      swap3\n      pop\n        /* \"#utility.yul\":19777:19778   */\n      dup3\n        /* \"#utility.yul\":19774:19775   */\n      dup3\n        /* \"#utility.yul\":19770:19779   */\n      add\n        /* \"#utility.yul\":19763:19779   */\n      swap1\n      pop\n        /* \"#utility.yul\":19798:19801   */\n      dup1\n        /* \"#utility.yul\":19795:19796   */\n      dup3\n        /* \"#utility.yul\":19792:19802   */\n      gt\n        /* \"#utility.yul\":19789:19825   */\n      iszero\n      tag_525\n      jumpi\n        /* \"#utility.yul\":19805:19823   */\n      tag_526\n      tag_303\n      jump\t// in\n    tag_526:\n        /* \"#utility.yul\":19789:19825   */\n    tag_525:\n        /* \"#utility.yul\":19641:19832   */\n      swap3\n      swap2\n      pop\n      pop\n      jump\t// out\n        /* \"#utility.yul\":19838:20170   */\n    tag_203:\n        /* \"#utility.yul\":19959:19963   */\n      0x00\n        /* \"#utility.yul\":19997:19999   */\n      0x40\n        /* \"#utility.yul\":19986:19995   */\n      dup3\n        /* \"#utility.yul\":19982:20000   */\n      add\n        /* \"#utility.yul\":19974:20000   */\n      swap1\n      pop\n        /* \"#utility.yul\":20010:20081   */\n      tag_528\n        /* \"#utility.yul\":20078:20079   */\n      0x00\n        /* \"#utility.yul\":20067:20076   */\n      dup4\n        /* \"#utility.yul\":20063:20080   */\n      add\n        /* \"#utility.yul\":20054:20060   */\n      dup6\n        /* \"#utility.yul\":20010:20081   */\n      tag_275\n      jump\t// in\n    tag_528:\n        /* \"#utility.yul\":20091:20163   */\n      tag_529\n        /* \"#utility.yul\":20159:20161   */\n      0x20\n        /* \"#utility.yul\":20148:20157   */\n      dup4\n        /* \"#utility.yul\":20144:20162   */\n      add\n        /* \"#utility.yul\":20135:20141   */\n      dup5\n        /* \"#utility.yul\":20091:20163   */\n      tag_273\n      jump\t// in\n    tag_529:\n        /* \"#utility.yul\":19838:20170   */\n      swap4\n      swap3\n      pop\n      pop\n      pop\n      jump\t// out\n        /* \"#utility.yul\":20176:20292   */\n    tag_304:\n        /* \"#utility.yul\":20246:20267   */\n      tag_531\n        /* \"#utility.yul\":20261:20266   */\n      dup2\n        /* \"#utility.yul\":20246:20267   */\n      tag_278\n      jump\t// in\n    tag_531:\n        /* \"#utility.yul\":20239:20244   */\n      dup2\n        /* \"#utility.yul\":20236:20268   */\n      eq\n        /* \"#utility.yul\":20226:20286   */\n      tag_532\n      jumpi\n        /* \"#utility.yul\":20282:20283   */\n      0x00\n        /* \"#utility.yul\":20279:20280   */\n      0x00\n        /* \"#utility.yul\":20272:20284   */\n      revert\n        /* \"#utility.yul\":20226:20286   */\n    tag_532:\n        /* \"#utility.yul\":20176:20292   */\n      pop\n      jump\t// out\n        /* \"#utility.yul\":20298:20435   */\n    tag_305:\n        /* \"#utility.yul\":20352:20357   */\n      0x00\n        /* \"#utility.yul\":20383:20389   */\n      dup2\n        /* \"#utility.yul\":20377:20390   */\n      mload\n        /* \"#utility.yul\":20368:20390   */\n      swap1\n      pop\n        /* \"#utility.yul\":20399:20429   */\n      tag_534\n        /* \"#utility.yul\":20423:20428   */\n      dup2\n        /* \"#utility.yul\":20399:20429   */\n      tag_304\n      jump\t// in\n    tag_534:\n        /* \"#utility.yul\":20298:20435   */\n      swap3\n      swap2\n      pop\n      pop\n      jump\t// out\n        /* \"#utility.yul\":20441:20786   */\n    tag_207:\n        /* \"#utility.yul\":20508:20514   */\n      0x00\n        /* \"#utility.yul\":20557:20559   */\n      0x20\n        /* \"#utility.yul\":20545:20554   */\n      dup3\n        /* \"#utility.yul\":20536:20543   */\n      dup5\n        /* \"#utility.yul\":20532:20555   */\n      sub\n        /* \"#utility.yul\":20528:20560   */\n      slt\n        /* \"#utility.yul\":20525:20644   */\n      iszero\n      tag_536\n      jumpi\n        /* \"#utility.yul\":20563:20642   */\n      tag_537\n      tag_249\n      jump\t// in\n    tag_537:\n        /* \"#utility.yul\":20525:20644   */\n    tag_536:\n        /* \"#utility.yul\":20683:20684   */\n      0x00\n        /* \"#utility.yul\":20708:20769   */\n      tag_538\n        /* \"#utility.yul\":20761:20768   */\n      dup5\n        /* \"#utility.yul\":20752:20758   */\n      dup3\n        /* \"#utility.yul\":20741:20750   */\n      dup6\n        /* \"#utility.yul\":20737:20759   */\n      add\n        /* \"#utility.yul\":20708:20769   */\n      tag_305\n      jump\t// in\n    tag_538:\n        /* \"#utility.yul\":20698:20769   */\n      swap2\n      pop\n        /* \"#utility.yul\":20654:20779   */\n      pop\n        /* \"#utility.yul\":20441:20786   */\n      swap3\n      swap2\n      pop\n      pop\n      jump\t// out\n        /* \"#utility.yul\":20792:20935   */\n    tag_306:\n        /* \"#utility.yul\":20849:20854   */\n      0x00\n        /* \"#utility.yul\":20880:20886   */\n      dup2\n        /* \"#utility.yul\":20874:20887   */\n      mload\n        /* \"#utility.yul\":20865:20887   */\n      swap1\n      pop\n        /* \"#utility.yul\":20896:20929   */\n      tag_540\n        /* \"#utility.yul\":20923:20928   */\n      dup2\n        /* \"#utility.yul\":20896:20929   */\n      tag_259\n      jump\t// in\n    tag_540:\n        /* \"#utility.yul\":20792:20935   */\n      swap3\n      swap2\n      pop\n      pop\n      jump\t// out\n        /* \"#utility.yul\":20958:21690   */\n    tag_307:\n        /* \"#utility.yul\":21065:21070   */\n      0x00\n        /* \"#utility.yul\":21090:21171   */\n      tag_542\n        /* \"#utility.yul\":21106:21170   */\n      tag_543\n        /* \"#utility.yul\":21163:21169   */\n      dup5\n        /* \"#utility.yul\":21106:21170   */\n      tag_255\n      jump\t// in\n    tag_543:\n        /* \"#utility.yul\":21090:21171   */\n      tag_254\n      jump\t// in\n    tag_542:\n        /* \"#utility.yul\":21081:21171   */\n      swap1\n      pop\n        /* \"#utility.yul\":21191:21196   */\n      dup1\n        /* \"#utility.yul\":21220:21226   */\n      dup4\n        /* \"#utility.yul\":21213:21218   */\n      dup3\n        /* \"#utility.yul\":21206:21227   */\n      mstore\n        /* \"#utility.yul\":21254:21258   */\n      0x20\n        /* \"#utility.yul\":21247:21252   */\n      dup3\n        /* \"#utility.yul\":21243:21259   */\n      add\n        /* \"#utility.yul\":21236:21259   */\n      swap1\n      pop\n        /* \"#utility.yul\":21307:21311   */\n      0x20\n        /* \"#utility.yul\":21299:21305   */\n      dup5\n        /* \"#utility.yul\":21295:21312   */\n      mul\n        /* \"#utility.yul\":21287:21293   */\n      dup4\n        /* \"#utility.yul\":21283:21313   */\n      add\n        /* \"#utility.yul\":21336:21339   */\n      dup6\n        /* \"#utility.yul\":21328:21334   */\n      dup2\n        /* \"#utility.yul\":21325:21340   */\n      gt\n        /* \"#utility.yul\":21322:21444   */\n      iszero\n      tag_544\n      jumpi\n        /* \"#utility.yul\":21355:21434   */\n      tag_545\n      tag_256\n      jump\t// in\n    tag_545:\n        /* \"#utility.yul\":21322:21444   */\n    tag_544:\n        /* \"#utility.yul\":21470:21476   */\n      dup4\n        /* \"#utility.yul\":21453:21684   */\n    tag_546:\n        /* \"#utility.yul\":21487:21493   */\n      dup2\n        /* \"#utility.yul\":21482:21485   */\n      dup2\n        /* \"#utility.yul\":21479:21494   */\n      lt\n        /* \"#utility.yul\":21453:21684   */\n      iszero\n      tag_548\n      jumpi\n        /* \"#utility.yul\":21562:21565   */\n      dup1\n        /* \"#utility.yul\":21591:21639   */\n      tag_549\n        /* \"#utility.yul\":21635:21638   */\n      dup9\n        /* \"#utility.yul\":21623:21633   */\n      dup3\n        /* \"#utility.yul\":21591:21639   */\n      tag_306\n      jump\t// in\n    tag_549:\n        /* \"#utility.yul\":21586:21589   */\n      dup5\n        /* \"#utility.yul\":21579:21640   */\n      mstore\n        /* \"#utility.yul\":21669:21673   */\n      0x20\n        /* \"#utility.yul\":21664:21667   */\n      dup5\n        /* \"#utility.yul\":21660:21674   */\n      add\n        /* \"#utility.yul\":21653:21674   */\n      swap4\n      pop\n        /* \"#utility.yul\":21529:21684   */\n      pop\n        /* \"#utility.yul\":21513:21517   */\n      0x20\n        /* \"#utility.yul\":21508:21511   */\n      dup2\n        /* \"#utility.yul\":21504:21518   */\n      add\n        /* \"#utility.yul\":21497:21518   */\n      swap1\n      pop\n        /* \"#utility.yul\":21453:21684   */\n      jump(tag_546)\n    tag_548:\n        /* \"#utility.yul\":21457:21478   */\n      pop\n        /* \"#utility.yul\":21071:21690   */\n      pop\n      pop\n        /* \"#utility.yul\":20958:21690   */\n      swap4\n      swap3\n      pop\n      pop\n      pop\n      jump\t// out\n        /* \"#utility.yul\":21713:22098   */\n    tag_308:\n        /* \"#utility.yul\":21795:21800   */\n      0x00\n        /* \"#utility.yul\":21844:21847   */\n      dup3\n        /* \"#utility.yul\":21837:21841   */\n      0x1f\n        /* \"#utility.yul\":21829:21835   */\n      dup4\n        /* \"#utility.yul\":21825:21842   */\n      add\n        /* \"#utility.yul\":21821:21848   */\n      slt\n        /* \"#utility.yul\":21811:21933   */\n      tag_551\n      jumpi\n        /* \"#utility.yul\":21852:21931   */\n      tag_552\n      tag_251\n      jump\t// in\n    tag_552:\n        /* \"#utility.yul\":21811:21933   */\n    tag_551:\n        /* \"#utility.yul\":21962:21968   */\n      dup2\n        /* \"#utility.yul\":21956:21969   */\n      mload\n        /* \"#utility.yul\":21987:22092   */\n      tag_553\n        /* \"#utility.yul\":22088:22091   */\n      dup5\n        /* \"#utility.yul\":22080:22086   */\n      dup3\n        /* \"#utility.yul\":22073:22077   */\n      0x20\n        /* \"#utility.yul\":22065:22071   */\n      dup7\n        /* \"#utility.yul\":22061:22078   */\n      add\n        /* \"#utility.yul\":21987:22092   */\n      tag_307\n      jump\t// in\n    tag_553:\n        /* \"#utility.yul\":21978:22092   */\n      swap2\n      pop\n        /* \"#utility.yul\":21801:22098   */\n      pop\n        /* \"#utility.yul\":21713:22098   */\n      swap3\n      swap2\n      pop\n      pop\n      jump\t// out\n        /* \"#utility.yul\":22104:22415   */\n    tag_309:\n        /* \"#utility.yul\":22181:22185   */\n      0x00\n        /* \"#utility.yul\":22271:22289   */\n      0xffffffffffffffff\n        /* \"#utility.yul\":22263:22269   */\n      dup3\n        /* \"#utility.yul\":22260:22290   */\n      gt\n        /* \"#utility.yul\":22257:22313   */\n      iszero\n      tag_555\n      jumpi\n        /* \"#utility.yul\":22293:22311   */\n      tag_556\n      tag_134\n      jump\t// in\n    tag_556:\n        /* \"#utility.yul\":22257:22313   */\n    tag_555:\n        /* \"#utility.yul\":22343:22347   */\n      0x20\n        /* \"#utility.yul\":22335:22341   */\n      dup3\n        /* \"#utility.yul\":22331:22348   */\n      mul\n        /* \"#utility.yul\":22323:22348   */\n      swap1\n      pop\n        /* \"#utility.yul\":22403:22407   */\n      0x20\n        /* \"#utility.yul\":22397:22401   */\n      dup2\n        /* \"#utility.yul\":22393:22408   */\n      add\n        /* \"#utility.yul\":22385:22408   */\n      swap1\n      pop\n        /* \"#utility.yul\":22104:22415   */\n      swap2\n      swap1\n      pop\n      jump\t// out\n        /* \"#utility.yul\":22421:22564   */\n    tag_310:\n        /* \"#utility.yul\":22478:22483   */\n      0x00\n        /* \"#utility.yul\":22509:22515   */\n      dup2\n        /* \"#utility.yul\":22503:22516   */\n      mload\n        /* \"#utility.yul\":22494:22516   */\n      swap1\n      pop\n        /* \"#utility.yul\":22525:22558   */\n      tag_558\n        /* \"#utility.yul\":22552:22557   */\n      dup2\n        /* \"#utility.yul\":22525:22558   */\n      tag_292\n      jump\t// in\n    tag_558:\n        /* \"#utility.yul\":22421:22564   */\n      swap3\n      swap2\n      pop\n      pop\n      jump\t// out\n        /* \"#utility.yul\":22587:23319   */\n    tag_311:\n        /* \"#utility.yul\":22694:22699   */\n      0x00\n        /* \"#utility.yul\":22719:22800   */\n      tag_560\n        /* \"#utility.yul\":22735:22799   */\n      tag_561\n        /* \"#utility.yul\":22792:22798   */\n      dup5\n        /* \"#utility.yul\":22735:22799   */\n      tag_309\n      jump\t// in\n    tag_561:\n        /* \"#utility.yul\":22719:22800   */\n      tag_254\n      jump\t// in\n    tag_560:\n        /* \"#utility.yul\":22710:22800   */\n      swap1\n      pop\n        /* \"#utility.yul\":22820:22825   */\n      dup1\n        /* \"#utility.yul\":22849:22855   */\n      dup4\n        /* \"#utility.yul\":22842:22847   */\n      dup3\n        /* \"#utility.yul\":22835:22856   */\n      mstore\n        /* \"#utility.yul\":22883:22887   */\n      0x20\n        /* \"#utility.yul\":22876:22881   */\n      dup3\n        /* \"#utility.yul\":22872:22888   */\n      add\n        /* \"#utility.yul\":22865:22888   */\n      swap1\n      pop\n        /* \"#utility.yul\":22936:22940   */\n      0x20\n        /* \"#utility.yul\":22928:22934   */\n      dup5\n        /* \"#utility.yul\":22924:22941   */\n      mul\n        /* \"#utility.yul\":22916:22922   */\n      dup4\n        /* \"#utility.yul\":22912:22942   */\n      add\n        /* \"#utility.yul\":22965:22968   */\n      dup6\n        /* \"#utility.yul\":22957:22963   */\n      dup2\n        /* \"#utility.yul\":22954:22969   */\n      gt\n        /* \"#utility.yul\":22951:23073   */\n      iszero\n      tag_562\n      jumpi\n        /* \"#utility.yul\":22984:23063   */\n      tag_563\n      tag_256\n      jump\t// in\n    tag_563:\n        /* \"#utility.yul\":22951:23073   */\n    tag_562:\n        /* \"#utility.yul\":23099:23105   */\n      dup4\n        /* \"#utility.yul\":23082:23313   */\n    tag_564:\n        /* \"#utility.yul\":23116:23122   */\n      dup2\n        /* \"#utility.yul\":23111:23114   */\n      dup2\n        /* \"#utility.yul\":23108:23123   */\n      lt\n        /* \"#utility.yul\":23082:23313   */\n      iszero\n      tag_566\n      jumpi\n        /* \"#utility.yul\":23191:23194   */\n      dup1\n        /* \"#utility.yul\":23220:23268   */\n      tag_567\n        /* \"#utility.yul\":23264:23267   */\n      dup9\n        /* \"#utility.yul\":23252:23262   */\n      dup3\n        /* \"#utility.yul\":23220:23268   */\n      tag_310\n      jump\t// in\n    tag_567:\n        /* \"#utility.yul\":23215:23218   */\n      dup5\n        /* \"#utility.yul\":23208:23269   */\n      mstore\n        /* \"#utility.yul\":23298:23302   */\n      0x20\n        /* \"#utility.yul\":23293:23296   */\n      dup5\n        /* \"#utility.yul\":23289:23303   */\n      add\n        /* \"#utility.yul\":23282:23303   */\n      swap4\n      pop\n        /* \"#utility.yul\":23158:23313   */\n      pop\n        /* \"#utility.yul\":23142:23146   */\n      0x20\n        /* \"#utility.yul\":23137:23140   */\n      dup2\n        /* \"#utility.yul\":23133:23147   */\n      add\n        /* \"#utility.yul\":23126:23147   */\n      swap1\n      pop\n        /* \"#utility.yul\":23082:23313   */\n      jump(tag_564)\n    tag_566:\n        /* \"#utility.yul\":23086:23107   */\n      pop\n        /* \"#utility.yul\":22700:23319   */\n      pop\n      pop\n        /* \"#utility.yul\":22587:23319   */\n      swap4\n      swap3\n      pop\n      pop\n      pop\n      jump\t// out\n        /* \"#utility.yul\":23342:23727   */\n    tag_312:\n        /* \"#utility.yul\":23424:23429   */\n      0x00\n        /* \"#utility.yul\":23473:23476   */\n      dup3\n        /* \"#utility.yul\":23466:23470   */\n      0x1f\n        /* \"#utility.yul\":23458:23464   */\n      dup4\n        /* \"#utility.yul\":23454:23471   */\n      add\n        /* \"#utility.yul\":23450:23477   */\n      slt\n        /* \"#utility.yul\":23440:23562   */\n      tag_569\n      jumpi\n        /* \"#utility.yul\":23481:23560   */\n      tag_570\n      tag_251\n      jump\t// in\n    tag_570:\n        /* \"#utility.yul\":23440:23562   */\n    tag_569:\n        /* \"#utility.yul\":23591:23597   */\n      dup2\n        /* \"#utility.yul\":23585:23598   */\n      mload\n        /* \"#utility.yul\":23616:23721   */\n      tag_571\n        /* \"#utility.yul\":23717:23720   */\n      dup5\n        /* \"#utility.yul\":23709:23715   */\n      dup3\n        /* \"#utility.yul\":23702:23706   */\n      0x20\n        /* \"#utility.yul\":23694:23700   */\n      dup7\n        /* \"#utility.yul\":23690:23707   */\n      add\n        /* \"#utility.yul\":23616:23721   */\n      tag_311\n      jump\t// in\n    tag_571:\n        /* \"#utility.yul\":23607:23721   */\n      swap2\n      pop\n        /* \"#utility.yul\":23430:23727   */\n      pop\n        /* \"#utility.yul\":23342:23727   */\n      swap3\n      swap2\n      pop\n      pop\n      jump\t// out\n        /* \"#utility.yul\":23733:23837   */\n    tag_313:\n        /* \"#utility.yul\":23778:23785   */\n      0x00\n        /* \"#utility.yul\":23807:23831   */\n      tag_573\n        /* \"#utility.yul\":23825:23830   */\n      dup3\n        /* \"#utility.yul\":23807:23831   */\n      tag_257\n      jump\t// in\n    tag_573:\n        /* \"#utility.yul\":23796:23831   */\n      swap1\n      pop\n        /* \"#utility.yul\":23733:23837   */\n      swap2\n      swap1\n      pop\n      jump\t// out\n        /* \"#utility.yul\":23843:23981   */\n    tag_314:\n        /* \"#utility.yul\":23924:23956   */\n      tag_575\n        /* \"#utility.yul\":23950:23955   */\n      dup2\n        /* \"#utility.yul\":23924:23956   */\n      tag_313\n      jump\t// in\n    tag_575:\n        /* \"#utility.yul\":23917:23922   */\n      dup2\n        /* \"#utility.yul\":23914:23957   */\n      eq\n        /* \"#utility.yul\":23904:23975   */\n      tag_576\n      jumpi\n        /* \"#utility.yul\":23971:23972   */\n      0x00\n        /* \"#utility.yul\":23968:23969   */\n      0x00\n        /* \"#utility.yul\":23961:23973   */\n      revert\n        /* \"#utility.yul\":23904:23975   */\n    tag_576:\n        /* \"#utility.yul\":23843:23981   */\n      pop\n      jump\t// out\n        /* \"#utility.yul\":23987:24146   */\n    tag_315:\n        /* \"#utility.yul\":24052:24057   */\n      0x00\n        /* \"#utility.yul\":24083:24089   */\n      dup2\n        /* \"#utility.yul\":24077:24090   */\n      mload\n        /* \"#utility.yul\":24068:24090   */\n      swap1\n      pop\n        /* \"#utility.yul\":24099:24140   */\n      tag_578\n        /* \"#utility.yul\":24134:24139   */\n      dup2\n        /* \"#utility.yul\":24099:24140   */\n      tag_314\n      jump\t// in\n    tag_578:\n        /* \"#utility.yul\":23987:24146   */\n      swap3\n      swap2\n      pop\n      pop\n      jump\t// out\n        /* \"#utility.yul\":24152:25237   */\n    tag_228:\n        /* \"#utility.yul\":24298:24304   */\n      0x00\n        /* \"#utility.yul\":24306:24312   */\n      0x00\n        /* \"#utility.yul\":24314:24320   */\n      0x00\n        /* \"#utility.yul\":24363:24365   */\n      0x60\n        /* \"#utility.yul\":24351:24360   */\n      dup5\n        /* \"#utility.yul\":24342:24349   */\n      dup7\n        /* \"#utility.yul\":24338:24361   */\n      sub\n        /* \"#utility.yul\":24334:24366   */\n      slt\n        /* \"#utility.yul\":24331:24450   */\n      iszero\n      tag_580\n      jumpi\n        /* \"#utility.yul\":24369:24448   */\n      tag_581\n      tag_249\n      jump\t// in\n    tag_581:\n        /* \"#utility.yul\":24331:24450   */\n    tag_580:\n        /* \"#utility.yul\":24510:24511   */\n      0x00\n        /* \"#utility.yul\":24499:24508   */\n      dup5\n        /* \"#utility.yul\":24495:24512   */\n      add\n        /* \"#utility.yul\":24489:24513   */\n      mload\n        /* \"#utility.yul\":24540:24558   */\n      0xffffffffffffffff\n        /* \"#utility.yul\":24532:24538   */\n      dup2\n        /* \"#utility.yul\":24529:24559   */\n      gt\n        /* \"#utility.yul\":24526:24643   */\n      iszero\n      tag_582\n      jumpi\n        /* \"#utility.yul\":24562:24641   */\n      tag_583\n      tag_250\n      jump\t// in\n    tag_583:\n        /* \"#utility.yul\":24526:24643   */\n    tag_582:\n        /* \"#utility.yul\":24667:24756   */\n      tag_584\n        /* \"#utility.yul\":24748:24755   */\n      dup7\n        /* \"#utility.yul\":24739:24745   */\n      dup3\n        /* \"#utility.yul\":24728:24737   */\n      dup8\n        /* \"#utility.yul\":24724:24746   */\n      add\n        /* \"#utility.yul\":24667:24756   */\n      tag_308\n      jump\t// in\n    tag_584:\n        /* \"#utility.yul\":24657:24756   */\n      swap4\n      pop\n        /* \"#utility.yul\":24460:24766   */\n      pop\n        /* \"#utility.yul\":24826:24828   */\n      0x20\n        /* \"#utility.yul\":24815:24824   */\n      dup5\n        /* \"#utility.yul\":24811:24829   */\n      add\n        /* \"#utility.yul\":24805:24830   */\n      mload\n        /* \"#utility.yul\":24857:24875   */\n      0xffffffffffffffff\n        /* \"#utility.yul\":24849:24855   */\n      dup2\n        /* \"#utility.yul\":24846:24876   */\n      gt\n        /* \"#utility.yul\":24843:24960   */\n      iszero\n      tag_585\n      jumpi\n        /* \"#utility.yul\":24879:24958   */\n      tag_586\n      tag_250\n      jump\t// in\n    tag_586:\n        /* \"#utility.yul\":24843:24960   */\n    tag_585:\n        /* \"#utility.yul\":24984:25073   */\n      tag_587\n        /* \"#utility.yul\":25065:25072   */\n      dup7\n        /* \"#utility.yul\":25056:25062   */\n      dup3\n        /* \"#utility.yul\":25045:25054   */\n      dup8\n        /* \"#utility.yul\":25041:25063   */\n      add\n        /* \"#utility.yul\":24984:25073   */\n      tag_312\n      jump\t// in\n    tag_587:\n        /* \"#utility.yul\":24974:25073   */\n      swap3\n      pop\n        /* \"#utility.yul\":24776:25083   */\n      pop\n        /* \"#utility.yul\":25122:25124   */\n      0x40\n        /* \"#utility.yul\":25148:25220   */\n      tag_588\n        /* \"#utility.yul\":25212:25219   */\n      dup7\n        /* \"#utility.yul\":25203:25209   */\n      dup3\n        /* \"#utility.yul\":25192:25201   */\n      dup8\n        /* \"#utility.yul\":25188:25210   */\n      add\n        /* \"#utility.yul\":25148:25220   */\n      tag_315\n      jump\t// in\n    tag_588:\n        /* \"#utility.yul\":25138:25220   */\n      swap2\n      pop\n        /* \"#utility.yul\":25093:25230   */\n      pop\n        /* \"#utility.yul\":24152:25237   */\n      swap3\n      pop\n      swap3\n      pop\n      swap3\n      jump\t// out\n        /* \"#utility.yul\":25243:25685   */\n    tag_240:\n        /* \"#utility.yul\":25392:25396   */\n      0x00\n        /* \"#utility.yul\":25430:25432   */\n      0x60\n        /* \"#utility.yul\":25419:25428   */\n      dup3\n        /* \"#utility.yul\":25415:25433   */\n      add\n        /* \"#utility.yul\":25407:25433   */\n      swap1\n      pop\n        /* \"#utility.yul\":25443:25514   */\n      tag_590\n        /* \"#utility.yul\":25511:25512   */\n      0x00\n        /* \"#utility.yul\":25500:25509   */\n      dup4\n        /* \"#utility.yul\":25496:25513   */\n      add\n        /* \"#utility.yul\":25487:25493   */\n      dup7\n        /* \"#utility.yul\":25443:25514   */\n      tag_275\n      jump\t// in\n    tag_590:\n        /* \"#utility.yul\":25524:25596   */\n      tag_591\n        /* \"#utility.yul\":25592:25594   */\n      0x20\n        /* \"#utility.yul\":25581:25590   */\n      dup4\n        /* \"#utility.yul\":25577:25595   */\n      add\n        /* \"#utility.yul\":25568:25574   */\n      dup6\n        /* \"#utility.yul\":25524:25596   */\n      tag_273\n      jump\t// in\n    tag_591:\n        /* \"#utility.yul\":25606:25678   */\n      tag_592\n        /* \"#utility.yul\":25674:25676   */\n      0x40\n        /* \"#utility.yul\":25663:25672   */\n      dup4\n        /* \"#utility.yul\":25659:25677   */\n      add\n        /* \"#utility.yul\":25650:25656   */\n      dup5\n        /* \"#utility.yul\":25606:25678   */\n      tag_273\n      jump\t// in\n    tag_592:\n        /* \"#utility.yul\":25243:25685   */\n      swap5\n      swap4\n      pop\n      pop\n      pop\n      pop\n      jump\t// out\n\n    auxdata: 0xa264697066735822122012c4e530567e7b87f67a652e44161d8493261144681370f393508b81a2e1a38964736f6c634300081b0033\n}\n",
				"bytecode": {
					"linkReferences": {},
					"object": "60c060405234801561000f575f5ffd5b50604051611c4f380380611c4f83398181016040528101906100319190610245565b81818173ffffffffffffffffffffffffffffffffffffffff1660808173ffffffffffffffffffffffffffffffffffffffff16815250508060405160200161007891906102f1565b6040516020818303038152906040528051906020012060a0818152505050505050610311565b5f604051905090565b5f5ffd5b5f5ffd5b5f73ffffffffffffffffffffffffffffffffffffffff82169050919050565b5f6100d8826100af565b9050919050565b6100e8816100ce565b81146100f2575f5ffd5b50565b5f81519050610103816100df565b92915050565b5f5ffd5b5f5ffd5b5f601f19601f8301169050919050565b7f4e487b71000000000000000000000000000000000000000000000000000000005f52604160045260245ffd5b61015782610111565b810181811067ffffffffffffffff8211171561017657610175610121565b5b80604052505050565b5f61018861009e565b9050610194828261014e565b919050565b5f67ffffffffffffffff8211156101b3576101b2610121565b5b6101bc82610111565b9050602081019050919050565b8281835e5f83830152505050565b5f6101e96101e484610199565b61017f565b9050828152602081018484840111156102055761020461010d565b5b6102108482856101c9565b509392505050565b5f82601f83011261022c5761022b610109565b5b815161023c8482602086016101d7565b91505092915050565b5f5f6040838503121561025b5761025a6100a7565b5b5f610268858286016100f5565b925050602083015167ffffffffffffffff811115610289576102886100ab565b5b61029585828601610218565b9150509250929050565b5f81519050919050565b5f82825260208201905092915050565b5f6102c38261029f565b6102cd81856102a9565b93506102dd8185602086016101c9565b6102e681610111565b840191505092915050565b5f6020820190508181035f83015261030981846102b9565b905092915050565b60805160a05161190f6103405f395f61043201525f81816103cb015281816106880152610830015261190f5ff3fe6080604052600436106100eb575f3560e01c8063a0cf0aea11610089578063eb11af9311610058578063eb11af93146102ea578063edd146cc14610326578063ef2920fc1461034e578063f5b0dfb71461036a576100f2565b8063a0cf0aea14610232578063b2b878d01461025c578063d9caed1214610298578063df868ed3146102c0576100f2565b806338fff2d0116100c557806338fff2d01461017857806342fda9c7146101a25780634ab4ba42146101cc5780634d31d087146101f6576100f2565b80630a6f0ee9146100f657806315cc481e1461011e5780632bbe0cae14610148576100f2565b366100f257005b5f5ffd5b348015610101575f5ffd5b5061011c60048036038101906101179190610e9d565b610392565b005b348015610129575f5ffd5b506101326103c8565b60405161013f9190610f80565b60405180910390f35b610162600480360381019061015d9190610f99565b6103ef565b60405161016f9190611002565b60405180910390f35b348015610183575f5ffd5b5061018c610426565b6040516101999190611033565b60405180910390f35b3480156101ad575f5ffd5b506101b661042f565b6040516101c39190611064565b60405180910390f35b3480156101d7575f5ffd5b506101e0610456565b6040516101ed9190611033565b60405180910390f35b348015610201575f5ffd5b5061021c6004803603810190610217919061107d565b61045f565b60405161022991906110c2565b60405180910390f35b34801561023d575f5ffd5b50610246610470565b6040516102539190611002565b60405180910390f35b348015610267575f5ffd5b50610282600480360381019061027d91906111b9565b610488565b60405161028f9190611322565b60405180910390f35b3480156102a3575f5ffd5b506102be60048036038101906102b9919061136c565b61059f565b005b3480156102cb575f5ffd5b506102d46105ba565b6040516102e191906110c2565b60405180910390f35b3480156102f5575f5ffd5b50610310600480360381019061030b919061107d565b6105c8565b60405161031d919061142f565b60405180910390f35b348015610331575f5ffd5b5061034c60048036038101906103479190611448565b6105d9565b005b61036860048036038101906103639190610f99565b61061f565b005b348015610375575f5ffd5b50610390600480360381019061038b91906114a2565b610651565b005b61039a610686565b6103a261070d565b6103ad83838361074a565b6103b883838361074f565b6103c3838383610781565b505050565b5f7f0000000000000000000000000000000000000000000000000000000000000000905090565b5f6103f8610686565b61040061070d565b61040a8383610786565b610414838361078a565b905061042083836107bd565b92915050565b5f600154905090565b5f7f0000000000000000000000000000000000000000000000000000000000000000905090565b5f600254905090565b5f610469826107c1565b9050919050565b73eeeeeeeeeeeeeeeeeeeeeeeeeeeeeeeeeeeeeeee81565b60605f83519050825181146104c9576040517f7b49805600000000000000000000000000000000000000000000000000000000815260040160405180910390fd5b5f8167ffffffffffffffff8111156104e4576104e3610c57565b5b60405190808252806020026020018201604052801561051d57816020015b61050a610c04565b8152602001906001900390816105025790505b5090505f5b82811015610593576105688682815181106105405761053f6114cd565b5b602002602001015186838151811061055b5761055a6114cd565b5b60200260200101516107f4565b82828151811061057b5761057a6114cd565b5b60200260200101819052508080600101915050610522565b50809250505092915050565b336105a98161082e565b6105b4848484610903565b50505050565b5f6105c361096a565b905090565b5f6105d28261097e565b9050919050565b6105e2826109b1565b7f91efa3d50feccde0d0d202f8ae5c41ca0b2be614cebcb2bd2f4b019396e6568a828260405161061392919061155a565b60405180910390a15050565b610627610686565b61062f61070d565b6106398282610a37565b6106438282610a3b565b61064d8282610b94565b5050565b610659610686565b61066281610b98565b8060025f82825461067391906115b5565b9250508190555061068381610b9b565b50565b7f000000000000000000000000000000000000000000000000000000000000000073ffffffffffffffffffffffffffffffffffffffff163373ffffffffffffffffffffffffffffffffffffffff161461070b576040517f075fd2b100000000000000000000000000000000000000000000000000000000815260040160405180910390fd5b565b5f60015403610748576040517f3da3f98c00000000000000000000000000000000000000000000000000000000815260040160405180910390fd5b565b505050565b6040517f1569426800000000000000000000000000000000000000000000000000000000815260040160405180910390fd5b505050565b5050565b5f6040517f1569426800000000000000000000000000000000000000000000000000000000815260040160405180910390fd5b5050565b5f6040517f1569426800000000000000000000000000000000000000000000000000000000815260040160405180910390fd5b6107fc610c04565b6040517f1569426800000000000000000000000000000000000000000000000000000000815260040160405180910390fd5b7f000000000000000000000000000000000000000000000000000000000000000073ffffffffffffffffffffffffffffffffffffffff166329e40d4b600154836040518363ffffffff1660e01b815260040161088b9291906115e8565b602060405180830381865afa1580156108a6573d5f5f3e3d5ffd5b505050506040513d601f19601f820116820180604052508101906108ca9190611639565b610900576040517f075fd2b100000000000000000000000000000000000000000000000000000000815260040160405180910390fd5b50565b73eeeeeeeeeeeeeeeeeeeeeeeeeeeeeeeeeeeeeeee73ffffffffffffffffffffffffffffffffffffffff168373ffffffffffffffffffffffffffffffffffffffff1603610959576109548282610b9e565b610965565b610964838383610bbb565b5b505050565b5f5f5f9054906101000a900460ff16905090565b5f6040517f1569426800000000000000000000000000000000000000000000000000000000815260040160405180910390fd5b6109b9610686565b5f600154146109f4576040517f439a74c900000000000000000000000000000000000000000000000000000000815260040160405180910390fd5b5f8103610a2d576040517f7fcce2a900000000000000000000000000000000000000000000000000000000815260040160405180910390fd5b8060018190555050565b5050565b80610a458161082e565b5f5f5f85806020019051810190610a5c919061181c565b9250925092505f835190505f8103610aa0576040517ffb76571500000000000000000000000000000000000000000000000000000000815260040160405180910390fd5b82518114610ada576040517ffb76571500000000000000000000000000000000000000000000000000000000815260040160405180910390fd5b5f5b81811015610b8a575f848281518110610af857610af76114cd565b5b602002602001015190505f868381518110610b1657610b156114cd565b5b60200260200101519050610b2b858284610903565b8073ffffffffffffffffffffffffffffffffffffffff167f463ffc2cf8b1596445c417388ed30e53eb67cf6668cb2be7f0addf8a78c8441b83878c604051610b75939291906118a4565b60405180910390a28260010192505050610adc565b5050505050505050565b5050565b50565b50565b5f5f5f5f84865af1610bb75763b12d13eb5f526004601cfd5b5050565b81601452806034526fa9059cbb0000000000000000000000005f5260205f604460105f875af13d1560015f51141716610bfb576390b8ec185f526004601cfd5b5f603452505050565b60405180604001604052805f73ffffffffffffffffffffffffffffffffffffffff1681526020015f81525090565b5f604051905090565b5f5ffd5b5f5ffd5b5f5ffd5b5f601f19601f8301169050919050565b7f4e487b71000000000000000000000000000000000000000000000000000000005f52604160045260245ffd5b610c8d82610c47565b810181811067ffffffffffffffff82111715610cac57610cab610c57565b5b80604052505050565b5f610cbe610c32565b9050610cca8282610c84565b919050565b5f67ffffffffffffffff821115610ce957610ce8610c57565b5b602082029050602081019050919050565b5f5ffd5b5f73ffffffffffffffffffffffffffffffffffffffff82169050919050565b5f610d2782610cfe565b9050919050565b610d3781610d1d565b8114610d41575f5ffd5b50565b5f81359050610d5281610d2e565b92915050565b5f610d6a610d6584610ccf565b610cb5565b90508083825260208201905060208402830185811115610d8d57610d8c610cfa565b5b835b81811015610db65780610da28882610d44565b845260208401935050602081019050610d8f565b5050509392505050565b5f82601f830112610dd457610dd3610c43565b5b8135610de4848260208601610d58565b91505092915050565b5f5ffd5b5f67ffffffffffffffff821115610e0b57610e0a610c57565b5b610e1482610c47565b9050602081019050919050565b828183375f83830152505050565b5f610e41610e3c84610df1565b610cb5565b905082815260208101848484011115610e5d57610e5c610ded565b5b610e68848285610e21565b509392505050565b5f82601f830112610e8457610e83610c43565b5b8135610e94848260208601610e2f565b91505092915050565b5f5f5f60608486031215610eb457610eb3610c3b565b5b5f84013567ffffffffffffffff811115610ed157610ed0610c3f565b5b610edd86828701610dc0565b935050602084013567ffffffffffffffff811115610efe57610efd610c3f565b5b610f0a86828701610e70565b9250506040610f1b86828701610d44565b9150509250925092565b5f819050919050565b5f610f48610f43610f3e84610cfe565b610f25565b610cfe565b9050919050565b5f610f5982610f2e565b9050919050565b5f610f6a82610f4f565b9050919050565b610f7a81610f60565b82525050565b5f602082019050610f935f830184610f71565b92915050565b5f5f60408385031215610faf57610fae610c3b565b5b5f83013567ffffffffffffffff811115610fcc57610fcb610c3f565b5b610fd885828601610e70565b9250506020610fe985828601610d44565b9150509250929050565b610ffc81610d1d565b82525050565b5f6020820190506110155f830184610ff3565b92915050565b5f819050919050565b61102d8161101b565b82525050565b5f6020820190506110465f830184611024565b92915050565b5f819050919050565b61105e8161104c565b82525050565b5f6020820190506110775f830184611055565b92915050565b5f6020828403121561109257611091610c3b565b5b5f61109f84828501610d44565b91505092915050565b5f8115159050919050565b6110bc816110a8565b82525050565b5f6020820190506110d55f8301846110b3565b92915050565b5f67ffffffffffffffff8211156110f5576110f4610c57565b5b602082029050602081019050919050565b5f611118611113846110db565b610cb5565b9050808382526020820190506020840283018581111561113b5761113a610cfa565b5b835b8181101561118257803567ffffffffffffffff8111156111605761115f610c43565b5b80860161116d8982610e70565b8552602085019450505060208101905061113d565b5050509392505050565b5f82601f8301126111a05761119f610c43565b5b81356111b0848260208601611106565b91505092915050565b5f5f604083850312156111cf576111ce610c3b565b5b5f83013567ffffffffffffffff8111156111ec576111eb610c3f565b5b6111f885828601610dc0565b925050602083013567ffffffffffffffff81111561121957611218610c3f565b5b6112258582860161118c565b9150509250929050565b5f81519050919050565b5f82825260208201905092915050565b5f819050602082019050919050565b61126181610d1d565b82525050565b6112708161101b565b82525050565b604082015f82015161128a5f850182611258565b50602082015161129d6020850182611267565b50505050565b5f6112ae8383611276565b60408301905092915050565b5f602082019050919050565b5f6112d08261122f565b6112da8185611239565b93506112e583611249565b805f5b838110156113155781516112fc88826112a3565b9750611307836112ba565b9250506001810190506112e8565b5085935050505092915050565b5f6020820190508181035f83015261133a81846112c6565b905092915050565b61134b8161101b565b8114611355575f5ffd5b50565b5f8135905061136681611342565b92915050565b5f5f5f6060848603121561138357611382610c3b565b5b5f61139086828701610d44565b93505060206113a186828701610d44565b92505060406113b286828701611358565b9150509250925092565b7f4e487b71000000000000000000000000000000000000000000000000000000005f52602160045260245ffd5b600781106113fa576113f96113bc565b5b50565b5f81905061140a826113e9565b919050565b5f611419826113fd565b9050919050565b6114298161140f565b82525050565b5f6020820190506114425f830184611420565b92915050565b5f5f6040838503121561145e5761145d610c3b565b5b5f61146b85828601611358565b925050602083013567ffffffffffffffff81111561148c5761148b610c3f565b5b61149885828601610e70565b9150509250929050565b5f602082840312156114b7576114b6610c3b565b5b5f6114c484828501611358565b91505092915050565b7f4e487b71000000000000000000000000000000000000000000000000000000005f52603260045260245ffd5b5f81519050919050565b5f82825260208201905092915050565b8281835e5f83830152505050565b5f61152c826114fa565b6115368185611504565b9350611546818560208601611514565b61154f81610c47565b840191505092915050565b5f60408201905061156d5f830185611024565b818103602083015261157f8184611522565b90509392505050565b7f4e487b71000000000000000000000000000000000000000000000000000000005f52601160045260245ffd5b5f6115bf8261101b565b91506115ca8361101b565b92508282019050808211156115e2576115e1611588565b5b92915050565b5f6040820190506115fb5f830185611024565b6116086020830184610ff3565b9392505050565b611618816110a8565b8114611622575f5ffd5b50565b5f815190506116338161160f565b92915050565b5f6020828403121561164e5761164d610c3b565b5b5f61165b84828501611625565b91505092915050565b5f8151905061167281610d2e565b92915050565b5f61168a61168584610ccf565b610cb5565b905080838252602082019050602084028301858111156116ad576116ac610cfa565b5b835b818110156116d657806116c28882611664565b8452602084019350506020810190506116af565b5050509392505050565b5f82601f8301126116f4576116f3610c43565b5b8151611704848260208601611678565b91505092915050565b5f67ffffffffffffffff82111561172757611726610c57565b5b602082029050602081019050919050565b5f8151905061174681611342565b92915050565b5f61175e6117598461170d565b610cb5565b9050808382526020820190506020840283018581111561178157611780610cfa565b5b835b818110156117aa57806117968882611738565b845260208401935050602081019050611783565b5050509392505050565b5f82601f8301126117c8576117c7610c43565b5b81516117d884826020860161174c565b91505092915050565b5f6117eb82610cfe565b9050919050565b6117fb816117e1565b8114611805575f5ffd5b50565b5f81519050611816816117f2565b92915050565b5f5f5f6060848603121561183357611832610c3b565b5b5f84015167ffffffffffffffff8111156118505761184f610c3f565b5b61185c868287016116e0565b935050602084015167ffffffffffffffff81111561187d5761187c610c3f565b5b611889868287016117b4565b925050604061189a86828701611808565b9150509250925092565b5f6060820190506118b75f830186611024565b6118c46020830185610ff3565b6118d16040830184610ff3565b94935050505056fea264697066735822122012c4e530567e7b87f67a652e44161d8493261144681370f393508b81a2e1a38964736f6c634300081b0033",
					"opcodes": "PUSH1 0xC0 PUSH1 0x40 MSTORE CALLVALUE DUP1 ISZERO PUSH2 0xF JUMPI PUSH0 PUSH0 REVERT JUMPDEST POP PUSH1 0x40 MLOAD PUSH2 0x1C4F CODESIZE SUB DUP1 PUSH2 0x1C4F DUP4 CODECOPY DUP2 DUP2 ADD PUSH1 0x40 MSTORE DUP2 ADD SWAP1 PUSH2 0x31 SWAP2 SWAP1 PUSH2 0x245 JUMP JUMPDEST DUP2 DUP2 DUP2 PUSH20 0xFFFFFFFFFFFFFFFFFFFFFFFFFFFFFFFFFFFFFFFF AND PUSH1 0x80 DUP2 PUSH20 0xFFFFFFFFFFFFFFFFFFFFFFFFFFFFFFFFFFFFFFFF AND DUP2 MSTORE POP POP DUP1 PUSH1 0x40 MLOAD PUSH1 0x20 ADD PUSH2 0x78 SWAP2 SWAP1 PUSH2 0x2F1 JUMP JUMPDEST PUSH1 0x40 MLOAD PUSH1 0x20 DUP2 DUP4 SUB SUB DUP2 MSTORE SWAP1 PUSH1 0x40 MSTORE DUP1 MLOAD SWAP1 PUSH1 0x20 ADD KECCAK256 PUSH1 0xA0 DUP2 DUP2 MSTORE POP POP POP POP POP POP PUSH2 0x311 JUMP JUMPDEST PUSH0 PUSH1 0x40 MLOAD SWAP1 POP SWAP1 JUMP JUMPDEST PUSH0 PUSH0 REVERT JUMPDEST PUSH0 PUSH0 REVERT JUMPDEST PUSH0 PUSH20 0xFFFFFFFFFFFFFFFFFFFFFFFFFFFFFFFFFFFFFFFF DUP3 AND SWAP1 POP SWAP2 SWAP1 POP JUMP JUMPDEST PUSH0 PUSH2 0xD8 DUP3 PUSH2 0xAF JUMP JUMPDEST SWAP1 POP SWAP2 SWAP1 POP JUMP JUMPDEST PUSH2 0xE8 DUP2 PUSH2 0xCE JUMP JUMPDEST DUP2 EQ PUSH2 0xF2 JUMPI PUSH0 PUSH0 REVERT JUMPDEST POP JUMP JUMPDEST PUSH0 DUP2 MLOAD SWAP1 POP PUSH2 0x103 DUP2 PUSH2 0xDF JUMP JUMPDEST SWAP3 SWAP2 POP POP JUMP JUMPDEST PUSH0 PUSH0 REVERT JUMPDEST PUSH0 PUSH0 REVERT JUMPDEST PUSH0 PUSH1 0x1F NOT PUSH1 0x1F DUP4 ADD AND SWAP1 POP SWAP2 SWAP1 POP JUMP JUMPDEST PUSH32 0x4E487B7100000000000000000000000000000000000000000000000000000000 PUSH0 MSTORE PUSH1 0x41 PUSH1 0x4 MSTORE PUSH1 0x24 PUSH0 REVERT JUMPDEST PUSH2 0x157 DUP3 PUSH2 0x111 JUMP JUMPDEST DUP2 ADD DUP2 DUP2 LT PUSH8 0xFFFFFFFFFFFFFFFF DUP3 GT OR ISZERO PUSH2 0x176 JUMPI PUSH2 0x175 PUSH2 0x121 JUMP JUMPDEST JUMPDEST DUP1 PUSH1 0x40 MSTORE POP POP POP JUMP JUMPDEST PUSH0 PUSH2 0x188 PUSH2 0x9E JUMP JUMPDEST SWAP1 POP PUSH2 0x194 DUP3 DUP3 PUSH2 0x14E JUMP JUMPDEST SWAP2 SWAP1 POP JUMP JUMPDEST PUSH0 PUSH8 0xFFFFFFFFFFFFFFFF DUP3 GT ISZERO PUSH2 0x1B3 JUMPI PUSH2 0x1B2 PUSH2 0x121 JUMP JUMPDEST JUMPDEST PUSH2 0x1BC DUP3 PUSH2 0x111 JUMP JUMPDEST SWAP1 POP PUSH1 0x20 DUP2 ADD SWAP1 POP SWAP2 SWAP1 POP JUMP JUMPDEST DUP3 DUP2 DUP4 MCOPY PUSH0 DUP4 DUP4 ADD MSTORE POP POP POP JUMP JUMPDEST PUSH0 PUSH2 0x1E9 PUSH2 0x1E4 DUP5 PUSH2 0x199 JUMP JUMPDEST PUSH2 0x17F JUMP JUMPDEST SWAP1 POP DUP3 DUP2 MSTORE PUSH1 0x20 DUP2 ADD DUP5 DUP5 DUP5 ADD GT ISZERO PUSH2 0x205 JUMPI PUSH2 0x204 PUSH2 0x10D JUMP JUMPDEST JUMPDEST PUSH2 0x210 DUP5 DUP3 DUP6 PUSH2 0x1C9 JUMP JUMPDEST POP SWAP4 SWAP3 POP POP POP JUMP JUMPDEST PUSH0 DUP3 PUSH1 0x1F DUP4 ADD SLT PUSH2 0x22C JUMPI PUSH2 0x22B PUSH2 0x109 JUMP JUMPDEST JUMPDEST DUP2 MLOAD PUSH2 0x23C DUP5 DUP3 PUSH1 0x20 DUP7 ADD PUSH2 0x1D7 JUMP JUMPDEST SWAP2 POP POP SWAP3 SWAP2 POP POP JUMP JUMPDEST PUSH0 PUSH0 PUSH1 0x40 DUP4 DUP6 SUB SLT ISZERO PUSH2 0x25B JUMPI PUSH2 0x25A PUSH2 0xA7 JUMP JUMPDEST JUMPDEST PUSH0 PUSH2 0x268 DUP6 DUP3 DUP7 ADD PUSH2 0xF5 JUMP JUMPDEST SWAP3 POP POP PUSH1 0x20 DUP4 ADD MLOAD PUSH8 0xFFFFFFFFFFFFFFFF DUP2 GT ISZERO PUSH2 0x289 JUMPI PUSH2 0x288 PUSH2 0xAB JUMP JUMPDEST JUMPDEST PUSH2 0x295 DUP6 DUP3 DUP7 ADD PUSH2 0x218 JUMP JUMPDEST SWAP2 POP POP SWAP3 POP SWAP3 SWAP1 POP JUMP JUMPDEST PUSH0 DUP2 MLOAD SWAP1 POP SWAP2 SWAP1 POP JUMP JUMPDEST PUSH0 DUP3 DUP3 MSTORE PUSH1 0x20 DUP3 ADD SWAP1 POP SWAP3 SWAP2 POP POP JUMP JUMPDEST PUSH0 PUSH2 0x2C3 DUP3 PUSH2 0x29F JUMP JUMPDEST PUSH2 0x2CD DUP2 DUP6 PUSH2 0x2A9 JUMP JUMPDEST SWAP4 POP PUSH2 0x2DD DUP2 DUP6 PUSH1 0x20 DUP7 ADD PUSH2 0x1C9 JUMP JUMPDEST PUSH2 0x2E6 DUP2 PUSH2 0x111 JUMP JUMPDEST DUP5 ADD SWAP2 POP POP SWAP3 SWAP2 POP POP JUMP JUMPDEST PUSH0 PUSH1 0x20 DUP3 ADD SWAP1 POP DUP2 DUP2 SUB PUSH0 DUP4 ADD MSTORE PUSH2 0x309 DUP2 DUP5 PUSH2 0x2B9 JUMP JUMPDEST SWAP1 POP SWAP3 SWAP2 POP POP JUMP JUMPDEST PUSH1 0x80 MLOAD PUSH1 0xA0 MLOAD PUSH2 0x190F PUSH2 0x340 PUSH0 CODECOPY PUSH0 PUSH2 0x432 ADD MSTORE PUSH0 DUP2 DUP2 PUSH2 0x3CB ADD MSTORE DUP2 DUP2 PUSH2 0x688 ADD MSTORE PUSH2 0x830 ADD MSTORE PUSH2 0x190F PUSH0 RETURN INVALID PUSH1 0x80 PUSH1 0x40 MSTORE PUSH1 0x4 CALLDATASIZE LT PUSH2 0xEB JUMPI PUSH0 CALLDATALOAD PUSH1 0xE0 SHR DUP1 PUSH4 0xA0CF0AEA GT PUSH2 0x89 JUMPI DUP1 PUSH4 0xEB11AF93 GT PUSH2 0x58 JUMPI DUP1 PUSH4 0xEB11AF93 EQ PUSH2 0x2EA JUMPI DUP1 PUSH4 0xEDD146CC EQ PUSH2 0x326 JUMPI DUP1 PUSH4 0xEF2920FC EQ PUSH2 0x34E JUMPI DUP1 PUSH4 0xF5B0DFB7 EQ PUSH2 0x36A JUMPI PUSH2 0xF2 JUMP JUMPDEST DUP1 PUSH4 0xA0CF0AEA EQ PUSH2 0x232 JUMPI DUP1 PUSH4 0xB2B878D0 EQ PUSH2 0x25C JUMPI DUP1 PUSH4 0xD9CAED12 EQ PUSH2 0x298 JUMPI DUP1 PUSH4 0xDF868ED3 EQ PUSH2 0x2C0 JUMPI PUSH2 0xF2 JUMP JUMPDEST DUP1 PUSH4 0x38FFF2D0 GT PUSH2 0xC5 JUMPI DUP1 PUSH4 0x38FFF2D0 EQ PUSH2 0x178 JUMPI DUP1 PUSH4 0x42FDA9C7 EQ PUSH2 0x1A2 JUMPI DUP1 PUSH4 0x4AB4BA42 EQ PUSH2 0x1CC JUMPI DUP1 PUSH4 0x4D31D087 EQ PUSH2 0x1F6 JUMPI PUSH2 0xF2 JUMP JUMPDEST DUP1 PUSH4 0xA6F0EE9 EQ PUSH2 0xF6 JUMPI DUP1 PUSH4 0x15CC481E EQ PUSH2 0x11E JUMPI DUP1 PUSH4 0x2BBE0CAE EQ PUSH2 0x148 JUMPI PUSH2 0xF2 JUMP JUMPDEST CALLDATASIZE PUSH2 0xF2 JUMPI STOP JUMPDEST PUSH0 PUSH0 REVERT JUMPDEST CALLVALUE DUP1 ISZERO PUSH2 0x101 JUMPI PUSH0 PUSH0 REVERT JUMPDEST POP PUSH2 0x11C PUSH1 0x4 DUP1 CALLDATASIZE SUB DUP2 ADD SWAP1 PUSH2 0x117 SWAP2 SWAP1 PUSH2 0xE9D JUMP JUMPDEST PUSH2 0x392 JUMP JUMPDEST STOP JUMPDEST CALLVALUE DUP1 ISZERO PUSH2 0x129 JUMPI PUSH0 PUSH0 REVERT JUMPDEST POP PUSH2 0x132 PUSH2 0x3C8 JUMP JUMPDEST PUSH1 0x40 MLOAD PUSH2 0x13F SWAP2 SWAP1 PUSH2 0xF80 JUMP JUMPDEST PUSH1 0x40 MLOAD DUP1 SWAP2 SUB SWAP1 RETURN JUMPDEST PUSH2 0x162 PUSH1 0x4 DUP1 CALLDATASIZE SUB DUP2 ADD SWAP1 PUSH2 0x15D SWAP2 SWAP1 PUSH2 0xF99 JUMP JUMPDEST PUSH2 0x3EF JUMP JUMPDEST PUSH1 0x40 MLOAD PUSH2 0x16F SWAP2 SWAP1 PUSH2 0x1002 JUMP JUMPDEST PUSH1 0x40 MLOAD DUP1 SWAP2 SUB SWAP1 RETURN JUMPDEST CALLVALUE DUP1 ISZERO PUSH2 0x183 JUMPI PUSH0 PUSH0 REVERT JUMPDEST POP PUSH2 0x18C PUSH2 0x426 JUMP JUMPDEST PUSH1 0x40 MLOAD PUSH2 0x199 SWAP2 SWAP1 PUSH2 0x1033 JUMP JUMPDEST PUSH1 0x40 MLOAD DUP1 SWAP2 SUB SWAP1 RETURN JUMPDEST CALLVALUE DUP1 ISZERO PUSH2 0x1AD JUMPI PUSH0 PUSH0 REVERT JUMPDEST POP PUSH2 0x1B6 PUSH2 0x42F JUMP JUMPDEST PUSH1 0x40 MLOAD PUSH2 0x1C3 SWAP2 SWAP1 PUSH2 0x1064 JUMP JUMPDEST PUSH1 0x40 MLOAD DUP1 SWAP2 SUB SWAP1 RETURN JUMPDEST CALLVALUE DUP1 ISZERO PUSH2 0x1D7 JUMPI PUSH0 PUSH0 REVERT JUMPDEST POP PUSH2 0x1E0 PUSH2 0x456 JUMP JUMPDEST PUSH1 0x40 MLOAD PUSH2 0x1ED SWAP2 SWAP1 PUSH2 0x1033 JUMP JUMPDEST PUSH1 0x40 MLOAD DUP1 SWAP2 SUB SWAP1 RETURN JUMPDEST CALLVALUE DUP1 ISZERO PUSH2 0x201 JUMPI PUSH0 PUSH0 REVERT JUMPDEST POP PUSH2 0x21C PUSH1 0x4 DUP1 CALLDATASIZE SUB DUP2 ADD SWAP1 PUSH2 0x217 SWAP2 SWAP1 PUSH2 0x107D JUMP JUMPDEST PUSH2 0x45F JUMP JUMPDEST PUSH1 0x40 MLOAD PUSH2 0x229 SWAP2 SWAP1 PUSH2 0x10C2 JUMP JUMPDEST PUSH1 0x40 MLOAD DUP1 SWAP2 SUB SWAP1 RETURN JUMPDEST CALLVALUE DUP1 ISZERO PUSH2 0x23D JUMPI PUSH0 PUSH0 REVERT JUMPDEST POP PUSH2 0x246 PUSH2 0x470 JUMP JUMPDEST PUSH1 0x40 MLOAD PUSH2 0x253 SWAP2 SWAP1 PUSH2 0x1002 JUMP JUMPDEST PUSH1 0x40 MLOAD DUP1 SWAP2 SUB SWAP1 RETURN JUMPDEST CALLVALUE DUP1 ISZERO PUSH2 0x267 JUMPI PUSH0 PUSH0 REVERT JUMPDEST POP PUSH2 0x282 PUSH1 0x4 DUP1 CALLDATASIZE SUB DUP2 ADD SWAP1 PUSH2 0x27D SWAP2 SWAP1 PUSH2 0x11B9 JUMP JUMPDEST PUSH2 0x488 JUMP JUMPDEST PUSH1 0x40 MLOAD PUSH2 0x28F SWAP2 SWAP1 PUSH2 0x1322 JUMP JUMPDEST PUSH1 0x40 MLOAD DUP1 SWAP2 SUB SWAP1 RETURN JUMPDEST CALLVALUE DUP1 ISZERO PUSH2 0x2A3 JUMPI PUSH0 PUSH0 REVERT JUMPDEST POP PUSH2 0x2BE PUSH1 0x4 DUP1 CALLDATASIZE SUB DUP2 ADD SWAP1 PUSH2 0x2B9 SWAP2 SWAP1 PUSH2 0x136C JUMP JUMPDEST PUSH2 0x59F JUMP JUMPDEST STOP JUMPDEST CALLVALUE DUP1 ISZERO PUSH2 0x2CB JUMPI PUSH0 PUSH0 REVERT JUMPDEST POP PUSH2 0x2D4 PUSH2 0x5BA JUMP JUMPDEST PUSH1 0x40 MLOAD PUSH2 0x2E1 SWAP2 SWAP1 PUSH2 0x10C2 JUMP JUMPDEST PUSH1 0x40 MLOAD DUP1 SWAP2 SUB SWAP1 RETURN JUMPDEST CALLVALUE DUP1 ISZERO PUSH2 0x2F5 JUMPI PUSH0 PUSH0 REVERT JUMPDEST POP PUSH2 0x310 PUSH1 0x4 DUP1 CALLDATASIZE SUB DUP2 ADD SWAP1 PUSH2 0x30B SWAP2 SWAP1 PUSH2 0x107D JUMP JUMPDEST PUSH2 0x5C8 JUMP JUMPDEST PUSH1 0x40 MLOAD PUSH2 0x31D SWAP2 SWAP1 PUSH2 0x142F JUMP JUMPDEST PUSH1 0x40 MLOAD DUP1 SWAP2 SUB SWAP1 RETURN JUMPDEST CALLVALUE DUP1 ISZERO PUSH2 0x331 JUMPI PUSH0 PUSH0 REVERT JUMPDEST POP PUSH2 0x34C PUSH1 0x4 DUP1 CALLDATASIZE SUB DUP2 ADD SWAP1 PUSH2 0x347 SWAP2 SWAP1 PUSH2 0x1448 JUMP JUMPDEST PUSH2 0x5D9 JUMP JUMPDEST STOP JUMPDEST PUSH2 0x368 PUSH1 0x4 DUP1 CALLDATASIZE SUB DUP2 ADD SWAP1 PUSH2 0x363 SWAP2 SWAP1 PUSH2 0xF99 JUMP JUMPDEST PUSH2 0x61F JUMP JUMPDEST STOP JUMPDEST CALLVALUE DUP1 ISZERO PUSH2 0x375 JUMPI PUSH0 PUSH0 REVERT JUMPDEST POP PUSH2 0x390 PUSH1 0x4 DUP1 CALLDATASIZE SUB DUP2 ADD SWAP1 PUSH2 0x38B SWAP2 SWAP1 PUSH2 0x14A2 JUMP JUMPDEST PUSH2 0x651 JUMP JUMPDEST STOP JUMPDEST PUSH2 0x39A PUSH2 0x686 JUMP JUMPDEST PUSH2 0x3A2 PUSH2 0x70D JUMP JUMPDEST PUSH2 0x3AD DUP4 DUP4 DUP4 PUSH2 0x74A JUMP JUMPDEST PUSH2 0x3B8 DUP4 DUP4 DUP4 PUSH2 0x74F JUMP JUMPDEST PUSH2 0x3C3 DUP4 DUP4 DUP4 PUSH2 0x781 JUMP JUMPDEST POP POP POP JUMP JUMPDEST PUSH0 PUSH32 0x0 SWAP1 POP SWAP1 JUMP JUMPDEST PUSH0 PUSH2 0x3F8 PUSH2 0x686 JUMP JUMPDEST PUSH2 0x400 PUSH2 0x70D JUMP JUMPDEST PUSH2 0x40A DUP4 DUP4 PUSH2 0x786 JUMP JUMPDEST PUSH2 0x414 DUP4 DUP4 PUSH2 0x78A JUMP JUMPDEST SWAP1 POP PUSH2 0x420 DUP4 DUP4 PUSH2 0x7BD JUMP JUMPDEST SWAP3 SWAP2 POP POP JUMP JUMPDEST PUSH0 PUSH1 0x1 SLOAD SWAP1 POP SWAP1 JUMP JUMPDEST PUSH0 PUSH32 0x0 SWAP1 POP SWAP1 JUMP JUMPDEST PUSH0 PUSH1 0x2 SLOAD SWAP1 POP SWAP1 JUMP JUMPDEST PUSH0 PUSH2 0x469 DUP3 PUSH2 0x7C1 JUMP JUMPDEST SWAP1 POP SWAP2 SWAP1 POP JUMP JUMPDEST PUSH20 0xEEEEEEEEEEEEEEEEEEEEEEEEEEEEEEEEEEEEEEEE DUP2 JUMP JUMPDEST PUSH1 0x60 PUSH0 DUP4 MLOAD SWAP1 POP DUP3 MLOAD DUP2 EQ PUSH2 0x4C9 JUMPI PUSH1 0x40 MLOAD PUSH32 0x7B49805600000000000000000000000000000000000000000000000000000000 DUP2 MSTORE PUSH1 0x4 ADD PUSH1 0x40 MLOAD DUP1 SWAP2 SUB SWAP1 REVERT JUMPDEST PUSH0 DUP2 PUSH8 0xFFFFFFFFFFFFFFFF DUP2 GT ISZERO PUSH2 0x4E4 JUMPI PUSH2 0x4E3 PUSH2 0xC57 JUMP JUMPDEST JUMPDEST PUSH1 0x40 MLOAD SWAP1 DUP1 DUP3 MSTORE DUP1 PUSH1 0x20 MUL PUSH1 0x20 ADD DUP3 ADD PUSH1 0x40 MSTORE DUP1 ISZERO PUSH2 0x51D JUMPI DUP2 PUSH1 0x20 ADD JUMPDEST PUSH2 0x50A PUSH2 0xC04 JUMP JUMPDEST DUP2 MSTORE PUSH1 0x20 ADD SWAP1 PUSH1 0x1 SWAP1 SUB SWAP1 DUP2 PUSH2 0x502 JUMPI SWAP1 POP JUMPDEST POP SWAP1 POP PUSH0 JUMPDEST DUP3 DUP2 LT ISZERO PUSH2 0x593 JUMPI PUSH2 0x568 DUP7 DUP3 DUP2 MLOAD DUP2 LT PUSH2 0x540 JUMPI PUSH2 0x53F PUSH2 0x14CD JUMP JUMPDEST JUMPDEST PUSH1 0x20 MUL PUSH1 0x20 ADD ADD MLOAD DUP7 DUP4 DUP2 MLOAD DUP2 LT PUSH2 0x55B JUMPI PUSH2 0x55A PUSH2 0x14CD JUMP JUMPDEST JUMPDEST PUSH1 0x20 MUL PUSH1 0x20 ADD ADD MLOAD PUSH2 0x7F4 JUMP JUMPDEST DUP3 DUP3 DUP2 MLOAD DUP2 LT PUSH2 0x57B JUMPI PUSH2 0x57A PUSH2 0x14CD JUMP JUMPDEST JUMPDEST PUSH1 0x20 MUL PUSH1 0x20 ADD ADD DUP2 SWAP1 MSTORE POP DUP1 DUP1 PUSH1 0x1 ADD SWAP2 POP POP PUSH2 0x522 JUMP JUMPDEST POP DUP1 SWAP3 POP POP POP SWAP3 SWAP2 POP POP JUMP JUMPDEST CALLER PUSH2 0x5A9 DUP2 PUSH2 0x82E JUMP JUMPDEST PUSH2 0x5B4 DUP5 DUP5 DUP5 PUSH2 0x903 JUMP JUMPDEST POP POP POP POP JUMP JUMPDEST PUSH0 PUSH2 0x5C3 PUSH2 0x96A JUMP JUMPDEST SWAP1 POP SWAP1 JUMP JUMPDEST PUSH0 PUSH2 0x5D2 DUP3 PUSH2 0x97E JUMP JUMPDEST SWAP1 POP SWAP2 SWAP1 POP JUMP JUMPDEST PUSH2 0x5E2 DUP3 PUSH2 0x9B1 JUMP JUMPDEST PUSH32 0x91EFA3D50FECCDE0D0D202F8AE5C41CA0B2BE614CEBCB2BD2F4B019396E6568A DUP3 DUP3 PUSH1 0x40 MLOAD PUSH2 0x613 SWAP3 SWAP2 SWAP1 PUSH2 0x155A JUMP JUMPDEST PUSH1 0x40 MLOAD DUP1 SWAP2 SUB SWAP1 LOG1 POP POP JUMP JUMPDEST PUSH2 0x627 PUSH2 0x686 JUMP JUMPDEST PUSH2 0x62F PUSH2 0x70D JUMP JUMPDEST PUSH2 0x639 DUP3 DUP3 PUSH2 0xA37 JUMP JUMPDEST PUSH2 0x643 DUP3 DUP3 PUSH2 0xA3B JUMP JUMPDEST PUSH2 0x64D DUP3 DUP3 PUSH2 0xB94 JUMP JUMPDEST POP POP JUMP JUMPDEST PUSH2 0x659 PUSH2 0x686 JUMP JUMPDEST PUSH2 0x662 DUP2 PUSH2 0xB98 JUMP JUMPDEST DUP1 PUSH1 0x2 PUSH0 DUP3 DUP3 SLOAD PUSH2 0x673 SWAP2 SWAP1 PUSH2 0x15B5 JUMP JUMPDEST SWAP3 POP POP DUP2 SWAP1 SSTORE POP PUSH2 0x683 DUP2 PUSH2 0xB9B JUMP JUMPDEST POP JUMP JUMPDEST PUSH32 0x0 PUSH20 0xFFFFFFFFFFFFFFFFFFFFFFFFFFFFFFFFFFFFFFFF AND CALLER PUSH20 0xFFFFFFFFFFFFFFFFFFFFFFFFFFFFFFFFFFFFFFFF AND EQ PUSH2 0x70B JUMPI PUSH1 0x40 MLOAD PUSH32 0x75FD2B100000000000000000000000000000000000000000000000000000000 DUP2 MSTORE PUSH1 0x4 ADD PUSH1 0x40 MLOAD DUP1 SWAP2 SUB SWAP1 REVERT JUMPDEST JUMP JUMPDEST PUSH0 PUSH1 0x1 SLOAD SUB PUSH2 0x748 JUMPI PUSH1 0x40 MLOAD PUSH32 0x3DA3F98C00000000000000000000000000000000000000000000000000000000 DUP2 MSTORE PUSH1 0x4 ADD PUSH1 0x40 MLOAD DUP1 SWAP2 SUB SWAP1 REVERT JUMPDEST JUMP JUMPDEST POP POP POP JUMP JUMPDEST PUSH1 0x40 MLOAD PUSH32 0x1569426800000000000000000000000000000000000000000000000000000000 DUP2 MSTORE PUSH1 0x4 ADD PUSH1 0x40 MLOAD DUP1 SWAP2 SUB SWAP1 REVERT JUMPDEST POP POP POP JUMP JUMPDEST POP POP JUMP JUMPDEST PUSH0 PUSH1 0x40 MLOAD PUSH32 0x1569426800000000000000000000000000000000000000000000000000000000 DUP2 MSTORE PUSH1 0x4 ADD PUSH1 0x40 MLOAD DUP1 SWAP2 SUB SWAP1 REVERT JUMPDEST POP POP JUMP JUMPDEST PUSH0 PUSH1 0x40 MLOAD PUSH32 0x1569426800000000000000000000000000000000000000000000000000000000 DUP2 MSTORE PUSH1 0x4 ADD PUSH1 0x40 MLOAD DUP1 SWAP2 SUB SWAP1 REVERT JUMPDEST PUSH2 0x7FC PUSH2 0xC04 JUMP JUMPDEST PUSH1 0x40 MLOAD PUSH32 0x1569426800000000000000000000000000000000000000000000000000000000 DUP2 MSTORE PUSH1 0x4 ADD PUSH1 0x40 MLOAD DUP1 SWAP2 SUB SWAP1 REVERT JUMPDEST PUSH32 0x0 PUSH20 0xFFFFFFFFFFFFFFFFFFFFFFFFFFFFFFFFFFFFFFFF AND PUSH4 0x29E40D4B PUSH1 0x1 SLOAD DUP4 PUSH1 0x40 MLOAD DUP4 PUSH4 0xFFFFFFFF AND PUSH1 0xE0 SHL DUP2 MSTORE PUSH1 0x4 ADD PUSH2 0x88B SWAP3 SWAP2 SWAP1 PUSH2 0x15E8 JUMP JUMPDEST PUSH1 0x20 PUSH1 0x40 MLOAD DUP1 DUP4 SUB DUP2 DUP7 GAS STATICCALL ISZERO DUP1 ISZERO PUSH2 0x8A6 JUMPI RETURNDATASIZE PUSH0 PUSH0 RETURNDATACOPY RETURNDATASIZE PUSH0 REVERT JUMPDEST POP POP POP POP PUSH1 0x40 MLOAD RETURNDATASIZE PUSH1 0x1F NOT PUSH1 0x1F DUP3 ADD AND DUP3 ADD DUP1 PUSH1 0x40 MSTORE POP DUP2 ADD SWAP1 PUSH2 0x8CA SWAP2 SWAP1 PUSH2 0x1639 JUMP JUMPDEST PUSH2 0x900 JUMPI PUSH1 0x40 MLOAD PUSH32 0x75FD2B100000000000000000000000000000000000000000000000000000000 DUP2 MSTORE PUSH1 0x4 ADD PUSH1 0x40 MLOAD DUP1 SWAP2 SUB SWAP1 REVERT JUMPDEST POP JUMP JUMPDEST PUSH20 0xEEEEEEEEEEEEEEEEEEEEEEEEEEEEEEEEEEEEEEEE PUSH20 0xFFFFFFFFFFFFFFFFFFFFFFFFFFFFFFFFFFFFFFFF AND DUP4 PUSH20 0xFFFFFFFFFFFFFFFFFFFFFFFFFFFFFFFFFFFFFFFF AND SUB PUSH2 0x959 JUMPI PUSH2 0x954 DUP3 DUP3 PUSH2 0xB9E JUMP JUMPDEST PUSH2 0x965 JUMP JUMPDEST PUSH2 0x964 DUP4 DUP4 DUP4 PUSH2 0xBBB JUMP JUMPDEST JUMPDEST POP POP POP JUMP JUMPDEST PUSH0 PUSH0 PUSH0 SWAP1 SLOAD SWAP1 PUSH2 0x100 EXP SWAP1 DIV PUSH1 0xFF AND SWAP1 POP SWAP1 JUMP JUMPDEST PUSH0 PUSH1 0x40 MLOAD PUSH32 0x1569426800000000000000000000000000000000000000000000000000000000 DUP2 MSTORE PUSH1 0x4 ADD PUSH1 0x40 MLOAD DUP1 SWAP2 SUB SWAP1 REVERT JUMPDEST PUSH2 0x9B9 PUSH2 0x686 JUMP JUMPDEST PUSH0 PUSH1 0x1 SLOAD EQ PUSH2 0x9F4 JUMPI PUSH1 0x40 MLOAD PUSH32 0x439A74C900000000000000000000000000000000000000000000000000000000 DUP2 MSTORE PUSH1 0x4 ADD PUSH1 0x40 MLOAD DUP1 SWAP2 SUB SWAP1 REVERT JUMPDEST PUSH0 DUP2 SUB PUSH2 0xA2D JUMPI PUSH1 0x40 MLOAD PUSH32 0x7FCCE2A900000000000000000000000000000000000000000000000000000000 DUP2 MSTORE PUSH1 0x4 ADD PUSH1 0x40 MLOAD DUP1 SWAP2 SUB SWAP1 REVERT JUMPDEST DUP1 PUSH1 0x1 DUP2 SWAP1 SSTORE POP POP JUMP JUMPDEST POP POP JUMP JUMPDEST DUP1 PUSH2 0xA45 DUP2 PUSH2 0x82E JUMP JUMPDEST PUSH0 PUSH0 PUSH0 DUP6 DUP1 PUSH1 0x20 ADD SWAP1 MLOAD DUP2 ADD SWAP1 PUSH2 0xA5C SWAP2 SWAP1 PUSH2 0x181C JUMP JUMPDEST SWAP3 POP SWAP3 POP SWAP3 POP PUSH0 DUP4 MLOAD SWAP1 POP PUSH0 DUP2 SUB PUSH2 0xAA0 JUMPI PUSH1 0x40 MLOAD PUSH32 0xFB76571500000000000000000000000000000000000000000000000000000000 DUP2 MSTORE PUSH1 0x4 ADD PUSH1 0x40 MLOAD DUP1 SWAP2 SUB SWAP1 REVERT JUMPDEST DUP3 MLOAD DUP2 EQ PUSH2 0xADA JUMPI PUSH1 0x40 MLOAD PUSH32 0xFB76571500000000000000000000000000000000000000000000000000000000 DUP2 MSTORE PUSH1 0x4 ADD PUSH1 0x40 MLOAD DUP1 SWAP2 SUB SWAP1 REVERT JUMPDEST PUSH0 JUMPDEST DUP2 DUP2 LT ISZERO PUSH2 0xB8A JUMPI PUSH0 DUP5 DUP3 DUP2 MLOAD DUP2 LT PUSH2 0xAF8 JUMPI PUSH2 0xAF7 PUSH2 0x14CD JUMP JUMPDEST JUMPDEST PUSH1 0x20 MUL PUSH1 0x20 ADD ADD MLOAD SWAP1 POP PUSH0 DUP7 DUP4 DUP2 MLOAD DUP2 LT PUSH2 0xB16 JUMPI PUSH2 0xB15 PUSH2 0x14CD JUMP JUMPDEST JUMPDEST PUSH1 0x20 MUL PUSH1 0x20 ADD ADD MLOAD SWAP1 POP PUSH2 0xB2B DUP6 DUP3 DUP5 PUSH2 0x903 JUMP JUMPDEST DUP1 PUSH20 0xFFFFFFFFFFFFFFFFFFFFFFFFFFFFFFFFFFFFFFFF AND PUSH32 0x463FFC2CF8B1596445C417388ED30E53EB67CF6668CB2BE7F0ADDF8A78C8441B DUP4 DUP8 DUP13 PUSH1 0x40 MLOAD PUSH2 0xB75 SWAP4 SWAP3 SWAP2 SWAP1 PUSH2 0x18A4 JUMP JUMPDEST PUSH1 0x40 MLOAD DUP1 SWAP2 SUB SWAP1 LOG2 DUP3 PUSH1 0x1 ADD SWAP3 POP POP POP PUSH2 0xADC JUMP JUMPDEST POP POP POP POP POP POP POP POP JUMP JUMPDEST POP POP JUMP JUMPDEST POP JUMP JUMPDEST POP JUMP JUMPDEST PUSH0 PUSH0 PUSH0 PUSH0 DUP5 DUP7 GAS CALL PUSH2 0xBB7 JUMPI PUSH4 0xB12D13EB PUSH0 MSTORE PUSH1 0x4 PUSH1 0x1C REVERT JUMPDEST POP POP JUMP JUMPDEST DUP2 PUSH1 0x14 MSTORE DUP1 PUSH1 0x34 MSTORE PUSH16 0xA9059CBB000000000000000000000000 PUSH0 MSTORE PUSH1 0x20 PUSH0 PUSH1 0x44 PUSH1 0x10 PUSH0 DUP8 GAS CALL RETURNDATASIZE ISZERO PUSH1 0x1 PUSH0 MLOAD EQ OR AND PUSH2 0xBFB JUMPI PUSH4 0x90B8EC18 PUSH0 MSTORE PUSH1 0x4 PUSH1 0x1C REVERT JUMPDEST PUSH0 PUSH1 0x34 MSTORE POP POP POP JUMP JUMPDEST PUSH1 0x40 MLOAD DUP1 PUSH1 0x40 ADD PUSH1 0x40 MSTORE DUP1 PUSH0 PUSH20 0xFFFFFFFFFFFFFFFFFFFFFFFFFFFFFFFFFFFFFFFF AND DUP2 MSTORE PUSH1 0x20 ADD PUSH0 DUP2 MSTORE POP SWAP1 JUMP JUMPDEST PUSH0 PUSH1 0x40 MLOAD SWAP1 POP SWAP1 JUMP JUMPDEST PUSH0 PUSH0 REVERT JUMPDEST PUSH0 PUSH0 REVERT JUMPDEST PUSH0 PUSH0 REVERT JUMPDEST PUSH0 PUSH1 0x1F NOT PUSH1 0x1F DUP4 ADD AND SWAP1 POP SWAP2 SWAP1 POP JUMP JUMPDEST PUSH32 0x4E487B7100000000000000000000000000000000000000000000000000000000 PUSH0 MSTORE PUSH1 0x41 PUSH1 0x4 MSTORE PUSH1 0x24 PUSH0 REVERT JUMPDEST PUSH2 0xC8D DUP3 PUSH2 0xC47 JUMP JUMPDEST DUP2 ADD DUP2 DUP2 LT PUSH8 0xFFFFFFFFFFFFFFFF DUP3 GT OR ISZERO PUSH2 0xCAC JUMPI PUSH2 0xCAB PUSH2 0xC57 JUMP JUMPDEST JUMPDEST DUP1 PUSH1 0x40 MSTORE POP POP POP JUMP JUMPDEST PUSH0 PUSH2 0xCBE PUSH2 0xC32 JUMP JUMPDEST SWAP1 POP PUSH2 0xCCA DUP3 DUP3 PUSH2 0xC84 JUMP JUMPDEST SWAP2 SWAP1 POP JUMP JUMPDEST PUSH0 PUSH8 0xFFFFFFFFFFFFFFFF DUP3 GT ISZERO PUSH2 0xCE9 JUMPI PUSH2 0xCE8 PUSH2 0xC57 JUMP JUMPDEST JUMPDEST PUSH1 0x20 DUP3 MUL SWAP1 POP PUSH1 0x20 DUP2 ADD SWAP1 POP SWAP2 SWAP1 POP JUMP JUMPDEST PUSH0 PUSH0 REVERT JUMPDEST PUSH0 PUSH20 0xFFFFFFFFFFFFFFFFFFFFFFFFFFFFFFFFFFFFFFFF DUP3 AND SWAP1 POP SWAP2 SWAP1 POP JUMP JUMPDEST PUSH0 PUSH2 0xD27 DUP3 PUSH2 0xCFE JUMP JUMPDEST SWAP1 POP SWAP2 SWAP1 POP JUMP JUMPDEST PUSH2 0xD37 DUP2 PUSH2 0xD1D JUMP JUMPDEST DUP2 EQ PUSH2 0xD41 JUMPI PUSH0 PUSH0 REVERT JUMPDEST POP JUMP JUMPDEST PUSH0 DUP2 CALLDATALOAD SWAP1 POP PUSH2 0xD52 DUP2 PUSH2 0xD2E JUMP JUMPDEST SWAP3 SWAP2 POP POP JUMP JUMPDEST PUSH0 PUSH2 0xD6A PUSH2 0xD65 DUP5 PUSH2 0xCCF JUMP JUMPDEST PUSH2 0xCB5 JUMP JUMPDEST SWAP1 POP DUP1 DUP4 DUP3 MSTORE PUSH1 0x20 DUP3 ADD SWAP1 POP PUSH1 0x20 DUP5 MUL DUP4 ADD DUP6 DUP2 GT ISZERO PUSH2 0xD8D JUMPI PUSH2 0xD8C PUSH2 0xCFA JUMP JUMPDEST JUMPDEST DUP4 JUMPDEST DUP2 DUP2 LT ISZERO PUSH2 0xDB6 JUMPI DUP1 PUSH2 0xDA2 DUP9 DUP3 PUSH2 0xD44 JUMP JUMPDEST DUP5 MSTORE PUSH1 0x20 DUP5 ADD SWAP4 POP POP PUSH1 0x20 DUP2 ADD SWAP1 POP PUSH2 0xD8F JUMP JUMPDEST POP POP POP SWAP4 SWAP3 POP POP POP JUMP JUMPDEST PUSH0 DUP3 PUSH1 0x1F DUP4 ADD SLT PUSH2 0xDD4 JUMPI PUSH2 0xDD3 PUSH2 0xC43 JUMP JUMPDEST JUMPDEST DUP2 CALLDATALOAD PUSH2 0xDE4 DUP5 DUP3 PUSH1 0x20 DUP7 ADD PUSH2 0xD58 JUMP JUMPDEST SWAP2 POP POP SWAP3 SWAP2 POP POP JUMP JUMPDEST PUSH0 PUSH0 REVERT JUMPDEST PUSH0 PUSH8 0xFFFFFFFFFFFFFFFF DUP3 GT ISZERO PUSH2 0xE0B JUMPI PUSH2 0xE0A PUSH2 0xC57 JUMP JUMPDEST JUMPDEST PUSH2 0xE14 DUP3 PUSH2 0xC47 JUMP JUMPDEST SWAP1 POP PUSH1 0x20 DUP2 ADD SWAP1 POP SWAP2 SWAP1 POP JUMP JUMPDEST DUP3 DUP2 DUP4 CALLDATACOPY PUSH0 DUP4 DUP4 ADD MSTORE POP POP POP JUMP JUMPDEST PUSH0 PUSH2 0xE41 PUSH2 0xE3C DUP5 PUSH2 0xDF1 JUMP JUMPDEST PUSH2 0xCB5 JUMP JUMPDEST SWAP1 POP DUP3 DUP2 MSTORE PUSH1 0x20 DUP2 ADD DUP5 DUP5 DUP5 ADD GT ISZERO PUSH2 0xE5D JUMPI PUSH2 0xE5C PUSH2 0xDED JUMP JUMPDEST JUMPDEST PUSH2 0xE68 DUP5 DUP3 DUP6 PUSH2 0xE21 JUMP JUMPDEST POP SWAP4 SWAP3 POP POP POP JUMP JUMPDEST PUSH0 DUP3 PUSH1 0x1F DUP4 ADD SLT PUSH2 0xE84 JUMPI PUSH2 0xE83 PUSH2 0xC43 JUMP JUMPDEST JUMPDEST DUP2 CALLDATALOAD PUSH2 0xE94 DUP5 DUP3 PUSH1 0x20 DUP7 ADD PUSH2 0xE2F JUMP JUMPDEST SWAP2 POP POP SWAP3 SWAP2 POP POP JUMP JUMPDEST PUSH0 PUSH0 PUSH0 PUSH1 0x60 DUP5 DUP7 SUB SLT ISZERO PUSH2 0xEB4 JUMPI PUSH2 0xEB3 PUSH2 0xC3B JUMP JUMPDEST JUMPDEST PUSH0 DUP5 ADD CALLDATALOAD PUSH8 0xFFFFFFFFFFFFFFFF DUP2 GT ISZERO PUSH2 0xED1 JUMPI PUSH2 0xED0 PUSH2 0xC3F JUMP JUMPDEST JUMPDEST PUSH2 0xEDD DUP7 DUP3 DUP8 ADD PUSH2 0xDC0 JUMP JUMPDEST SWAP4 POP POP PUSH1 0x20 DUP5 ADD CALLDATALOAD PUSH8 0xFFFFFFFFFFFFFFFF DUP2 GT ISZERO PUSH2 0xEFE JUMPI PUSH2 0xEFD PUSH2 0xC3F JUMP JUMPDEST JUMPDEST PUSH2 0xF0A DUP7 DUP3 DUP8 ADD PUSH2 0xE70 JUMP JUMPDEST SWAP3 POP POP PUSH1 0x40 PUSH2 0xF1B DUP7 DUP3 DUP8 ADD PUSH2 0xD44 JUMP JUMPDEST SWAP2 POP POP SWAP3 POP SWAP3 POP SWAP3 JUMP JUMPDEST PUSH0 DUP2 SWAP1 POP SWAP2 SWAP1 POP JUMP JUMPDEST PUSH0 PUSH2 0xF48 PUSH2 0xF43 PUSH2 0xF3E DUP5 PUSH2 0xCFE JUMP JUMPDEST PUSH2 0xF25 JUMP JUMPDEST PUSH2 0xCFE JUMP JUMPDEST SWAP1 POP SWAP2 SWAP1 POP JUMP JUMPDEST PUSH0 PUSH2 0xF59 DUP3 PUSH2 0xF2E JUMP JUMPDEST SWAP1 POP SWAP2 SWAP1 POP JUMP JUMPDEST PUSH0 PUSH2 0xF6A DUP3 PUSH2 0xF4F JUMP JUMPDEST SWAP1 POP SWAP2 SWAP1 POP JUMP JUMPDEST PUSH2 0xF7A DUP2 PUSH2 0xF60 JUMP JUMPDEST DUP3 MSTORE POP POP JUMP JUMPDEST PUSH0 PUSH1 0x20 DUP3 ADD SWAP1 POP PUSH2 0xF93 PUSH0 DUP4 ADD DUP5 PUSH2 0xF71 JUMP JUMPDEST SWAP3 SWAP2 POP POP JUMP JUMPDEST PUSH0 PUSH0 PUSH1 0x40 DUP4 DUP6 SUB SLT ISZERO PUSH2 0xFAF JUMPI PUSH2 0xFAE PUSH2 0xC3B JUMP JUMPDEST JUMPDEST PUSH0 DUP4 ADD CALLDATALOAD PUSH8 0xFFFFFFFFFFFFFFFF DUP2 GT ISZERO PUSH2 0xFCC JUMPI PUSH2 0xFCB PUSH2 0xC3F JUMP JUMPDEST JUMPDEST PUSH2 0xFD8 DUP6 DUP3 DUP7 ADD PUSH2 0xE70 JUMP JUMPDEST SWAP3 POP POP PUSH1 0x20 PUSH2 0xFE9 DUP6 DUP3 DUP7 ADD PUSH2 0xD44 JUMP JUMPDEST SWAP2 POP POP SWAP3 POP SWAP3 SWAP1 POP JUMP JUMPDEST PUSH2 0xFFC DUP2 PUSH2 0xD1D JUMP JUMPDEST DUP3 MSTORE POP POP JUMP JUMPDEST PUSH0 PUSH1 0x20 DUP3 ADD SWAP1 POP PUSH2 0x1015 PUSH0 DUP4 ADD DUP5 PUSH2 0xFF3 JUMP JUMPDEST SWAP3 SWAP2 POP POP JUMP JUMPDEST PUSH0 DUP2 SWAP1 POP SWAP2 SWAP1 POP JUMP JUMPDEST PUSH2 0x102D DUP2 PUSH2 0x101B JUMP JUMPDEST DUP3 MSTORE POP POP JUMP JUMPDEST PUSH0 PUSH1 0x20 DUP3 ADD SWAP1 POP PUSH2 0x1046 PUSH0 DUP4 ADD DUP5 PUSH2 0x1024 JUMP JUMPDEST SWAP3 SWAP2 POP POP JUMP JUMPDEST PUSH0 DUP2 SWAP1 POP SWAP2 SWAP1 POP JUMP JUMPDEST PUSH2 0x105E DUP2 PUSH2 0x104C JUMP JUMPDEST DUP3 MSTORE POP POP JUMP JUMPDEST PUSH0 PUSH1 0x20 DUP3 ADD SWAP1 POP PUSH2 0x1077 PUSH0 DUP4 ADD DUP5 PUSH2 0x1055 JUMP JUMPDEST SWAP3 SWAP2 POP POP JUMP JUMPDEST PUSH0 PUSH1 0x20 DUP3 DUP5 SUB SLT ISZERO PUSH2 0x1092 JUMPI PUSH2 0x1091 PUSH2 0xC3B JUMP JUMPDEST JUMPDEST PUSH0 PUSH2 0x109F DUP5 DUP3 DUP6 ADD PUSH2 0xD44 JUMP JUMPDEST SWAP2 POP POP SWAP3 SWAP2 POP POP JUMP JUMPDEST PUSH0 DUP2 ISZERO ISZERO SWAP1 POP SWAP2 SWAP1 POP JUMP JUMPDEST PUSH2 0x10BC DUP2 PUSH2 0x10A8 JUMP JUMPDEST DUP3 MSTORE POP POP JUMP JUMPDEST PUSH0 PUSH1 0x20 DUP3 ADD SWAP1 POP PUSH2 0x10D5 PUSH0 DUP4 ADD DUP5 PUSH2 0x10B3 JUMP JUMPDEST SWAP3 SWAP2 POP POP JUMP JUMPDEST PUSH0 PUSH8 0xFFFFFFFFFFFFFFFF DUP3 GT ISZERO PUSH2 0x10F5 JUMPI PUSH2 0x10F4 PUSH2 0xC57 JUMP JUMPDEST JUMPDEST PUSH1 0x20 DUP3 MUL SWAP1 POP PUSH1 0x20 DUP2 ADD SWAP1 POP SWAP2 SWAP1 POP JUMP JUMPDEST PUSH0 PUSH2 0x1118 PUSH2 0x1113 DUP5 PUSH2 0x10DB JUMP JUMPDEST PUSH2 0xCB5 JUMP JUMPDEST SWAP1 POP DUP1 DUP4 DUP3 MSTORE PUSH1 0x20 DUP3 ADD SWAP1 POP PUSH1 0x20 DUP5 MUL DUP4 ADD DUP6 DUP2 GT ISZERO PUSH2 0x113B JUMPI PUSH2 0x113A PUSH2 0xCFA JUMP JUMPDEST JUMPDEST DUP4 JUMPDEST DUP2 DUP2 LT ISZERO PUSH2 0x1182 JUMPI DUP1 CALLDATALOAD PUSH8 0xFFFFFFFFFFFFFFFF DUP2 GT ISZERO PUSH2 0x1160 JUMPI PUSH2 0x115F PUSH2 0xC43 JUMP JUMPDEST JUMPDEST DUP1 DUP7 ADD PUSH2 0x116D DUP10 DUP3 PUSH2 0xE70 JUMP JUMPDEST DUP6 MSTORE PUSH1 0x20 DUP6 ADD SWAP5 POP POP POP PUSH1 0x20 DUP2 ADD SWAP1 POP PUSH2 0x113D JUMP JUMPDEST POP POP POP SWAP4 SWAP3 POP POP POP JUMP JUMPDEST PUSH0 DUP3 PUSH1 0x1F DUP4 ADD SLT PUSH2 0x11A0 JUMPI PUSH2 0x119F PUSH2 0xC43 JUMP JUMPDEST JUMPDEST DUP2 CALLDATALOAD PUSH2 0x11B0 DUP5 DUP3 PUSH1 0x20 DUP7 ADD PUSH2 0x1106 JUMP JUMPDEST SWAP2 POP POP SWAP3 SWAP2 POP POP JUMP JUMPDEST PUSH0 PUSH0 PUSH1 0x40 DUP4 DUP6 SUB SLT ISZERO PUSH2 0x11CF JUMPI PUSH2 0x11CE PUSH2 0xC3B JUMP JUMPDEST JUMPDEST PUSH0 DUP4 ADD CALLDATALOAD PUSH8 0xFFFFFFFFFFFFFFFF DUP2 GT ISZERO PUSH2 0x11EC JUMPI PUSH2 0x11EB PUSH2 0xC3F JUMP JUMPDEST JUMPDEST PUSH2 0x11F8 DUP6 DUP3 DUP7 ADD PUSH2 0xDC0 JUMP JUMPDEST SWAP3 POP POP PUSH1 0x20 DUP4 ADD CALLDATALOAD PUSH8 0xFFFFFFFFFFFFFFFF DUP2 GT ISZERO PUSH2 0x1219 JUMPI PUSH2 0x1218 PUSH2 0xC3F JUMP JUMPDEST JUMPDEST PUSH2 0x1225 DUP6 DUP3 DUP7 ADD PUSH2 0x118C JUMP JUMPDEST SWAP2 POP POP SWAP3 POP SWAP3 SWAP1 POP JUMP JUMPDEST PUSH0 DUP2 MLOAD SWAP1 POP SWAP2 SWAP1 POP JUMP JUMPDEST PUSH0 DUP3 DUP3 MSTORE PUSH1 0x20 DUP3 ADD SWAP1 POP SWAP3 SWAP2 POP POP JUMP JUMPDEST PUSH0 DUP2 SWAP1 POP PUSH1 0x20 DUP3 ADD SWAP1 POP SWAP2 SWAP1 POP JUMP JUMPDEST PUSH2 0x1261 DUP2 PUSH2 0xD1D JUMP JUMPDEST DUP3 MSTORE POP POP JUMP JUMPDEST PUSH2 0x1270 DUP2 PUSH2 0x101B JUMP JUMPDEST DUP3 MSTORE POP POP JUMP JUMPDEST PUSH1 0x40 DUP3 ADD PUSH0 DUP3 ADD MLOAD PUSH2 0x128A PUSH0 DUP6 ADD DUP3 PUSH2 0x1258 JUMP JUMPDEST POP PUSH1 0x20 DUP3 ADD MLOAD PUSH2 0x129D PUSH1 0x20 DUP6 ADD DUP3 PUSH2 0x1267 JUMP JUMPDEST POP POP POP POP JUMP JUMPDEST PUSH0 PUSH2 0x12AE DUP4 DUP4 PUSH2 0x1276 JUMP JUMPDEST PUSH1 0x40 DUP4 ADD SWAP1 POP SWAP3 SWAP2 POP POP JUMP JUMPDEST PUSH0 PUSH1 0x20 DUP3 ADD SWAP1 POP SWAP2 SWAP1 POP JUMP JUMPDEST PUSH0 PUSH2 0x12D0 DUP3 PUSH2 0x122F JUMP JUMPDEST PUSH2 0x12DA DUP2 DUP6 PUSH2 0x1239 JUMP JUMPDEST SWAP4 POP PUSH2 0x12E5 DUP4 PUSH2 0x1249 JUMP JUMPDEST DUP1 PUSH0 JUMPDEST DUP4 DUP2 LT ISZERO PUSH2 0x1315 JUMPI DUP2 MLOAD PUSH2 0x12FC DUP9 DUP3 PUSH2 0x12A3 JUMP JUMPDEST SWAP8 POP PUSH2 0x1307 DUP4 PUSH2 0x12BA JUMP JUMPDEST SWAP3 POP POP PUSH1 0x1 DUP2 ADD SWAP1 POP PUSH2 0x12E8 JUMP JUMPDEST POP DUP6 SWAP4 POP POP POP POP SWAP3 SWAP2 POP POP JUMP JUMPDEST PUSH0 PUSH1 0x20 DUP3 ADD SWAP1 POP DUP2 DUP2 SUB PUSH0 DUP4 ADD MSTORE PUSH2 0x133A DUP2 DUP5 PUSH2 0x12C6 JUMP JUMPDEST SWAP1 POP SWAP3 SWAP2 POP POP JUMP JUMPDEST PUSH2 0x134B DUP2 PUSH2 0x101B JUMP JUMPDEST DUP2 EQ PUSH2 0x1355 JUMPI PUSH0 PUSH0 REVERT JUMPDEST POP JUMP JUMPDEST PUSH0 DUP2 CALLDATALOAD SWAP1 POP PUSH2 0x1366 DUP2 PUSH2 0x1342 JUMP JUMPDEST SWAP3 SWAP2 POP POP JUMP JUMPDEST PUSH0 PUSH0 PUSH0 PUSH1 0x60 DUP5 DUP7 SUB SLT ISZERO PUSH2 0x1383 JUMPI PUSH2 0x1382 PUSH2 0xC3B JUMP JUMPDEST JUMPDEST PUSH0 PUSH2 0x1390 DUP7 DUP3 DUP8 ADD PUSH2 0xD44 JUMP JUMPDEST SWAP4 POP POP PUSH1 0x20 PUSH2 0x13A1 DUP7 DUP3 DUP8 ADD PUSH2 0xD44 JUMP JUMPDEST SWAP3 POP POP PUSH1 0x40 PUSH2 0x13B2 DUP7 DUP3 DUP8 ADD PUSH2 0x1358 JUMP JUMPDEST SWAP2 POP POP SWAP3 POP SWAP3 POP SWAP3 JUMP JUMPDEST PUSH32 0x4E487B7100000000000000000000000000000000000000000000000000000000 PUSH0 MSTORE PUSH1 0x21 PUSH1 0x4 MSTORE PUSH1 0x24 PUSH0 REVERT JUMPDEST PUSH1 0x7 DUP2 LT PUSH2 0x13FA JUMPI PUSH2 0x13F9 PUSH2 0x13BC JUMP JUMPDEST JUMPDEST POP JUMP JUMPDEST PUSH0 DUP2 SWAP1 POP PUSH2 0x140A DUP3 PUSH2 0x13E9 JUMP JUMPDEST SWAP2 SWAP1 POP JUMP JUMPDEST PUSH0 PUSH2 0x1419 DUP3 PUSH2 0x13FD JUMP JUMPDEST SWAP1 POP SWAP2 SWAP1 POP JUMP JUMPDEST PUSH2 0x1429 DUP2 PUSH2 0x140F JUMP JUMPDEST DUP3 MSTORE POP POP JUMP JUMPDEST PUSH0 PUSH1 0x20 DUP3 ADD SWAP1 POP PUSH2 0x1442 PUSH0 DUP4 ADD DUP5 PUSH2 0x1420 JUMP JUMPDEST SWAP3 SWAP2 POP POP JUMP JUMPDEST PUSH0 PUSH0 PUSH1 0x40 DUP4 DUP6 SUB SLT ISZERO PUSH2 0x145E JUMPI PUSH2 0x145D PUSH2 0xC3B JUMP JUMPDEST JUMPDEST PUSH0 PUSH2 0x146B DUP6 DUP3 DUP7 ADD PUSH2 0x1358 JUMP JUMPDEST SWAP3 POP POP PUSH1 0x20 DUP4 ADD CALLDATALOAD PUSH8 0xFFFFFFFFFFFFFFFF DUP2 GT ISZERO PUSH2 0x148C JUMPI PUSH2 0x148B PUSH2 0xC3F JUMP JUMPDEST JUMPDEST PUSH2 0x1498 DUP6 DUP3 DUP7 ADD PUSH2 0xE70 JUMP JUMPDEST SWAP2 POP POP SWAP3 POP SWAP3 SWAP1 POP JUMP JUMPDEST PUSH0 PUSH1 0x20 DUP3 DUP5 SUB SLT ISZERO PUSH2 0x14B7 JUMPI PUSH2 0x14B6 PUSH2 0xC3B JUMP JUMPDEST JUMPDEST PUSH0 PUSH2 0x14C4 DUP5 DUP3 DUP6 ADD PUSH2 0x1358 JUMP JUMPDEST SWAP2 POP POP SWAP3 SWAP2 POP POP JUMP JUMPDEST PUSH32 0x4E487B7100000000000000000000000000000000000000000000000000000000 PUSH0 MSTORE PUSH1 0x32 PUSH1 0x4 MSTORE PUSH1 0x24 PUSH0 REVERT JUMPDEST PUSH0 DUP2 MLOAD SWAP1 POP SWAP2 SWAP1 POP JUMP JUMPDEST PUSH0 DUP3 DUP3 MSTORE PUSH1 0x20 DUP3 ADD SWAP1 POP SWAP3 SWAP2 POP POP JUMP JUMPDEST DUP3 DUP2 DUP4 MCOPY PUSH0 DUP4 DUP4 ADD MSTORE POP POP POP JUMP JUMPDEST PUSH0 PUSH2 0x152C DUP3 PUSH2 0x14FA JUMP JUMPDEST PUSH2 0x1536 DUP2 DUP6 PUSH2 0x1504 JUMP JUMPDEST SWAP4 POP PUSH2 0x1546 DUP2 DUP6 PUSH1 0x20 DUP7 ADD PUSH2 0x1514 JUMP JUMPDEST PUSH2 0x154F DUP2 PUSH2 0xC47 JUMP JUMPDEST DUP5 ADD SWAP2 POP POP SWAP3 SWAP2 POP POP JUMP JUMPDEST PUSH0 PUSH1 0x40 DUP3 ADD SWAP1 POP PUSH2 0x156D PUSH0 DUP4 ADD DUP6 PUSH2 0x1024 JUMP JUMPDEST DUP2 DUP2 SUB PUSH1 0x20 DUP4 ADD MSTORE PUSH2 0x157F DUP2 DUP5 PUSH2 0x1522 JUMP JUMPDEST SWAP1 POP SWAP4 SWAP3 POP POP POP JUMP JUMPDEST PUSH32 0x4E487B7100000000000000000000000000000000000000000000000000000000 PUSH0 MSTORE PUSH1 0x11 PUSH1 0x4 MSTORE PUSH1 0x24 PUSH0 REVERT JUMPDEST PUSH0 PUSH2 0x15BF DUP3 PUSH2 0x101B JUMP JUMPDEST SWAP2 POP PUSH2 0x15CA DUP4 PUSH2 0x101B JUMP JUMPDEST SWAP3 POP DUP3 DUP3 ADD SWAP1 POP DUP1 DUP3 GT ISZERO PUSH2 0x15E2 JUMPI PUSH2 0x15E1 PUSH2 0x1588 JUMP JUMPDEST JUMPDEST SWAP3 SWAP2 POP POP JUMP JUMPDEST PUSH0 PUSH1 0x40 DUP3 ADD SWAP1 POP PUSH2 0x15FB PUSH0 DUP4 ADD DUP6 PUSH2 0x1024 JUMP JUMPDEST PUSH2 0x1608 PUSH1 0x20 DUP4 ADD DUP5 PUSH2 0xFF3 JUMP JUMPDEST SWAP4 SWAP3 POP POP POP JUMP JUMPDEST PUSH2 0x1618 DUP2 PUSH2 0x10A8 JUMP JUMPDEST DUP2 EQ PUSH2 0x1622 JUMPI PUSH0 PUSH0 REVERT JUMPDEST POP JUMP JUMPDEST PUSH0 DUP2 MLOAD SWAP1 POP PUSH2 0x1633 DUP2 PUSH2 0x160F JUMP JUMPDEST SWAP3 SWAP2 POP POP JUMP JUMPDEST PUSH0 PUSH1 0x20 DUP3 DUP5 SUB SLT ISZERO PUSH2 0x164E JUMPI PUSH2 0x164D PUSH2 0xC3B JUMP JUMPDEST JUMPDEST PUSH0 PUSH2 0x165B DUP5 DUP3 DUP6 ADD PUSH2 0x1625 JUMP JUMPDEST SWAP2 POP POP SWAP3 SWAP2 POP POP JUMP JUMPDEST PUSH0 DUP2 MLOAD SWAP1 POP PUSH2 0x1672 DUP2 PUSH2 0xD2E JUMP JUMPDEST SWAP3 SWAP2 POP POP JUMP JUMPDEST PUSH0 PUSH2 0x168A PUSH2 0x1685 DUP5 PUSH2 0xCCF JUMP JUMPDEST PUSH2 0xCB5 JUMP JUMPDEST SWAP1 POP DUP1 DUP4 DUP3 MSTORE PUSH1 0x20 DUP3 ADD SWAP1 POP PUSH1 0x20 DUP5 MUL DUP4 ADD DUP6 DUP2 GT ISZERO PUSH2 0x16AD JUMPI PUSH2 0x16AC PUSH2 0xCFA JUMP JUMPDEST JUMPDEST DUP4 JUMPDEST DUP2 DUP2 LT ISZERO PUSH2 0x16D6 JUMPI DUP1 PUSH2 0x16C2 DUP9 DUP3 PUSH2 0x1664 JUMP JUMPDEST DUP5 MSTORE PUSH1 0x20 DUP5 ADD SWAP4 POP POP PUSH1 0x20 DUP2 ADD SWAP1 POP PUSH2 0x16AF JUMP JUMPDEST POP POP POP SWAP4 SWAP3 POP POP POP JUMP JUMPDEST PUSH0 DUP3 PUSH1 0x1F DUP4 ADD SLT PUSH2 0x16F4 JUMPI PUSH2 0x16F3 PUSH2 0xC43 JUMP JUMPDEST JUMPDEST DUP2 MLOAD PUSH2 0x1704 DUP5 DUP3 PUSH1 0x20 DUP7 ADD PUSH2 0x1678 JUMP JUMPDEST SWAP2 POP POP SWAP3 SWAP2 POP POP JUMP JUMPDEST PUSH0 PUSH8 0xFFFFFFFFFFFFFFFF DUP3 GT ISZERO PUSH2 0x1727 JUMPI PUSH2 0x1726 PUSH2 0xC57 JUMP JUMPDEST JUMPDEST PUSH1 0x20 DUP3 MUL SWAP1 POP PUSH1 0x20 DUP2 ADD SWAP1 POP SWAP2 SWAP1 POP JUMP JUMPDEST PUSH0 DUP2 MLOAD SWAP1 POP PUSH2 0x1746 DUP2 PUSH2 0x1342 JUMP JUMPDEST SWAP3 SWAP2 POP POP JUMP JUMPDEST PUSH0 PUSH2 0x175E PUSH2 0x1759 DUP5 PUSH2 0x170D JUMP JUMPDEST PUSH2 0xCB5 JUMP JUMPDEST SWAP1 POP DUP1 DUP4 DUP3 MSTORE PUSH1 0x20 DUP3 ADD SWAP1 POP PUSH1 0x20 DUP5 MUL DUP4 ADD DUP6 DUP2 GT ISZERO PUSH2 0x1781 JUMPI PUSH2 0x1780 PUSH2 0xCFA JUMP JUMPDEST JUMPDEST DUP4 JUMPDEST DUP2 DUP2 LT ISZERO PUSH2 0x17AA JUMPI DUP1 PUSH2 0x1796 DUP9 DUP3 PUSH2 0x1738 JUMP JUMPDEST DUP5 MSTORE PUSH1 0x20 DUP5 ADD SWAP4 POP POP PUSH1 0x20 DUP2 ADD SWAP1 POP PUSH2 0x1783 JUMP JUMPDEST POP POP POP SWAP4 SWAP3 POP POP POP JUMP JUMPDEST PUSH0 DUP3 PUSH1 0x1F DUP4 ADD SLT PUSH2 0x17C8 JUMPI PUSH2 0x17C7 PUSH2 0xC43 JUMP JUMPDEST JUMPDEST DUP2 MLOAD PUSH2 0x17D8 DUP5 DUP3 PUSH1 0x20 DUP7 ADD PUSH2 0x174C JUMP JUMPDEST SWAP2 POP POP SWAP3 SWAP2 POP POP JUMP JUMPDEST PUSH0 PUSH2 0x17EB DUP3 PUSH2 0xCFE JUMP JUMPDEST SWAP1 POP SWAP2 SWAP1 POP JUMP JUMPDEST PUSH2 0x17FB DUP2 PUSH2 0x17E1 JUMP JUMPDEST DUP2 EQ PUSH2 0x1805 JUMPI PUSH0 PUSH0 REVERT JUMPDEST POP JUMP JUMPDEST PUSH0 DUP2 MLOAD SWAP1 POP PUSH2 0x1816 DUP2 PUSH2 0x17F2 JUMP JUMPDEST SWAP3 SWAP2 POP POP JUMP JUMPDEST PUSH0 PUSH0 PUSH0 PUSH1 0x60 DUP5 DUP7 SUB SLT ISZERO PUSH2 0x1833 JUMPI PUSH2 0x1832 PUSH2 0xC3B JUMP JUMPDEST JUMPDEST PUSH0 DUP5 ADD MLOAD PUSH8 0xFFFFFFFFFFFFFFFF DUP2 GT ISZERO PUSH2 0x1850 JUMPI PUSH2 0x184F PUSH2 0xC3F JUMP JUMPDEST JUMPDEST PUSH2 0x185C DUP7 DUP3 DUP8 ADD PUSH2 0x16E0 JUMP JUMPDEST SWAP4 POP POP PUSH1 0x20 DUP5 ADD MLOAD PUSH8 0xFFFFFFFFFFFFFFFF DUP2 GT ISZERO PUSH2 0x187D JUMPI PUSH2 0x187C PUSH2 0xC3F JUMP JUMPDEST JUMPDEST PUSH2 0x1889 DUP7 DUP3 DUP8 ADD PUSH2 0x17B4 JUMP JUMPDEST SWAP3 POP POP PUSH1 0x40 PUSH2 0x189A DUP7 DUP3 DUP8 ADD PUSH2 0x1808 JUMP JUMPDEST SWAP2 POP POP SWAP3 POP SWAP3 POP SWAP3 JUMP JUMPDEST PUSH0 PUSH1 0x60 DUP3 ADD SWAP1 POP PUSH2 0x18B7 PUSH0 DUP4 ADD DUP7 PUSH2 0x1024 JUMP JUMPDEST PUSH2 0x18C4 PUSH1 0x20 DUP4 ADD DUP6 PUSH2 0xFF3 JUMP JUMPDEST PUSH2 0x18D1 PUSH1 0x40 DUP4 ADD DUP5 PUSH2 0xFF3 JUMP JUMPDEST SWAP5 SWAP4 POP POP POP POP JUMP INVALID LOG2 PUSH5 0x6970667358 0x22 SLT KECCAK256 SLT 0xC4 0xE5 ADDRESS JUMP PUSH31 0x7B87F67A652E44161D8493261144681370F393508B81A2E1A38964736F6C63 NUMBER STOP ADDMOD SHL STOP CALLER "
				},
				"gasEstimates": {
					"creation": {
						"codeDepositCost": "1283000",
						"executionCost": "infinite",
						"totalCost": "infinite"
					},
					"external": {
						"NATIVE()": "396",
						"allocate(bytes,address)": "infinite",
						"distribute(address[],bytes,address)": "infinite",
						"getAllo()": "infinite",
						"getPayouts(address[],bytes[])": "infinite",
						"getPoolAmount()": "2499",
						"getPoolId()": "2455",
						"getRecipientStatus(address)": "527",
						"getStrategyId()": "infinite",
						"increasePoolAmount(uint256)": "infinite",
						"initialize(uint256,bytes)": "infinite",
						"isPoolActive()": "2595",
						"isValidAllocator(address)": "594",
						"registerRecipient(bytes,address)": "infinite",
						"withdraw(address,address,uint256)": "infinite"
					},
					"internal": {
						"_allocate(bytes memory,address)": "infinite",
						"_distribute(address[] memory,bytes memory,address)": "infinite",
						"_getPayout(address,bytes memory)": "infinite",
						"_getRecipientStatus(address)": "infinite",
						"_isValidAllocator(address)": "infinite",
						"_registerRecipient(bytes memory,address)": "infinite"
					}
				},
				"methodIdentifiers": {
					"NATIVE()": "a0cf0aea",
					"allocate(bytes,address)": "ef2920fc",
					"distribute(address[],bytes,address)": "0a6f0ee9",
					"getAllo()": "15cc481e",
					"getPayouts(address[],bytes[])": "b2b878d0",
					"getPoolAmount()": "4ab4ba42",
					"getPoolId()": "38fff2d0",
					"getRecipientStatus(address)": "eb11af93",
					"getStrategyId()": "42fda9c7",
					"increasePoolAmount(uint256)": "f5b0dfb7",
					"initialize(uint256,bytes)": "edd146cc",
					"isPoolActive()": "df868ed3",
					"isValidAllocator(address)": "4d31d087",
					"registerRecipient(bytes,address)": "2bbe0cae",
					"withdraw(address,address,uint256)": "d9caed12"
				}
			},
			"storageLayout": {
				"storage": [
					{
						"astId": 1066,
						"contract": "src/YeeterStrategy.sol:YeeterStrategy",
						"label": "poolActive",
						"offset": 0,
						"slot": "0",
						"type": "t_bool"
					},
					{
						"astId": 1068,
						"contract": "src/YeeterStrategy.sol:YeeterStrategy",
						"label": "poolId",
						"offset": 0,
						"slot": "1",
						"type": "t_uint256"
					},
					{
						"astId": 1070,
						"contract": "src/YeeterStrategy.sol:YeeterStrategy",
						"label": "poolAmount",
						"offset": 0,
						"slot": "2",
						"type": "t_uint256"
					}
				],
				"types": {
					"t_bool": {
						"encoding": "inplace",
						"label": "bool",
						"numberOfBytes": "1"
					},
					"t_uint256": {
						"encoding": "inplace",
						"label": "uint256",
						"numberOfBytes": "32"
					}
				}
			},
			"userdoc": {
				"errors": {
					"ALLOCATION_ACTIVE()": [
						{
							"notice": "Thrown when the allocation is active."
						}
					],
					"ALLOCATION_NOT_ACTIVE()": [
						{
							"notice": "Thrown when the allocation is not active."
						}
					],
					"ALLOCATION_NOT_ENDED()": [
						{
							"notice": "Thrown when the allocation is not ended."
						}
					],
					"ALREADY_INITIALIZED()": [
						{
							"notice": "Thrown when data is already intialized"
						}
					],
					"AMOUNT_MISMATCH()": [
						{
							"notice": "Thrown when the amount of tokens sent does not match the amount of tokens expected"
						}
					],
					"ARRAY_MISMATCH()": [
						{
							"notice": "Thrown when two arrays length are not equal"
						}
					],
					"INVALID()": [
						{
							"notice": "Thrown as a general error when input / data is invalid"
						}
					],
					"INVALID_ADDRESS()": [
						{
							"notice": "Thrown when an invalid address is used"
						}
					],
					"INVALID_FEE()": [
						{
							"notice": "Thrown when the fee is below 1e18 which is the fee percentage denominator"
						}
					],
					"INVALID_METADATA()": [
						{
							"notice": "Thrown when the metadata is invalid."
						}
					],
					"INVALID_REGISTRATION()": [
						{
							"notice": "Thrown when the registration is invalid."
						}
					],
					"IS_APPROVED_STRATEGY()": [
						{
							"notice": "Thrown when the strategy is approved and should be cloned"
						}
					],
					"MISMATCH()": [
						{
							"notice": "Thrown when mismatch in decoding data"
						}
					],
					"NON_ZERO_VALUE()": [
						{
							"notice": "Thrown when the value is non-zero"
						}
					],
					"NOT_APPROVED_STRATEGY()": [
						{
							"notice": "Thrown when the strategy is not approved"
						}
					],
					"NOT_ENOUGH_FUNDS()": [
						{
							"notice": "Thrown when not enough funds are available"
						}
					],
					"NOT_IMPLEMENTED()": [
						{
							"notice": "Thrown when the function is not implemented"
						}
					],
					"NOT_INITIALIZED()": [
						{
							"notice": "Thrown when data is yet to be initialized"
						}
					],
					"POOL_ACTIVE()": [
						{
							"notice": "Thrown when a pool is already active"
						}
					],
					"POOL_INACTIVE()": [
						{
							"notice": "Thrown when a pool is inactive"
						}
					],
					"RECIPIENT_ALREADY_ACCEPTED()": [
						{
							"notice": "Thrown when recipient is already accepted."
						}
					],
					"RECIPIENT_ERROR(address)": [
						{
							"notice": "Thrown when there is an error in recipient."
						}
					],
					"RECIPIENT_NOT_ACCEPTED()": [
						{
							"notice": "Thrown when the recipient is not accepted."
						}
					],
					"REGISTRATION_ACTIVE()": [
						{
							"notice": "Thrown when registration is active."
						}
					],
					"REGISTRATION_NOT_ACTIVE()": [
						{
							"notice": "Thrown when registration is not active."
						}
					],
					"UNAUTHORIZED()": [
						{
							"notice": "Thrown when user is not authorized"
						}
					],
					"ZERO_ADDRESS()": [
						{
							"notice": "Thrown when address is the zero address"
						}
					]
				},
				"events": {
					"Allocated(address,uint256,address,address)": {
						"notice": "Emitted when a recipient is allocated to."
					},
					"Distributed(address,address,uint256,address)": {
						"notice": "Emitted when tokens are distributed."
					},
					"Initialized(uint256,bytes)": {
						"notice": "Emitted when strategy is initialized."
					},
					"PoolActive(bool)": {
						"notice": "Emitted when pool is set to active status."
					},
					"Registered(address,bytes,address)": {
						"notice": "Emitted when a recipient is registered."
					}
				},
				"kind": "user",
				"methods": {
					"NATIVE()": {
						"notice": "Address of the native token"
					},
					"allocate(bytes,address)": {
						"notice": "Allocates to a recipient."
					},
					"distribute(address[],bytes,address)": {
						"notice": "Distributes funds (tokens) to recipients."
					},
					"getAllo()": {
						"notice": "Getter for the 'Allo' contract."
					},
					"getPayouts(address[],bytes[])": {
						"notice": "Gets the payout summary for recipients."
					},
					"getPoolAmount()": {
						"notice": "Getter for the 'poolAmount'."
					},
					"getPoolId()": {
						"notice": "Getter for the 'poolId'."
					},
					"getRecipientStatus(address)": {
						"notice": "Getter for the status of a recipient."
					},
					"getStrategyId()": {
						"notice": "Getter for the 'strategyId'."
					},
					"increasePoolAmount(uint256)": {
						"notice": "Increases the pool amount."
					},
					"initialize(uint256,bytes)": {
						"notice": "@dev The default BaseStrategy version will not use the data  if a strategy wants to use it, they will overwrite it,      use it, and then call super.initialize()."
					},
					"isPoolActive()": {
						"notice": "Getter for whether or not the pool is active."
					},
					"isValidAllocator(address)": {
						"notice": "Checks if the '_allocator' is a valid allocator."
					},
					"registerRecipient(bytes,address)": {
						"notice": "Registers a recipient."
					},
					"withdraw(address,address,uint256)": {
						"notice": "Withdraw funds stuck on contract"
					}
				},
				"version": 1
			}
		}
	}
}